:100000000C9499010C9405100C9436100C94671004
:100010000C9498100C94C9100C94FA100C942B1199
:100020000C945C110C94CA010C94CA010C94CA0182
:100030000C94CA010C94CA010C94CA010C94CA0114
:100040000C94CA010C94CA010C94CA010C94CA0104
:100050000C94CA010C94CA010C94CA010C94520D60
:100060000C94CA010C9441120C9431130C94CA01E3
:100070000C94CA010C94CA010C94CA010C94CA01D4
:100080000C94CA010C94CA010C94CA010C94CA01C4
:100090000C9475120C9470130C94CA010C94CA0140
:1000A0000C94CA010C94CA010C94CA010C94CA01A4
:1000B0000C94CA010C94CA010C94CA010C94CA0194
:1000C0000C94CA010C94CA010C94CA010C94A91294
:1000D0000C94AF130C94CA010C94DD120C94EE1323
:1000E0000C94CA012B0E2E0E210E250E650E320E1B
:1000F000360E3C0E400E440E4A0E4E0E520E650E4B
:10010000580E5C0E600EFB0E000F050F0F0F880FD0
:10011000190F210F290F330F3D0F470F560F600F97
:10012000880F6A0F740F7E0FDF0FA90FB10FBD0F7D
:10013000CA0FEB0FF80F0C94000F0C9426020C94CE
:10014000210F0C949D110C94250E0C941A020C9402
:1001500087150C94A90F0C94290F0C948D110C94F5
:100160004E0E0C940F0F0C94B9110C94BD0F0C94FF
:100170000E020C94650E0C94360E0C947E0F0C94AB
:10018000520E0C944A0E0C94740F0C94EB0F0C94BA
:100190008C040C94190F0C94B10F0C9420020C9445
:1001A000210E0C94880F0C943D0F0C94050F0C94A9
:1001B000580E0C94D9110C94320E0C94FB0E0C9426
:1001C0002B0E0C94CA0F0C94400E0C942C020C9421
:1001D0002E0E0C943C0E0C94600E0C94DF0F0C94BD
:1001E000560F0C94600F0C94F80F0C945C0E0C944A
:1001F000E4110C94B5140C94470F0C94440E0C9419
:10020000330F0C946A0F0C9414020C94101300001A
:10021000090A02080B0C0D07060304010000000088
:1002200000000000000000000000000000000000CE
:100230000000000000000000000011100F0000008E
:1002400000000000000000000000000000000000AE
:10025000000000000102102020080810204010209B
:10026000408002010201080402010102040810207A
:100270004080804020100804020180040201804078
:1002800020100804020108040201010204081020E1
:10029000408001020408102040800505050507057F
:1002A00008080808020202020A0A080804040404F2
:1002B000010101010101010103030303030303031E
:1002C000040707070C0C0C0C0C0C0C0C02020202AD
:1002D00006060606060606060B0B0B0B0B0B0B0B96
:1002E000000020002300260029002C002F003200EF
:1002F00000010000030106010901000022002500A1
:1003000028002B002E0031003400020100000501FE
:1003100008010B0100002100240027002A002D0005
:100320003000330001010000040107010A018C04C0
:10033000B51411241FBECFEFD1E2DEBFCDBF00E068
:100340000CBF12E0A0E0B2E0E2E5F2E300E00BBF98
:1003500002C007900D92AE31B107D9F727E0AEE1A8
:10036000B2E001C01D92A333B207E1F711E0C9E981
:10037000D1E000E006C021970109802FFE010E9414
:100380000519C739D10780E00807A9F70E94981618
:100390000C9427190C940000DC01ED91FD918081F3
:1003A000ED91FD919081ED91FD916C9163708E23A3
:1003B00009F064609F2309F06860E9EEF1E0E60F60
:1003C000F11D659565956D936D917D918D919D91D3
:1003D000099423C01AC012C016C010C01EC009C0A4
:1003E00014C013C006C019C009C00DC007C00DC09D
:1003F00014C062507040804090400BC0615070400B
:100400008040904006C06E5F01C06F5F7F4F8F4F8E
:100410009F4F9E938E937E936E9308958091700468
:10042000909171040C94CC0180916E0490916F04B2
:100430000C94CC0180916C0490916D040C94CC01CF
:1004400080916A0490916B040C94CC0180916804B3
:10045000909169040C94CC0180916604909167049A
:100460000C94CC01823109F440C078F48230E1F080
:10047000833009F044C0709369046093680441E0DC
:1004800050E066E272E081E02CC08431B9F000F106
:100490008531A9F570936B0460936A0441E050E0E4
:1004A00060E272E082E01DC07093670460936604AE
:1004B00041E050E06CE272E080E013C070936D04A4
:1004C00060936C0441E050E06AE172E083E009C0AF
:1004D00070936F0460936E0441E050E064E172E059
:1004E00084E00E94910F81E00895709371046093FD
:1004F000700441E050E06EE072E085E0F2CF80E011
:1005000008953F924F925F926F927F928F929F9247
:10051000AF92BF92CF92DF92EF92FF920F931F9311
:10052000CF93DF93EC01562E442E322E62E0802FC3
:100530000E94660E62E08E2D0E94660E802F90E073
:10054000FC01E656FD4FE491F0E0EE0FFF1FE05294
:10055000FD4F2591349139832883FC01EC5AFD4FDE
:10056000E491EC832E2D30E0F901E656FD4FE49145
:10057000F0E0EE0FFF1FE052FD4F859194919B83B9
:100580008A83F901EC5AFD4FE491ED831F821886AE
:1005900019861A8680ED97E00E94A80DE881F981FE
:1005A00090818C81982381E009F480E0EA81FB81CD
:1005B00020819D81922309F082608E83BE01802F6D
:1005C0000E9432028B87BE018E2D0E9432022B8543
:1005D00090E0820F911D8B874E018CE0880E911C5C
:1005E0003E0198E4690E711CAE014C5A5F4FBE018A
:1005F000605B7F4F1F921F928CE38F938CEC8F93E5
:100600008F938DEC8F938DECA82E8CECB82E8CE410
:10061000C82E8DE3D82EE12CF12C00E81EE39301C7
:10062000C4010E94200D5E01ECE4AE0EB11C8FEF00
:10063000F50180836E01FDE4CF0ED11CF6018083AD
:100640007E01FEE4EF0EF11CF7018083C45ADF4FF8
:10065000188219821A821B82F3011082118212827F
:10066000138261E070E0C4010E945E0C00E010E0C3
:100670002FE733E440E050E06FE773ECC4010E94E1
:10068000980BF5015082F6014082F701308261E05B
:10069000852D0E94660E61E0F60180810E94660E43
:1006A0000F900F900F900F900F900F9061E0F70157
:1006B0008081DF91CF911F910F91FF90EF90DF909C
:1006C000CF90BF90AF909F908F907F906F905F90F2
:1006D0004F903F900C94660ECF93DF93EC01613006
:1006E00051F4FC01E35BFF4F60E080810E94A20EA9
:1006F000C25BDF4F0BC0623059F4FC01E25BFF4F7D
:1007000060E080810E94A20EC35BDF4F61E00CC0FD
:10071000633079F4FC01E35BFF4F60E080810E946D
:10072000A20EC25BDF4F60E08881DF91CF910C9415
:10073000A20EDF91CF91089570E0FC01E45BFF4FC2
:1007400080810C94D20E8F929F92AF92BF92CF92E3
:10075000DF92EF92FF92CF93DF934A015B01EC01AE
:10076000C45ADF4F88819981AA81BB819A01AB016C
:10077000281B390B4A0B5B0BA8E5B2E00E940D1950
:100780000E94C11720E030E040EF54E40E941717A8
:100790006B017C0188829982AA82BB8220E030E0D2
:1007A000A9010E947118181624F0C701B6019058CB
:1007B00002C0C701B601DF91CF91FF90EF90DF90AB
:1007C000CF90BF90AF909F908F9008950F931F93FD
:1007D000CF93DF93EC018B85823028F4F894CE011F
:1007E0000E94CC0101C0F8943F81288599858A85B3
:1007F0007894FE01E85AFF4F3083218392838383EC
:10080000432F522F692F782F77FF07C0709560957F
:10081000509541955F4F6F4F7F4FCE010E94A303CC
:10082000FE01E05BFF4F6083718382839383CE017F
:100830000C960E9467098E01015B1F4FF8016081D1
:1008400070E080E090E00E94C117FE01EC5AFF4F7B
:1008500020813181428153810E94A6160E9489170E
:1008600077FD07C06F3F710529F024F06FEF70E04E
:1008700001C060E0F801608320E030E0A901FE01E2
:10088000E85BFF4F60817181828193810E94121722
:10089000811102C0F8011082F8016081CE01DF9160
:1008A000CF911F910F910C949C03CF93DF93EC0198
:1008B0008B85823028F4F894CE010E94CC0101C0CF
:1008C000F8946F81788589859A857894C85ADF4F26
:1008D000688379838A839B83DF91CF910895CF9337
:1008E000DF9340E855E260E070E081EF94E00E9421
:1008F0002D141092200210922102C6EED2E063E085
:10090000CE010E946C03C05ADF4F84E0C636D80780
:10091000B1F7DF91CF910895EF920F9384E3E82E22
:1009200004E12AE14BE16AE086EE92E00E94810256
:1009300095E3E92E05E12CE14DE16BE086E493E0DF
:100940000E94810223E3E22E03E126E147E168E011
:1009500086EA93E00E94810232E3E32E02E128E17D
:1009600049E169E086E094E00E94810243E0E42EE0
:1009700002E029E248E265E086E892E00E94810216
:10098000EE24EA940FEF2BE24AE266E086E292E080
:100990000E9481020F91EF900895CF92DF92EF9223
:1009A000FF920F931F93CF93DF930E949C0D0091B2
:1009B0002202109123022091240230912502DC01B1
:1009C000CB01801B910BA20BB30B84369105A105C3
:1009D000B10508F473C40E949C0D609322027093C9
:1009E0002302809324029093250281EF94E00E94D9
:1009F0008D111816190664F481EF94E00E94B91164
:100A00008093200281EF94E00E94B911809321022B
:100A10008091200290E0609121020097A1F4C6EE3F
:100A2000D2E063E0CE010E946C03FE01E85BFF4F61
:100A30001082118212821382C05ADF4F84E0C636C0
:100A4000D80779F702C4C62ED12C8130910529F53B
:100A5000C6EED2E00D2C000CEE08FF0861E0CE01DE
:100A60000E946C038E01085B1F4FC701B6010E94F4
:100A7000C117F8016083718382839383C05ADF4F6B
:100A8000F4E0C636DF0751F74AE050E061E070E07D
:100A900081EF94E00E948116D8C382309105E9F479
:100AA000C6EED2E00D2C000CEE08FF0862E0CE018D
:100AB0000E946C038E01085B1F4FC701B6010E94A4
:100AC000C117F8016083718382839383C05ADF4F1B
:100AD000F4E0C636DF0751F7B8C38330910539F427
:100AE00062E086EE92E00E946C0361E027C08430F1
:100AF000910539F461E086EE92E00E946C0362E0B9
:100B000009C08530910589F462E086EE92E00E948A
:100B10006C0361E086E493E00E946C0361E086EA86
:100B200093E00E946C0362E013C086309105D9F512
:100B300061E086EE92E00E946C0362E086E493E05E
:100B40000E946C0362E086EA93E00E946C0361E01D
:100B500086E094E00E946C03B601DD0C880B990BD3
:100B60000E94C11760932E0370932F03809330036C
:100B70009093310360938E0370938F03809390035F
:100B8000909391036093EE037093EF038093F003CF
:100B90009093F10360934E0470934F04809350043C
:100BA0009093510452C38730910569F510922E033A
:100BB00010922F031092300310923103B601DD0C16
:100BC000880B990B0E94C11760938E0370938F035B
:100BD00080939003909391031092EE031092EF0391
:100BE0001092F0031092F10360934E0470934F043F
:100BF000809350049093510463E086EE92E00E944B
:100C00006C0361E0FEC08830910569F5B601DD0C2A
:100C1000880B990B0E94C11760932E0370932F03CA
:100C2000809330039093310310928E0310928F03C0
:100C300010929003109291036093EE037093EF0370
:100C40008093F0039093F10310924E0410924F049E
:100C5000109250041092510461E086EE92E00E94DE
:100C60006C0363E099C089309105B9F5B601DD0CDC
:100C7000880B990B0E94C11760932E0370932F036A
:100C8000809330039093310310928E0310928F0360
:100C900010929003109291036093EE037093EF0310
:100CA0008093F0039093F10310924E0410924F043E
:100CB000109250041092510462E086EE92E00E947D
:100CC0006C0363E086E493E00E946C0362E086EAD2
:100CD00093E00E946C0363E0D7C18A30910569F507
:100CE00010922E0310922F031092300310923103B2
:100CF000B601DD0C880B990B0E94C11760938E031F
:100D000070938F0380939003909391031092EE035E
:100D10001092EF031092F0031092F10360934E04CF
:100D200070934F04809350049093510463E086EED7
:100D300092E00E946C0362E0C9C08B30910591F58E
:100D400010922E0310922F03109230031092310351
:100D5000B601DD0C880B990B0E94C11760938E03BE
:100D600070938F0380939003909391036093EE03AD
:100D70007093EF038093F0039093F10310924E046D
:100D800010924F04109250041092510463E086EECA
:100D900092E00E946C0361E086E493E00E946C03A1
:100DA00061E095CF8C30910591F5B601DD0C880B93
:100DB000990B0E94C11760932E0370932F038093A9
:100DC00030039093310310928E0310928F03109290
:100DD0009003109291031092EE031092EF03109281
:100DE000F0031092F10360934E0470934F048093CC
:100DF00050049093510461E086EE92E00E946C03EF
:100E000063E086E493E00E946C0363E038C18D30B8
:100E1000910569F510922E0310922F031092300362
:100E200010923103B601DD0C880B990B0E94C1179B
:100E300060938E0370938F0380939003909391033C
:100E40006093EE037093EF038093F0039093F103AC
:100E500010924E0410924F041092500410925104BC
:100E600063E086EE92E00E946C0362E02BCF8E304E
:100E7000910591F5B601DD0C880B990B0E94C11705
:100E800060932E0370932F0380933003909331036C
:100E900010928E0310928F03109290031092910380
:100EA0001092EE031092EF031092F0031092F103F0
:100EB00060934E0470934F048093500490935104B8
:100EC00062E086EE92E00E946C0363E086E493E0C9
:100ED0000E946C0363E099C08F30910569F5B601FB
:100EE000DD0C880B990B0E94C11760932E03709341
:100EF0002F03809330039093310360938E0370939C
:100F00008F0380939003909391031092EE031092BD
:100F1000EF031092F0031092F10310924E0410921E
:100F20004F04109250041092510462E086EE92E059
:100F30000E946C0361E02FC08031910591F5B601EC
:100F4000DD0C880B990B0E94C11760932E037093E0
:100F50002F03809330039093310360938E0370933B
:100F60008F0380939003909391031092EE0310925D
:100F7000EF031092F0031092F10310924E041092BE
:100F80004F04109250041092510461E086EE92E0FA
:100F90000E946C0362E086E493E00E946C0363E0CD
:100FA00096CE81319105B9F510922E0310922F0340
:100FB000109230031092310310928E0310928F031F
:100FC0001092900310929103B601DD0C880B990BDF
:100FD0000E94C1176093EE037093EF038093F003B8
:100FE0009093F10360934E0470934F0480935004E8
:100FF0009093510463E086EE92E00E946C0363E0FC
:1010000086E493E00E946C0361E086EA93E00E942C
:101010006C0362E039C082319105C9F510922E034C
:1010200010922F03109230031092310310928E030E
:1010300010928F031092900310929103B601DD0C71
:10104000880B990B0E94C1176093EE037093EF0316
:101050008093F0039093F10360934E0470934F04D8
:10106000809350049093510463E086EE92E00E94D6
:101070006C0363E086E493E00E946C0362E086EA1E
:1010800093E00E946C0361E086E094E0DCC0833171
:10109000910589F5B601DD0C880B990B0E94C117EB
:1010A0006B017C019B01AC0160918E0370918F03F9
:1010B00080919003909191030E94A61660938E03F5
:1010C00070938F038093900390939103A7019601EF
:1010D0006091EE037091EF038091F0039091F10322
:1010E0000E94A6166093EE037093EF038093F003C3
:1010F0009093F103AAC08431910589F5B601DD0C06
:10110000880B990B0E94C1176B017C019B01AC01FC
:1011100060912E0370912F038091300390913103E1
:101120000E94A61660932E0370932F0380933003C2
:1011300090933103A70196016091AE047091AF04C2
:101140008091B0049091B1040E94A6166093AE0401
:101150007093AF048093B0049093B10476C085314E
:10116000910519F586E892E00E9455046B017C0117
:1011700068E286E892E00E949C0361E086E892E0E3
:101180000E946C038FE7C80E85E2D81EE11CF11C9B
:1011900086E892E00E945504C616D706E806F906CE
:1011A000BCF763E086E892E04EC08631910501F518
:1011B00086E892E00E9455046B017C0168E286E8B3
:1011C00092E00E949C0362E086E892E00E946C0339
:1011D000EFE7CE0EE5E2DE1EE11CF11C86E892E0B0
:1011E0000E945504C616D706E806F906BCF7D9CF03
:1011F0008731910569F460E072E081EF94E00E942C
:10120000C4156FEF86E292E00E949C0361E019C072
:101210008831910569F463E072E081EF94E00E9407
:10122000C4156CED86E292E00E949C0362E009C066
:10123000499781F568E072E081EF94E00E94C4155F
:1012400063E086E292E00E946C0386EE92E00E94E8
:10125000E60386E493E00E94E60386EA93E00E94B8
:10126000E60386E094E00E94E60380911E029091DE
:101270001F02019690931F0280931E0281EF94E05B
:10128000DF91CF911F910F91FF90EF90DF90CF9062
:101290000C94D911C6EED2E063E0CE010E946C033B
:1012A000FE01E85BFF4F1082118212821382C05A46
:1012B000DF4FF4E0C636DF0779F7C7CFDF91CF9174
:1012C0001F910F91FF90EF90DF90CF9008952F9294
:1012D0003F924F925F926F927F928F929F92AF92C6
:1012E000BF92CF92DF92EF92FF920F931F93CF9313
:1012F000DF93CDB7DEB760970FB6F894DEBF0FBEB1
:10130000CDBFDC01DA96BC91B983B11102C019825C
:1013100027C1988B8F870E949C0D6E837F8388875F
:101320009987EF85F88982A193A1A4A1B5A14E81E7
:101330005F8168857985481B590B6A0B7B0B86A5F5
:1013400097A5A0A9B1A9481759076A077B07F8F222
:10135000248D358DD9018D919D910D90BC91A02D3D
:101360008A839B83AC83BD8300A0F1A1E02D9C0107
:10137000AD0160817181828193810E94A5164B012C
:101380005C01EF85F88922A533A544A555A56A819E
:101390007B818C819D810E94A5166B017C01AF85AC
:1013A000B88950962D913D914D915C915397C5010F
:1013B000B4010E947618EF85F88926A137A140A5CF
:1013C00051A50E94A6162B013C01AF85B8899696BF
:1013D0006D937D938D939C939997DB96BC91BA877F
:1013E000B11118C0EF85F889248535854685578564
:1013F000C701B6010E9476189B01AC01C301B2017E
:101400000E94A516AF85B88996966D937D938D93AE
:101410009C939997EF85F88946A057A060A471A482
:1014200016A907A930AC21AC212F302F432D522D06
:10143000C301B2010E94711818162CF4812F902F4D
:10144000A32DB22D18C0AF85B889D2968D919D91EC
:101450000D90BC91A02D8B879C87AD87BE879C018A
:10146000AD01C301B2010E94121787FF0AC08B852C
:101470009C85AD85BE85EF85F88986A397A3A0A737
:10148000B1A7FA85FF2379F0AF85B8891C962D9115
:101490003D914D915C911F97C501B4010E94761852
:1014A0004B015C0103C0812C912C5401EF85F8891C
:1014B0002489358946895789C701B6010E94761863
:1014C0009B01AC01AF85B88996966D917D918D9108
:1014D0009C9199970E94A5169B01AC01C501B4018E
:1014E0000E94A6166B017C01212F302F432D522D17
:1014F0000E9471181816A4F0EF85F88912A903A9A3
:1015000034A825A8212F302F432D522DB601C70115
:101510000E94121787FD04C01C2D0D2D3E2C2F2C70
:10152000AF85B8895E96ED91FC915F97812F902FE2
:10153000A32DB22D80839183A283B3838A819B8163
:10154000AC81BD81EF85F88982A793A7A4A7B5A731
:101550008E819F81A885B98582A393A3A4A3B5A3F7
:10156000898160960FB6F894DEBF0FBECDBFDF91C4
:10157000CF911F910F91FF90EF90DF90CF90BF9090
:10158000AF909F908F907F906F905F904F903F9023
:101590002F9008952F923F924F925F926F927F9279
:1015A0008F929F92AF92BF92CF92DF92EF92FF9273
:1015B0000F931F93CF93DF9300D01F92CDB7DEB769
:1015C0001C0149835A836B837C832801390120E005
:1015D00030E0A90169817A818B819C810E94121778
:1015E00087FD8FC020E030E0A901C301B2010E9455
:1015F000121787FD86C020E030E0A901C701B601BF
:101600000E94121787FD7DC0D1015B96BC92AE92FD
:101610005A9781E0AA94AB2809F080E0F10183AFEA
:1016200089819A81AB81BC8180839183A283B383BA
:101630004482558266827782C086D186E286F386AE
:1016400066A577A580A991A90E94BF1720E030E088
:101650004AE754E40E9417174B015C0189819A8183
:10166000AB81BC81F10184879587A687B787A501E7
:101670009401C301B2010E9476182B013C01D101F3
:1016800050966D937D938D939C935397A5019401F0
:10169000C701B6010E9417176B017C01F101648B31
:1016A000758B868B978B808D918D019751F5298154
:1016B0003A814B815C8160E070E0CB010E94A5160D
:1016C000D1011C966D937D938D939C931F97A301DD
:1016D000920160E070E0CB010E94A516F101608BE1
:1016E000718B828B938BA701960160E070E0CB0138
:1016F0000E94A516D10154966D937D938D939C9372
:1017000057970F900F900F900F90DF91CF911F91EF
:101710000F91FF90EF90DF90CF90BF90AF909F9090
:101720008F907F906F905F904F903F902F90089593
:101730002F923F924F925F926F927F928F929F92E1
:10174000AF92BF92CF92DF92EF92FF920F931F93CF
:10175000CF93DF93EC016A017B0148015901A90194
:101760009801C701B6010E94711887FF4EC0CAAA2E
:10177000DBAAECAAFDAA8EAA9FAAA8AEB9AE8AAD32
:10178000882309F442C02E8C3F8CF10140805180A7
:1017900062807380A5019401C301B2010E94711897
:1017A000181634F4F10180829182A282B3820DC0B6
:1017B000A7019601C301B2010E94121787FF05C05D
:1017C000F101C082D182E282F3828EA09FA0A8A400
:1017D000B9A4CEA8DFA8E8ACF9ACA7019601C50171
:1017E000B4010E947118181664F0CAA8DBA8ECA80E
:1017F000FDA8A7019601C501B4010E94121787FF39
:1018000004C0CEA2DFA2E8A6F9A6DF91CF911F9176
:101810000F91FF90EF90DF90CF90BF90AF909F908F
:101820008F907F906F905F904F903F902F90089592
:101830008F929F92AF92BF92CF92DF92EF92FF92E0
:10184000CF93DF93EC01EE8DFF8DC080D180E280DD
:10185000F380CEA2DFA2E8A6F9A6EC8DFD8D8081F3
:101860009181A281B3818AA79BA7ACA7BDA78EA8AF
:101870009FA8A8ACB9ACA5019401C701B6010E940C
:101880007118181664F08AA89BA8ACA8BDA8A50179
:101890009401C701B6010E94121787FF04C08EA2EF
:1018A0009FA2A8A6B9A6DF91CF91FF90EF90DF90FD
:1018B000CF90BF90AF909F908F9008951F93CF933C
:1018C000DF93EC0111E06130710511F010E006C00A
:1018D0008AAD811103C0CE010E94180C1AAFDF91AE
:1018E000CF911F9108950F931F93CF93DF93EC0136
:1018F0008B018AAD882361F1888D998D68177907EE
:1019000039F12C853D854E855F8560E070E0CB0127
:101910000E94A5166C877D878E879F8728893989C5
:101920004A895B8960E070E0CB010E94A516688B54
:10193000798B8A8B9B8B2C893D894E895F8960E0EE
:1019400070E0CB010E94A5166C8B7D8B8E8B9F8BDC
:10195000198F088FDF91CF911F910F9108954F92AA
:101960005F926F927F928F929F92AF92BF92CF922F
:10197000DF92EF92FF920F931F93CF93DF9300D0EC
:101980001F92CDB7DEB74C0127013801A982BA8278
:10199000CB82DC82FC01578F468F758F648F31A319
:1019A00020A312AE12AA13AA14AA15AA80E090E0EE
:1019B000AFE7B3E486AB97ABA0AFB1AF84E690E0FE
:1019C000A0E0B0E086A797A7A0ABB1AB6E8D7F8DEE
:1019D000C4010E94730CAC8CBD8CC88CD98CEA8C71
:1019E000FB8C09811A812B813C81B301A201C401C6
:1019F0000E94CA0A0E949C0DF40106A517A520A901
:101A000031A9DC01CB01801B910BA20BB30B82A38C
:101A100093A3A4A3B5A30F900F900F900F90DF9105
:101A2000CF911F910F91FF90EF90DF90CF90BF90DB
:101A3000AF909F908F907F906F905F904F900895A0
:101A40008F929F92AF92BF92CF92DF92EF92FF92CE
:101A50000F931F93CF93DF93CDB7DEB7E889F98952
:101A6000AA89BB899C888D888F929F921F92992406
:101A700093949F92BF93AF93FF93EF930E94AF0C09
:101A80000FB6F894DEBF0FBECDBFDF91CF911F918F
:101A90000F91FF90EF90DF90CF90BF90AF909F900D
:101AA0008F9008951F920F920FB60F9211242F93CB
:101AB0003F938F939F93AF93BF93809173049091C3
:101AC0007404A0917504B09176043091720423E0FF
:101AD000230F2D3720F40196A11DB11D05C026E866
:101AE000230F0296A11DB11D2093720480937304ED
:101AF00090937404A0937504B09376048091770456
:101B000090917804A0917904B0917A040196A11D76
:101B1000B11D8093770490937804A0937904B093D7
:101B20007A04BF91AF919F918F913F912F910F9028
:101B30000FBE0F901F9018952FB7F8946091730403
:101B40007091740480917504909176042FBF08956C
:101B5000019739F0880F991F880F991F02970197F5
:101B6000F1F70895789484B5826084BD84B581606E
:101B700084BD85B5826085BD85B5816085BDEEE695
:101B8000F0E0808181608083E1E8F0E01082808174
:101B900082608083808181608083E0E8F0E08081E2
:101BA00081608083E1EBF0E0808184608083E0EB02
:101BB000F0E0808181608083E1E9F0E080818260F3
:101BC0008083808181608083E0E9F0E080818160B2
:101BD0008083E1EAF0E0808182608083808181609F
:101BE0008083E0EAF0E0808181608083E1E2F1E0DF
:101BF000808182608083808181608083E0E2F1E087
:101C0000808181608083EAE7F0E080818460808366
:101C10008081826080838081816080838081806810
:101C200080831092C100089590E0FC013197E1316A
:101C3000F10508F04AC08827EE58FF4F8F4F0C94EB
:101C40000519809180008F7703C0809180008F7D7F
:101C500080938000089584B58F7702C084B58F7D0E
:101C600084BD08958091B0008F7703C08091B0004B
:101C70008F7D8093B0000895809190008F7707C08A
:101C8000809190008F7D03C080919000877F80932A
:101C9000900008958091A0008F7707C08091A000E8
:101CA0008F7D03C08091A000877F8093A00008955E
:101CB000809120018F7707C0809120018F7D03C024
:101CC00080912001877F809320010895CF93DF9337
:101CD00090E0FC01EC5AFD4F2491FC01E656FD4FCB
:101CE0008491882361F190E0880F991FFC01EC5EDC
:101CF000FC4FC591D491FC01E650FD4FA591B491E4
:101D0000611109C09FB7F894888120958223888348
:101D1000EC912E230BC0623061F49FB7F8943881A8
:101D2000822F809583238883EC912E2B2C939FBF49
:101D300006C08FB7F894E8812E2B28838FBFDF91E0
:101D4000CF9108951F93CF93DF93282F30E0F901AF
:101D5000E25FFD4F8491F901EC5AFD4FD491F901F6
:101D6000E656FD4FC491CC23C9F0162F81110E9475
:101D7000140EEC2FF0E0EE0FFF1FE650FD4FA59183
:101D8000B4918FB7F894111105C09C91ED2FE09597
:101D9000E92302C0EC91ED2BEC938FBFDF91CF9143
:101DA0001F9108951F93CF93DF93182FEB0161E0EC
:101DB0000E94660E209711F460E004C0CF3FD10569
:101DC00039F461E0812FDF91CF911F910C94A20E25
:101DD000E12FF0E0E25FFD4FE4914E2F50E0FA0179
:101DE0003197E131F10508F093C08827ED57FF4F97
:101DF0008F4F0C94051984B5806884BDC7BD8DC014
:101E000084B5806284BDC8BD88C080918000806830
:101E100080938000D0938900C09388007EC0809119
:101E20008000806280938000D0938B00C0938A00F2
:101E300074C08091B00080688093B000C093B300FC
:101E40006CC08091B00080628093B000C093B400F9
:101E500064C080919000806880939000D093990036
:101E6000C09398005AC08091900080628093900047
:101E7000D0939B00C0939A0050C0809190008860DE
:101E800080939000D0939D00C0939C0046C08091A9
:101E9000A00080688093A0008091A0008F7B809339
:101EA000A000D093A900C093A80037C08091A000E3
:101EB00080628093A000D093AB00C093AA002DC095
:101EC0008091A00088608093A000D093AD00C09363
:101ED000AC0023C080912001806880932001D093C2
:101EE0002901C093280119C080912001806280934C
:101EF0002001D0932B01C0932A010FC080912001B3
:101F0000886080932001D0932D01C0932C0105C0DF
:101F1000C038D1050CF055CF4FCFDF91CF911F9135
:101F20000895883008F070C0A82FB0E0AA0FBB1F3A
:101F3000A558BB4F11967C936E9390E0FC013197AE
:101F4000E730F105A0F58827EC56FF4F8F4F0C9432
:101F50000519809169008C7F482B40936900E89AAD
:101F6000089580916900440F551F440F551F837FCA
:101F7000482B40936900E99A08958091690074E0C4
:101F8000440F551F7A95E1F78F7C482B40936900E9
:101F9000EA9A08958091690066E0440F551F6A959A
:101FA000E1F78F73482B40936900EB9A0895809175
:101FB0006A008C7F482B40936A00EC9A08958091C8
:101FC0006A00440F551F440F551F837F482B4093D1
:101FD0006A00ED9A089580916A0024E0440F551F2D
:101FE0002A95E1F78F7C482B40936A00EE9A08957A
:101FF00080916A0096E0440F551F9A95E1F78F7320
:10200000482B40936A00EF9A08951F920F920FB6E3
:102010000F9211240BB60F922F933F934F935F9320
:102020006F937F938F939F93AF93BF93EF93FF93A0
:1020300080917F0490918004892B29F0E0917F04A6
:10204000F09180041995FF91EF91BF91AF919F910D
:102050008F917F916F915F914F913F912F910F9051
:102060000BBE0F900FBE0F901F9018951F920F92EE
:102070000FB60F9211240BB60F922F933F934F93ED
:102080005F936F937F938F939F93AF93BF93EF93E0
:10209000FF938091810490918204892B29F0E09133
:1020A0008104F09182041995FF91EF91BF91AF9156
:1020B0009F918F917F916F915F914F913F912F9160
:1020C0000F900BBE0F900FBE0F901F9018951F9290
:1020D0000F920FB60F9211240BB60F922F933F93CE
:1020E0004F935F936F937F938F939F93AF93BF9320
:1020F000EF93FF938091830490918404892B29F0BE
:10210000E0918304F09184041995FF91EF91BF91C0
:10211000AF919F918F917F916F915F914F913F917F
:102120002F910F900BBE0F900FBE0F901F90189520
:102130001F920F920FB60F9211240BB60F922F938E
:102140003F934F935F936F937F938F939F93AF933F
:10215000BF93EF93FF938091850490918604892B20
:1021600029F0E0918504F09186041995FF91EF9193
:10217000BF91AF919F918F917F916F915F914F919F
:102180003F912F910F900BBE0F900FBE0F901F909D
:1021900018951F920F920FB60F9211240BB60F9243
:1021A0002F933F934F935F936F937F938F939F935F
:1021B000AF93BF93EF93FF9380917B0490917C0446
:1021C000892B29F0E0917B04F0917C041995FF9113
:1021D000EF91BF91AF919F918F917F916F915F919F
:1021E0004F913F912F910F900BBE0F900FBE0F900C
:1021F0001F9018951F920F920FB60F9211240BB6D5
:102200000F922F933F934F935F936F937F938F938F
:102210009F93AF93BF93EF93FF9380917D04909131
:102220007E04892B29F0E0917D04F0917E041995BC
:10223000FF91EF91BF91AF919F918F917F916F919E
:102240005F914F913F912F910F900BBE0F900FBE5A
:102250000F901F9018951F920F920FB60F92112496
:102260000BB60F922F933F934F935F936F937F9390
:102270008F939F93AF93BF93EF93FF9380918704C6
:1022800090918804892B29F0E0918704F0918804CB
:102290001995FF91EF91BF91AF919F918F917F9190
:1022A0006F915F914F913F912F910F900BBE0F90C7
:1022B0000FBE0F901F9018951F920F920FB60F929E
:1022C00011240BB60F922F933F934F935F936F930D
:1022D0007F938F939F93AF93BF93EF93FF938091DF
:1022E000890490918A04892B29F0E0918904F09166
:1022F0008A041995FF91EF91BF91AF919F918F91B2
:102300007F916F915F914F913F912F910F900BBEF5
:102310000F900FBE0F901F901895FC0124853585F6
:10232000F901E05CFF4F80819181329620813181FB
:10233000821B930B8F7399270895DC011C96ED91F6
:10234000FC911D97DF01A05CBF4F2D913C9111972F
:1023500012968D919C9111972817390739F08D911C
:102360009C91E80FF91F808190E008958FEF9FEF17
:102370000895FC01A485B585FD01E05CFF4F208137
:1023800031813296808191812817390779F08081D7
:102390009181A80FB91F8C91208131812F5F3F4F10
:1023A0002F7333273183208390E008958FEF9FEFC1
:1023B0000895FC0181A1882329F0A489B5898C9115
:1023C00086FFFBCF11A208950F931F93CF93DF9346
:1023D000FC01A685B7858D01005C1F4FE80188814F
:1023E000998101968F739927AD014E5B5F4FEA018A
:1023F0002881398182179307D1F3E8012881398137
:10240000A20FB31F6C93A685B785A05CBF4F119632
:102410009C938E93A689B7892C9181E090E0078CDC
:1024200002C0880F991F0A94E2F7822B8C9381E0F7
:1024300081A30488F589E02D80818064808381E018
:1024400090E0DF91CF911F910F910895FB01E05C27
:10245000FF4F208131812F5F3F4F2F733327DB01E7
:10246000AE5BBF4F4D915C912417350741F0408121
:102470005181DB01A40FB51F8C9331832083089514
:1024800008951F920F920FB60F9211240BB60F9260
:102490002F933F934F935F936F937F938F939F936C
:1024A000AF93BF93EF93FF938091C00082FD07C06D
:1024B0008091C6006FEE76E00E94261202C08091E5
:1024C000C600FF91EF91BF91AF919F918F917F9146
:1024D0006F915F914F913F912F910F900BBE0F9095
:1024E0000FBE0F901F90189508951F920F920FB670
:1024F0000F9211240BB60F922F933F934F935F933C
:102500006F937F938F939F93AF93BF93EF93FF93BB
:102510008091C80082FD07C08091CE0067E676E01A
:102520000E94261202C08091CE00FF91EF91BF91D0
:10253000AF919F918F917F916F915F914F913F915B
:102540002F910F900BBE0F900FBE0F901F901895FC
:1025500008951F920F920FB60F9211240BB60F928F
:102560002F933F934F935F936F937F938F939F939B
:10257000AF93BF93EF93FF938091D00082FD07C08C
:102580008091D6006FED75E00E94261202C0809106
:10259000D600FF91EF91BF91AF919F918F917F9165
:1025A0006F915F914F913F912F910F900BBE0F90C4
:1025B0000FBE0F901F90189508951F920F920FB69F
:1025C0000F9211240BB60F922F933F934F935F936B
:1025D0006F937F938F939F93AF93BF93EF93FF93EB
:1025E0008091300182FD07C08091360167E575E07A
:1025F0000E94261202C080913601FF91EF91BF9197
:10260000AF919F918F917F916F915F914F913F918A
:102610002F910F900BBE0F900FBE0F901F9018952B
:1026200081EF94E00E948D11892B11F00E944012DD
:102630008FEC94E00E948D11892B11F00E9474128E
:102640008DEA94E00E948D11892B11F00E94A8124E
:102650008BE894E00E948D11892B11F00C94DC1210
:1026600008951F920F920FB60F9211240BB60F927E
:102670002F933F938F939F93EF93FF932091EB06BC
:102680003091EC068091ED069091EE0628173907FF
:1026900031F48091C1008F7D8093C10014C0E0911E
:1026A000ED06F091EE06E555F94F20818091ED069B
:1026B0009091EE0601968F7399279093EE06809382
:1026C000ED062093C600FF91EF919F918F913F916E
:1026D0002F910F900BBE0F900FBE0F901F9018956B
:1026E0001F920F920FB60F9211240BB60F922F93D9
:1026F0003F938F939F93EF93FF93209163063091C5
:10270000640680916506909166062817390731F4B2
:102710008091C9008F7D8093C90014C0E091650647
:10272000F0916606ED5DF94F2081809165069091EC
:10273000660601968F7399279093660680936506C7
:102740002093CE00FF91EF919F918F913F912F9118
:102750000F900BBE0F900FBE0F901F9018951F92F9
:102760000F920FB60F9211240BB60F922F933F9337
:102770008F939F93EF93FF932091DB053091DC05BE
:102780008091DD059091DE052817390731F480919D
:10279000D1008F7D8093D10014C0E091DD05F091D0
:1027A000DE05E556FA4F20818091DD059091DE052A
:1027B00001968F7399279093DE058093DD05209312
:1027C000D600FF91EF919F918F913F912F910F90A4
:1027D0000BBE0F900FBE0F901F9018951F920F9277
:1027E0000FB60F9211240BB60F922F933F938F9336
:1027F0009F93EF93FF93209153053091540580915F
:102800005505909156052817390731F4809131010B
:102810008F7D8093310114C0E0915505F0915605EC
:10282000ED5EFA4F208180915505909156050196F5
:102830008F73992790935605809355052093360101
:10284000FF91EF919F918F913F912F910F900BBE30
:102850000F900FBE0F901F901895CF92DF92EF92BE
:10286000FF920F931F93CF93DF93EC016A017B01DB
:102870004115514E6105710509F1EC89FD8981E031
:1028800090E008A002C0880F991F0A94E2F78083A5
:1028900060E079E08DE390E0A70196010E94E318E3
:1028A00089019A01015011092109310936952795AD
:1028B00017950795980101151041A8F0EC89FD893D
:1028C000108260E874E88EE190E0A70196010E9412
:1028D000E318DA01C9010197A109B109B695A795D5
:1028E000979587959C01E889F9893083EA89FB8966
:1028F000208319A2EE89FF89408181E090E09C014C
:102900000C8C02C0220F331F0A94E2F7242B208381
:10291000EE89FF8940819C010D8C02C0220F331F7C
:102920000A94E2F7242B2083EE89FF8940819C01E1
:102930000E8C02C0220F331F0A94E2F7242B20834F
:10294000EE89FF8920810F8C02C0880F991F0A949D
:10295000E2F7809582238083DF91CF911F910F91C1
:10296000FF90EF90DF90CF900895CF92DF92EF929B
:10297000FF92E1EFF4E01382128288EEC82E83E02A
:10298000D82EE12CF12CC482D582E682F78261E157
:1029900072E0718360838FEE96E0958784878BEA7F
:1029A00096E09787868785EC90E0918B808B84EC0E
:1029B00090E0938B828B80EC90E0958B848B81EC04
:1029C00090E0978B868B82EC90E0918F808F86ECE5
:1029D00090E0938F828F44E0448F33E0358F27E07F
:1029E000268F95E0978F81E080A3EFECF4E01382CF
:1029F0001282C482D582E682F78271836083A7E661
:102A0000B6E0B587A487A3E2B6E0B787A687ADECAA
:102A1000B0E0B18BA08BACECB0E0B38BA28BA8EC98
:102A2000B0E0B58BA48BA9ECB0E0B78BA68BAAEC79
:102A3000B0E0B18FA08FAEECB0E0B38FA28F448F27
:102A4000358F268F978F80A3EDEAF4E013821282F0
:102A5000C482D582E682F78271836083AFEDB5E0F0
:102A6000B587A487ABE9B5E0B787A687A5EDB0E049
:102A7000B18BA08BA4EDB0E0B38BA28BA0EDB0E046
:102A8000B58BA48BA1EDB0E0B78BA68BA2EDB0E027
:102A9000B18FA08FA6EDB0E0B38FA28F448F358F9A
:102AA000268F978F80A3EBE8F4E013821282C48212
:102AB000D582E682F7827183608367E575E075876A
:102AC000648763E175E07787668765E371E0718B02
:102AD000608B64E371E0738B628B60E371E0758BF4
:102AE000648B61E371E0778B668B62E371E0718FD9
:102AF000608F66E371E0738F628F448F358F268F0E
:102B0000978F80A3FF90EF90DF90CF900895CF92A2
:102B1000DF92EF92FF920F931F93CF93DF936C019D
:102B2000EB017B01E40EF51E00E010E0CE15DF05A1
:102B300061F06991D601ED91FC910190F081E02D59
:102B4000C6011995080F191FF1CFC801DF91CF9168
:102B50001F910F91FF90EF90DF90CF900895611536
:102B6000710579F0FB0101900020E9F73197AF0181
:102B7000461B570BDC01ED91FC910280F381E02DA7
:102B8000199480E090E008950C94AF15DC01ED916C
:102B9000FC910190F081E02D19940F931F93CF9336
:102BA000DF93EC016DE00E94C6158C016AE0CE0156
:102BB0000E94C615800F911FDF91CF911F910F9139
:102BC00008958F929F92AF92BF92CF92DF92EF9231
:102BD000FF920F931F93CF93DF93CDB7DEB7A197EB
:102BE0000FB6F894DEBF0FBECDBF6C01142FE52FDA
:102BF000CB01022F19A2223008F40AE07E0121E263
:102C0000E20EF11C802E912CA12CB12C612F7E2F75
:102C1000A50194010E94E318029F1019112481E07C
:102C2000E81AF1081A3014F4105D01C0195CF701BC
:102C30001083122FE32FCA01232B242B252B31F7CE
:102C4000B701C6010E94AF15A1960FB6F894DEBF7A
:102C50000FBECDBFDF91CF911F910F91FF90EF90ED
:102C6000DF90CF90BF90AF909F908F900895CF92BC
:102C7000DF92EF92FF920F931F93CF93DF93EC01BC
:102C80006A017B012115310579F4E881F981019010
:102C9000F081E02D642FDF91CF911F910F91FF9074
:102CA000EF90DF90CF9019942A303105E9F477FF47
:102CB0001AC06DE20E94C6158C0144275527BA013F
:102CC0004C195D096E097F092AE0CE010E94E115C9
:102CD000800F911FDF91CF911F910F91FF90EF9087
:102CE000DF90CF9008952AE0B701A601CE01DF91D1
:102CF000CF911F910F91FF90EF90DF90CF900C94A8
:102D0000E1150F931F93CF93DF93EC019A01AB0171
:102D1000770F660B770B0E9437168C01CE010E944D
:102D2000CD15800F911FDF91CF911F910F910895C5
:102D30000E94B20D0E946F04C0E1D3E10E94CD0455
:102D40002097E1F30E941013F9CF5058BB27AA2710
:102D50000E94BD160C9437180E94291838F00E9462
:102D6000301820F039F49F3F19F426F40C942618FB
:102D70000EF4E095E7FB0C942018E92F0E94481808
:102D800058F3BA17620773078407950720F079F4A0
:102D9000A6F50C946A180EF4E0950B2EBA2FA02D10
:102DA0000B01B90190010C01CA01A0011124FF27F8
:102DB000591B99F0593F50F4503E68F11A16F040F3
:102DC000A22F232F342F4427585FF3CF46953795F2
:102DD0002795A795F0405395C9F77EF41F16BA0BB7
:102DE000620B730B840BBAF09150A1F0FF0FBB1F65
:102DF000661F771F881FC2F70EC0BA0F621F731FAE
:102E0000841F48F4879577956795B795F7959E3F0A
:102E100008F0B0CF9395880F08F09927EE0F97959B
:102E2000879508950E94FC1708F481E008950E9498
:102E30002B170C9437180E94301858F00E9429184C
:102E400040F029F45F3F29F00C94201851110C94A4
:102E50006B180C9426180E94481868F39923B1F354
:102E6000552391F3951B550BBB27AA2762177307B0
:102E7000840738F09F5F5F4F220F331F441FAA1F44
:102E8000A9F335D00E2E3AF0E0E832D09150504000
:102E9000E695001CCAF72BD0FE2F29D0660F771FAE
:102EA000881FBB1F261737074807AB07B0E809F094
:102EB000BB0B802DBF01FF2793585F4F3AF09E3F19
:102EC000510578F00C9420180C946B185F3FE4F3D4
:102ED000983ED4F3869577956795B795F7959F5F5C
:102EE000C9F7880F911D9695879597F90895E1E0A8
:102EF000660F771F881FBB1F621773078407BA0707
:102F000020F0621B730B840BBA0BEE1F88F7E09561
:102F100008950E9490176894B1110C946B1808954D
:102F20000E94501888F09F5798F0B92F9927B751F1
:102F3000B0F0E1F0660F771F881F991F1AF0BA955D
:102F4000C9F714C0B13091F00E946A18B1E0089539
:102F50000C946A18672F782F8827B85F39F0B93F2B
:102F6000CCF3869577956795B395D9F73EF4909510
:102F70008095709561957F4F8F4F9F4F0895E8948E
:102F800009C097FB3EF490958095709561957F4FB1
:102F90008F4F9F4F9923A9F0F92F96E9BB2793955F
:102FA000F695879577956795B795F111F8CFFAF46F
:102FB000BB0F11F460FF1BC06F5F7F4F8F4F9F4FA0
:102FC00016C0882311F096E911C0772321F09EE8FE
:102FD000872F762F05C0662371F096E8862F70E064
:102FE00060E02AF09A95660F771F881FDAF7880F3E
:102FF0009695879597F90895990F0008550FAA0B94
:10300000E0E8FEEF16161706E807F907C0F01216FB
:103010001306E407F50798F0621B730B840B950BFE
:1030200039F40A2661F0232B242B252B21F4089553
:103030000A2609F4A140A6958FEF811D811D0895F0
:1030400097F99F6780E870E060E008959FEF80EC5B
:10305000089500240A9416161706180609060895FE
:1030600000240A9412161306140605060895092E64
:103070000394000C11F4882352F0BB0F40F4BF2BD3
:1030800011F460FF04C06F5F7F4F8F4F9F4F089513
:1030900057FD9058440F551F59F05F3F71F0479509
:1030A000880F97FB991F61F09F3F79F087950895EE
:1030B000121613061406551FF2CF4695F1DF08C00D
:1030C000161617061806991FF1CF8695710561052A
:1030D00008940895E894BB2766277727CB0197F9D2
:1030E00008950E94FC1708F48FEF08950E94891834
:1030F0000C9437180E94291838F00E94301820F0DC
:10310000952311F00C9420180C94261811240C947B
:103110006B180E94481870F3959FC1F3950F50E00B
:10312000551F629FF001729FBB27F00DB11D639F79
:10313000AA27F00DB11DAA1F649F6627B00DA11D1F
:10314000661F829F2227B00DA11D621F739FB00DC5
:10315000A11D621F839FA00D611D221F749F332735
:10316000A00D611D231F849F600D211D822F762FCE
:103170006A2F11249F5750409AF0F1F088234AF0AB
:10318000EE0FFF1FBB1F661F771F881F9150504017
:10319000A9F79E3F510580F00C9420180C946B18F1
:1031A0005F3FE4F3983ED4F3869577956795B7959E
:1031B000F795E7959F5FC1F7FE2B880F911D9695B8
:1031C000879597F90895A1E21A2EAA1BBB1BFD0152
:1031D0000DC0AA1FBB1FEE1FFF1FA217B307E407F6
:1031E000F50720F0A21BB30BE40BF50B661F771F4E
:1031F000881F991F1A9469F760957095809590952E
:103200009B01AC01BD01CF010895EE0FFF1F881F88
:103210008BBF0790F691E02D19940E941819A59F75
:10322000900DB49F900DA49F800D911D11240895C1
:10323000A29FB001B39FC001A39F700D811D1124F7
:10324000911DB29F700D811D1124911D0895F89458
:02325000FFCFAE
:10325200555000444F574E0053544F500000000049
:0E32620000E41187158D11B9119D11D91100CD
:00000001FF
