:100000000C9499010C9413110C9444110C947511D7
:100010000C94A6110C94D7110C9408120C9439125C
:100020000C946A120C94CA010C94CA010C94CA0173
:100030000C94CA010C94CA010C94CA010C94CA0114
:100040000C94CA010C94CA010C94CA010C94CA0104
:100050000C94CA010C94CA010C94CA010C94ED0DC5
:100060000C94CA010C944F130C943F140C94CA01C5
:100070000C94CA010C94CA010C94CA010C94CA01D4
:100080000C94CA010C94CA010C94CA010C94CA01C4
:100090000C9483130C947E140C94CA010C94CA0122
:1000A0000C94CA010C94CA010C94CA010C94CA01A4
:1000B0000C94CA010C94CA010C94CA010C94CA0194
:1000C0000C94CA010C94CA010C94CA010C94B71385
:1000D0000C94BD140C94CA010C94EB130C94FC14F6
:1000E0000C94CA01110F140F070F0B0F4B0F180FB1
:1000F0001C0F220F260F2A0F300F340F380F4B0F13
:100100003E0F420F460F09100E1013101D109610CF
:1001100027102F10371041104B10551064106E101F
:100120009610781082108C10ED10B710BF10CB1005
:10013000D810F91006110C9426020C9455100C944A
:100140004B0F0C949B120C942F100C9437100C94A2
:10015000340F0C9413100C941A020C9409100C9484
:100160003E0F0C94F9100C94110F0C94140F0C9476
:10017000AB120C940E020C944B100C94F2120C94D3
:1001800095160C9482100C9406110C946E100C941D
:10019000BF100C94300F0C94180F0C94B7100C94E3
:1001A0000E100C9420020C9427100C94460F0C9403
:1001B000420F0C94CB100C948C100C94D8100C940F
:1001C0001C0F0C941D100C94C7120C94DD040C949D
:1001D00078100C942A0F0C942C020C9496100C940A
:1001E00041100C9464100C94C3150C94220F0C94C1
:1001F0001E140C94E7120C94260F0C9414020C9409
:100200000B0F0C94380F0C94ED100C94070F00009A
:10021000090A02080B0C0D07060304010000000088
:1002200000000000000000000000000000000000CE
:100230000000000000000000000011100F0000008E
:1002400000000000000000000000000000000000AE
:10025000000000000102102020080810204010209B
:10026000408002010201080402010102040810207A
:100270004080804020100804020180040201804078
:1002800020100804020108040201010204081020E1
:10029000408001020408102040800505050507057F
:1002A00008080808020202020A0A080804040404F2
:1002B000010101010101010103030303030303031E
:1002C000040707070C0C0C0C0C0C0C0C02020202AD
:1002D00006060606060606060B0B0B0B0B0B0B0B96
:1002E000000020002300260029002C002F003200EF
:1002F00000010000030106010901000022002500A1
:1003000028002B002E0031003400020100000501FE
:1003100008010B0100002100240027002A002D0005
:100320003000330001010000040107010A01DD046F
:10033000C31511241FBECFEFD1E2DEBFCDBF00E059
:100340000CBF12E0A0E0B2E0EEE6F4E300E00BBF89
:1003500002C007900D92A432B107D9F726E0A4E2BB
:10036000B2E001C01D92A93DB207E1F711E0C9E971
:10037000D1E000E006C021970109802FFE010E9414
:10038000131AC739D10780E00807A9F70E94A617FA
:100390000C94351A0C940000DC01ED91FD918081E4
:1003A000ED91FD919081ED91FD916C9163708E23A3
:1003B00009F064609F2309F06860E9EEF1E0E60F60
:1003C000F11D659565956D936D917D918D919D91D3
:1003D000099423C01AC012C016C010C01EC009C0A4
:1003E00014C013C006C019C009C00DC007C00DC09D
:1003F00014C062507040804090400BC0615070400B
:100400008040904006C06E5F01C06F5F7F4F8F4F8E
:100410009F4F9E938E937E936E93089580911604C2
:10042000909117040C94CC018091140490911504C0
:100430000C94CC0180911204909113040C94CC0183
:1004400080911004909111040C94CC0180910E04C1
:1004500090910F040C94CC0180910C0490910D04A8
:100460000C94CC01823109F440C078F48230E1F080
:10047000833009F044C070930F0460930E0441E090
:1004800050E066E272E081E02CC08431B9F000F106
:100490008531A9F5709311046093100441E050E098
:1004A00060E272E082E01DC070930D0460930C0462
:1004B00041E050E06CE272E080E013C070931304FE
:1004C0006093120441E050E06AE172E083E009C009
:1004D000709315046093140441E050E064E172E00D
:1004E00084E00E949F1081E0089570931704609348
:1004F000160441E050E06EE072E085E0F2CF80E06B
:1005000008953F924F925F926F927F928F929F9247
:10051000AF92BF92CF92DF92EF92FF920F931F9311
:10052000CF93DF93EC01562E442E322E62E0802FC3
:100530000E944C0F62E08E2D0E944C0F802F90E0A5
:10054000FC01E656FD4FE491F0E0EE0FFF1FE05294
:10055000FD4F2591349139832883FC01EC5AFD4FDE
:10056000E491EC832E2D30E0F901E656FD4FE49145
:10057000F0E0EE0FFF1FE052FD4F859194919B83B9
:100580008A83F901EC5AFD4FE491ED831F821886AE
:1005900019861A8680ED97E00E948E0EE881F98117
:1005A00090818C81982381E009F480E0EA81FB81CD
:1005B00020819D81922309F082608E83BE01802F6D
:1005C0000E9432028B87BE018E2D0E9432022B8543
:1005D00090E0820F911D8B874E018CE0880E911C5C
:1005E0003E0198E4690E711CAE014C5A5F4FBE018A
:1005F000605B7F4F1F921F928EE38F9389E18F93F1
:1006000089E98F938AE98F938DECA82E8CECB82E14
:100610008CE4C82E8DE3D82E1AE9E12E19E9F12ECB
:1006200009E91EE39301C4010E94BB0D5E01ECE4E5
:10063000AE0EB11C8FEFF50180836E01FDE4CF0E8D
:10064000D11CF60180837E01FEE4EF0EF11CF70160
:100650008083C45ADF4F188219821A821B82F301E9
:10066000108211821282138261E070E0C4010E9444
:10067000F90C00E010E02FE733E440E050E06FE7D2
:1006800073ECC4010E94330CF5015082F6014082E4
:10069000F701308261E0852D0E944C0F61E0F60188
:1006A00080810E944C0F0F900F900F900F900F9031
:1006B0000F9061E0F7018081DF91CF911F910F9141
:1006C000FF90EF90DF90CF90BF90AF909F908F9072
:1006D0007F906F905F904F903F900C944C0FCF9312
:1006E000DF93EC01613051F4FC01E35BFF4F60E00C
:1006F00080810E94880FC25BDF4F0BC0623059F4CB
:10070000FC01E25BFF4F60E080810E94880FC35BC9
:10071000DF4F61E00CC0633079F4FC01E35BFF4F15
:1007200060E080810E94880FC25BDF4F60E08881BB
:10073000DF91CF910C94880FDF91CF91089570E0F5
:10074000FC01E45BFF4F80810C94E00F8F929F923D
:10075000AF92BF92CF92DF92EF92FF92CF93DF934F
:100760004A015B01EC01C45ADF4F88819981AA815B
:10077000BB819A01AB01281B390B4A0B5B0BA8E527
:10078000B2E00E941B1A0E94CF1820E030E040EF38
:1007900054E40E9425186B017C0188829982AA8208
:1007A000BB8220E030E0A9010E947F19181624F0D6
:1007B000C701B601905802C0C701B601DF91CF91C1
:1007C000FF90EF90DF90CF90BF90AF909F908F9071
:1007D00008950F931F93CF93DF93EC018B858230A5
:1007E00028F4F894CE010E94CC0101C0F8943F8116
:1007F000288599858A857894FE01E85AFF4F3083D1
:10080000218392838383432F522F692F782F77FF81
:1008100007C070956095509541955F4F6F4F7F4F22
:10082000CE010E94A603FE01E05BFF4F608371834F
:1008300082839383CE010C960E94EC098E01015BAA
:100840001F4FF801608170E080E090E00E94CF18B7
:10085000FE01EC5AFF4F20813181428153810E9479
:10086000B4170E94971877FD07C06F3F710529F0F4
:1008700024F06FEF70E001C060E0F801608320E0D9
:1008800030E0A901FE01E85BFF4F60817181828148
:1008900093810E942018811102C0F8011082F80192
:1008A0006081CE01DF91CF911F910F910C949F0336
:1008B000CF93DF93EC018B85823028F4F894CE013E
:1008C0000E94CC0101C0F8946F81788589859A8552
:1008D0007894C85ADF4F688379838A839B83DF913A
:1008E000CF910895CF92DF92EF92FF920F931F93D3
:1008F0000C960E941D0C1F910F91FF90EF90DF90BE
:10090000CF900895CF92DF92EF92FF920F931F93B3
:10091000CF93DF9340E855E260E070E087E994E030
:100920000E943B1583E00E94B80F8FE8C82E82EC2E
:10093000D82E85EFE82E8CE3F82E0AE017ED23E29F
:100940003CE34FE852EC65E77DE38CE292E00E94E5
:10095000720486E30E94BB0F1092260210922702B7
:1009600063E08CE292E00E946F0310927402109296
:1009700075021092760210927702CCE8D2E063E022
:10098000CE010E946F03C05ADF4F84E0CC30D807FD
:10099000B1F7C0E0D2E08881229661E00E944C0F5E
:1009A00082E0C630D807B9F7DF91CF911F910F9140
:1009B000FF90EF90DF90CF900895EF920F9384E334
:1009C000E82E04E12AE14BE16AE08CE892E00E9423
:1009D000810295E3E92E05E12CE14DE16BE08CEE1F
:1009E00092E00E94810223E3E22E03E126E147E147
:1009F00068E08CE493E00E94810232E3E32E02E19E
:100A000028E149E169E08CEA93E00E94810243E039
:100A1000E42E02E029E248E265E08CE292E00E94E6
:100A200081020F91EF900895CF92DF92EF92FF92A3
:100A30000F931F93CF93DF9387E994E00E949B125B
:100A400018161906C4F487E994E00E94C71280932F
:100A500026026AE070E080E090E00E94680E87E97C
:100A600094E00E94C712809327026AE070E080E061
:100A700090E00E94680E8091260290E0609127022B
:100A80000097A1F4CCE8D2E063E0CE010E946F03AE
:100A9000FE01E85BFF4F1082118212821382C05A5E
:100AA000DF4F84E0CC30D80779F752C4C62ED12C62
:100AB00081309105E9F4CCE8D2E00D2C000CEE0871
:100AC000FF0861E0CE010E946F038E01085B1F4F9B
:100AD000C701B6010E94CF18F80160837183828339
:100AE0009383C05ADF4FF4E0CC30DF0751F730C4B6
:100AF00082309105E9F4CCE8D2E00D2C000CEE0830
:100B0000FF0862E0CE010E946F038E01085B1F4F59
:100B1000C701B6010E94CF18F801608371838283F8
:100B20009383C05ADF4FF4E0CC30DF0751F710C495
:100B30008330910589F462E08CE892E00E946F03B3
:100B400061E08CEE92E00E946F0362E08CE493E03F
:100B50000E946F0361E013C084309105D9F561E014
:100B60008CE892E00E946F0362E08CEE92E00E94BB
:100B70006F0361E08CE493E00E946F0362E08CEA13
:100B800093E00E946F03B601DD0C880B990B0E9465
:100B9000CF1860933403709335038093360390939A
:100BA00037036093F4037093F5038093F6039093F7
:100BB000F7036093D4027093D5028093D60290938A
:100BC000D702609394037093950380939603909358
:100BD0009703BEC38530910589F462E08CE892E00A
:100BE0000E946F0361E08CEE92E00E946F0361E06F
:100BF0008CE493E00E946F0362E013C0863091059D
:100C0000D9F561E08CE892E00E946F0362E08CEE1F
:100C100092E00E946F0362E08CE493E00E946F0315
:100C200061E08CEA93E00E946F03B601DD0C880B53
:100C3000990B0E94CF186093D4027093D5028093D1
:100C4000D6029093D7026093340370933503809358
:100C500036039093370360939403709395038093C6
:100C60009603909397036093F4037093F503809336
:100C7000F6039093F7036CC38730910569F51092E2
:100C8000D4021092D5021092D6021092D702B60169
:100C9000DD0C880B990B0E94CF186093340370937E
:100CA0003503809336039093370310929403109288
:100CB000950310929603109297036093F403709338
:100CC000F5038093F6039093F70363E08CE892E0DA
:100CD0000E946F0361E0FEC08830910569F5B6019E
:100CE000DD0C880B990B0E94CF186093D40270938F
:100CF000D5028093D6029093D702109234031092BB
:100D00003503109236031092370360939403709367
:100D1000950380939603909397031092F403109297
:100D2000F5031092F6031092F70361E08CE892E06D
:100D30000E946F0363E099C089309105B9F5B6014F
:100D4000DD0C880B990B0E94CF186093D40270932E
:100D5000D5028093D6029093D7021092340310925A
:100D60003503109236031092370360939403709307
:100D7000950380939603909397031092F403109237
:100D8000F5031092F6031092F70362E08CE892E00C
:100D90000E946F0363E08CEE92E00E946F0362E0BA
:100DA0008CE493E00E946F0363E0D7C18A30910521
:100DB00069F51092D4021092D5021092D6021092C8
:100DC000D702B601DD0C880B990B0E94CF186093F7
:100DD0003403709335038093360390933703109256
:100DE00094031092950310929603109297036093C8
:100DF000F4037093F5038093F6039093F70363E095
:100E00008CE892E00E946F0362E0C9C08B309105CC
:100E100091F51092D4021092D5021092D60210923F
:100E2000D702B601DD0C880B990B0E94CF18609396
:100E300034037093350380933603909337036093A4
:100E40009403709395038093960390939703109265
:100E5000F4031092F5031092F6031092F70363E087
:100E60008CE892E00E946F0361E08CEE92E00E94B9
:100E70006F0361E095CF8C30910591F5B601DD0CE3
:100E8000880B990B0E94CF186093D4027093D502FF
:100E90008093D6029093D7021092340310923503B8
:100EA0001092360310923703109294031092950318
:100EB00010929603109297036093F4037093F503D6
:100EC0008093F6039093F70361E08CE892E00E9430
:100ED0006F0363E08CEE92E00E946F0363E038C121
:100EE0008D30910569F51092D4021092D5021092BE
:100EF000D6021092D702B601DD0C880B990B0E9426
:100F0000CF18609334037093350380933603909326
:100F100037036093940370939503809396039093A3
:100F200097031092F4031092F5031092F6031092B7
:100F3000F70363E08CE892E00E946F0362E02BCF3E
:100F40008E30910591F5B601DD0C880B990B0E944E
:100F5000CF186093D4027093D5028093D6029093F9
:100F6000D702109234031092350310923603109278
:100F700037031092940310929503109296031092E7
:100F800097036093F4037093F5038093F6039093B3
:100F9000F70362E08CE892E00E946F0363E08CEE5E
:100FA00092E00E946F0363E099C08F30910569F56C
:100FB000B601DD0C880B990B0E94CF186093D40208
:100FC0007093D5028093D6029093D7026093340336
:100FD00070933503809336039093370310929403F4
:100FE0001092950310929603109297031092F403B7
:100FF0001092F5031092F6031092F70362E08CE86A
:1010000092E00E946F0361E02FC08031910591F55D
:10101000B601DD0C880B990B0E94CF186093D402A7
:101020007093D5028093D6029093D70260933403D5
:101030007093350380933603909337031092940393
:101040001092950310929603109297031092F40356
:101050001092F5031092F6031092F70361E08CE80A
:1010600092E00E946F0362E08CEE92E00E946F03B8
:1010700063E096CE81319105B9F51092D4021092B9
:10108000D5021092D6021092D70210923403109219
:1010900035031092360310923703B601DD0C880B2E
:1010A000990B0E94CF1860939403709395038093DB
:1010B0009603909397036093F4037093F5038093E2
:1010C000F6039093F70363E08CE892E00E946F03CD
:1010D00063E08CEE92E00E946F0361E08CE493E0A9
:1010E0000E946F0362E039C082319105C9F5109208
:1010F000D4021092D5021092D6021092D70210920A
:101100003403109235031092360310923703B60160
:10111000DD0C880B990B0E94CF1860939403709399
:10112000950380939603909397036093F4037093D1
:10113000F5038093F6039093F70363E08CE892E065
:101140000E946F0363E08CEE92E00E946F0362E006
:101150008CE493E00E946F0361E08CEA93E0AFC0FF
:101160008331910549F5B601DD0C880B990B0E947E
:10117000CF186B017C019B01AC016091340370912D
:10118000350380913603909137030E94B417609322
:101190003403709335038093360390933703A7018C
:1011A00096016091F4037091F5038091F60390919C
:1011B000F7030E94B41757CD8431910579F4B60135
:1011C000DD0C880B990B0E94CF1860933403709349
:1011D0003503809336039093370345CD85319105D0
:1011E00001F58CE292E00E9458046B017C0168E2F8
:1011F0008CE292E00E949F0361E08CE292E00E9408
:101200006F038FE7C81A85E2D80AE108F1088CE27B
:1012100092E00E9458046C157D058E059F05BCF771
:101220004BC08631910509F04DC08CE292E00E94DE
:1012300058046B017C0180E090E0A0EFB1E4809362
:10124000740290937502A0937602B093770262E0E5
:101250008CE292E00E946F03EFE7CE0EE5E2DE1E25
:10126000E11CF11C8CE292E00E945804C616D706DD
:10127000E806F9065CF08CE292E00E94E90364E67D
:1012800070E080E090E00E94680EECCF67E072E0D2
:1012900087E994E00E94D2164AE050E060E070E0F6
:1012A00087E994E00E948F171092740210927502E1
:1012B000109276021092770263E08CE292E00E9434
:1012C0006F0346C08731910569F460E080910402A4
:1012D0000E94880F61E0809102020E94880F6CEDED
:1012E00070E01EC08831910569F460E080910202CF
:1012F0000E94880F61E0809104020E94880F6FEFC6
:1013000070E00EC0499789F460E0809102020E946B
:10131000880F60E0809104020E94880F60E070E016
:10132000809100020E94E00F13C0CCE8D2E063E09D
:10133000CE010E946F03FE01E85BFF4F1082118215
:1013400012821382C05ADF4FF4E0CC30DF0779F706
:101350000E94370EC0902802D0902902E0902A0205
:10136000F0902B02DC01CB018C199D09AE09BF095D
:1013700084369105A105B10518F10E94370E6093DE
:1013800028027093290280932A0290932B028CE802
:1013900092E00E94E9038CEE92E00E94E9038CE463
:1013A00093E00E94E9038CEA93E00E94E9038091B4
:1013B00024029091250201969093250280932402A5
:1013C00087E994E0DF91CF911F910F91FF90EF900B
:1013D000DF90CF900C94E7122F923F924F925F9242
:1013E0006F927F928F929F92AF92BF92CF92DF9235
:1013F000EF92FF920F931F93CF93DF93CDB7DEB79A
:1014000060970FB6F894DEBF0FBECDBFDC01DA9651
:10141000BC91B983B11102C0198227C1988B8F8703
:101420000E94370E6E837F8388879987EF85F889BE
:1014300082A193A1A4A1B5A14E815F816885798520
:10144000481B590B6A0B7B0B86A597A5A0A9B1A9D0
:10145000481759076A077B07F8F2248D358DD901A3
:101460008D919D910D90BC91A02D8A839B83AC831F
:10147000BD8300A0F1A1E02D9C01AD0160817181CF
:10148000828193810E94B3174B015C01EF85F8893B
:1014900022A533A544A555A56A817B818C819D81B8
:1014A0000E94B3176B017C01AF85B88950962D91CE
:1014B0003D914D915C915397C501B4010E948419EF
:1014C000EF85F88926A137A140A551A50E94B41740
:1014D0002B013C01AF85B88996966D937D938D93D2
:1014E0009C939997DB96BC91BA87B11118C0EF8590
:1014F000F8892485358546855785C701B6010E9440
:1015000084199B01AC01C301B2010E94B317AF85DE
:10151000B88996966D937D938D939C939997EF855B
:10152000F88946A057A060A471A416A907A930ACF9
:1015300021AC212F302F432D522DC301B2010E9427
:101540007F1918162CF4812F902FA32DB22D18C0BF
:10155000AF85B889D2968D919D910D90BC91A02DAB
:101560008B879C87AD87BE879C01AD01C301B2010B
:101570000E94201887FF0AC08B859C85AD85BE859B
:10158000EF85F88986A397A3A0A7B1A7FA85FF23C3
:1015900079F0AF85B8891C962D913D914D915C9164
:1015A0001F97C501B4010E9484194B015C0103C05F
:1015B000812C912C5401EF85F8892489358946893D
:1015C0005789C701B6010E9484199B01AC01AF8500
:1015D000B88996966D917D918D919C9199970E9475
:1015E000B3179B01AC01C501B4010E94B4176B0194
:1015F0007C01212F302F432D522D0E947F19181668
:10160000A4F0EF85F88912A903A934A825A8212FF1
:10161000302F432D522DB601C7010E94201887FD9F
:1016200004C01C2D0D2D3E2C2F2CAF85B8895E9645
:10163000ED91FC915F97812F902FA32DB22D808388
:101640009183A283B3838A819B81AC81BD81EF8525
:10165000F88982A793A7A4A7B5A78E819F81A885A3
:10166000B98582A393A3A4A3B5A3898160960FB67D
:10167000F894DEBF0FBECDBFDF91CF911F910F91C8
:10168000FF90EF90DF90CF90BF90AF909F908F90A2
:101690007F906F905F904F903F902F9008952F9282
:1016A0003F924F925F926F927F928F929F92AF92F2
:1016B000BF92CF92DF92EF92FF920F931F93CF933F
:1016C000DF9300D01F92CDB7DEB71C0149835A8348
:1016D0006B837C832801390120E030E0A901698116
:1016E0007A818B819C810E94201887FD8FC020E029
:1016F00030E0A901C301B2010E94201887FD86C015
:1017000020E030E0A901C701B6010E94201887FD42
:101710007DC0D1015B96BC92AE925A9781E0AA94AB
:10172000AB2809F080E0F10183AF89819A81AB8118
:10173000BC8180839183A283B38344825582668275
:101740007782C086D186E286F38666A577A580A9D2
:1017500091A90E94CD1820E030E04AE754E40E94AD
:1017600025184B015C0189819A81AB81BC81F10113
:1017700084879587A687B787A5019401C301B20125
:101780000E9484192B013C01D10150966D937D93E9
:101790008D939C935397A5019401C701B6010E94B4
:1017A00025186B017C01F101648B758B868B978BFF
:1017B000808D918D019751F529813A814B815C8112
:1017C00060E070E0CB010E94B317D1011C966D93CD
:1017D0007D938D939C931F97A301920160E070E02D
:1017E000CB010E94B317F101608B718B828B938BBD
:1017F000A701960160E070E0CB010E94B317D10110
:1018000054966D937D938D939C9357970F900F9063
:101810000F900F90DF91CF911F910F91FF90EF905C
:10182000DF90CF90BF90AF909F908F907F906F9000
:101830005F904F903F902F900895AF92BF92CF92BC
:10184000DF92EF92FF920F931F93FC01A28CB38C57
:101850000E944F0B1F910F91FF90EF90DF90CF9060
:10186000BF90AF9008952F923F924F925F926F92E8
:101870007F928F929F92AF92BF92CF92DF92EF9220
:10188000FF920F931F93CF93DF93EC016A017B01CB
:1018900048015901A9019801C701B6010E947F19A9
:1018A00087FF4EC0CAAADBAAECAAFDAA8EAA9FAAED
:1018B000A8AEB9AE8AAD882309F442C02E8C3F8C05
:1018C000F1014080518062807380A5019401C301C1
:1018D000B2010E947F19181634F4F10180829182BE
:1018E000A282B3820DC0A7019601C301B2010E947A
:1018F000201887FF05C0F101C082D182E282F38205
:101900008EA09FA0A8A4B9A4CEA8DFA8E8ACF9AC8B
:10191000A7019601C501B4010E947F19181664F051
:10192000CAA8DBA8ECA8FDA8A7019601C501B401CF
:101930000E94201887FF04C0CEA2DFA2E8A6F9A665
:10194000DF91CF911F910F91FF90EF90DF90CF909B
:10195000BF90AF909F908F907F906F905F904F90CF
:101960003F902F9008958F929F92AF92BF92CF9207
:10197000DF92EF92FF92CF93DF93EC01EE8DFF8D1C
:10198000C080D180E280F380CEA2DFA2E8A6F9A6D3
:10199000EC8DFD8D80819181A281B3818AA79BA767
:1019A000ACA7BDA78EA89FA8A8ACB9ACA50194010F
:1019B000C701B6010E947F19181664F08AA89BA877
:1019C000ACA8BDA8A5019401C701B6010E942018CA
:1019D00087FF04C08EA29FA2A8A6B9A6DF91CF91CF
:1019E000FF90EF90DF90CF90BF90AF909F908F903F
:1019F00008951F93CF93DF93EC0111E061307105DF
:101A000011F010E006C08AAD811103C0CE010E9422
:101A1000B30C1AAFDF91CF911F9108950F931F93CD
:101A2000CF93DF93EC018B018AAD882361F1888D20
:101A3000998D6817790739F12C853D854E855F852D
:101A400060E070E0CB010E94B3176C877D878E87C2
:101A50009F87288939894A895B8960E070E0CB01DA
:101A60000E94B317688B798B8A8B9B8B2C893D895D
:101A70004E895F8960E070E0CB010E94B3176C8BE8
:101A80007D8B8E8B9F8B198F088FDF91CF911F914C
:101A90000F9108954F925F926F927F928F929F92D3
:101AA000AF92BF92CF92DF92EF92FF920F931F936C
:101AB000CF93DF9300D01F92CDB7DEB74C01270143
:101AC0003801A982BA82CB82DC82FC01578F468F13
:101AD000758F648F31A320A312AE12AA13AA14AA81
:101AE00015AA80E090E0AFE7B3E486AB97ABA0AF78
:101AF000B1AF84E690E0A0E0B0E086A797A7A0ABE6
:101B0000B1AB6E8D7F8DC4010E940E0DAC8CBD8C6F
:101B1000C88CD98CEA8CFB8C09811A812B813C8181
:101B2000B301A201C4010E944F0B0E94370EF401C1
:101B300006A517A520A931A9DC01CB01801B910BBB
:101B4000A20BB30B82A393A3A4A3B5A30F900F90F2
:101B50000F900F90DF91CF911F910F91FF90EF9019
:101B6000DF90CF90BF90AF909F908F907F906F90BD
:101B70005F904F9008958F929F92AF92BF92CF92B5
:101B8000DF92EF92FF920F931F93CF93DF93CDB726
:101B9000DEB7E889F989AA89BB899C888D888F92EC
:101BA0009F921F92992493949F92BF93AF93FF9318
:101BB000EF930E944A0D0FB6F894DEBF0FBECDBF63
:101BC000DF91CF911F910F91FF90EF90DF90CF9019
:101BD000BF90AF909F908F9008951F920F920FB675
:101BE0000F9211242F933F938F939F93AF93BF93A3
:101BF0008091190490911A04A0911B04B0911C04C7
:101C00003091180423E0230F2D3720F40196A11DF5
:101C1000B11D05C026E8230F0296A11DB11D20931A
:101C200018048093190490931A04A0931B04B09392
:101C30001C0480911D0490911E04A0911F04B0917A
:101C400020040196A11DB11D80931D0490931E04D4
:101C5000A0931F04B0932004BF91AF919F918F91E7
:101C60003F912F910F900FBE0F901F9018952FB797
:101C7000F8946091190470911A0480911B0490915A
:101C80001C042FBF08953FB7F89480911D049091D4
:101C90001E04A0911F04B091200426B5A89B05C086
:101CA0002F3F19F00196A11DB11D3FBFBA2FA92FDB
:101CB000982F8827820F911DA11DB11DBC01CD0158
:101CC00042E0660F771F881F991F4A95D1F7089544
:101CD000CF92DF92EF92FF92CF93DF936B017C0163
:101CE0000E94430EEB01C114D104E104F10479F028
:101CF0000E94430E6C1B7D0B683E7340A0F381E095
:101D0000C81AD108E108F108C851DC4FECCFDF91C7
:101D1000CF91FF90EF90DF90CF900895019739F029
:101D2000880F991F880F991F02970197F1F708955F
:101D3000789484B5826084BD84B5816084BD85B5A6
:101D4000826085BD85B5816085BDEEE6F0E080816D
:101D500081608083E1E8F0E010828081826080838E
:101D6000808181608083E0E8F0E080818160808311
:101D7000E1EBF0E0808184608083E0EBF0E0808143
:101D800081608083E1E9F0E08081826080838081EE
:101D900081608083E0E9F0E0808181608083E1EA16
:101DA000F0E0808182608083808181608083E0EACE
:101DB000F0E0808181608083E1E2F1E080818260F7
:101DC0008083808181608083E0E2F1E080818160B6
:101DD0008083EAE7F0E08081846080838081826094
:101DE000808380818160808380818068808310927D
:101DF000C100089590E0FC013197E131F10508F050
:101E00004AC08827EE58FF4F8F4F0C94131A8091C9
:101E100080008F7703C0809180008F7D8093800049
:101E2000089584B58F7702C084B58F7D84BD0895F1
:101E30008091B0008F7703C08091B0008F7D809338
:101E4000B0000895809190008F7707C08091900036
:101E50008F7D03C080919000877F809390000895CC
:101E60008091A0008F7707C08091A0008F7D03C074
:101E70008091A000877F8093A00008958091200129
:101E80008F7707C0809120018F7D03C08091200152
:101E9000877F809320010895CF93DF9390E0FC012A
:101EA000EC5AFD4F2491FC01E656FD4F84918823A6
:101EB00061F190E0880F991FFC01EC5EFC4FC59129
:101EC000D491FC01E650FD4FA591B491611109C078
:101ED0009FB7F8948881209582238883EC912E23E4
:101EE0000BC0623061F49FB7F8943881822F8095DF
:101EF00083238883EC912E2B2C939FBF06C08FB732
:101F0000F894E8812E2B28838FBFDF91CF9108951D
:101F10001F93CF93DF93282F30E0F901E25FFD4F4D
:101F20008491F901EC5AFD4FD491F901E656FD4F29
:101F3000C491CC23C9F0162F81110E94FA0EEC2F08
:101F4000F0E0EE0FFF1FE650FD4FA591B4918FB763
:101F5000F894111105C09C91ED2FE095E92302C082
:101F6000EC91ED2BEC938FBFDF91CF911F910895F2
:101F7000809306020895863308F0865390917B0083
:101F8000282F2870977F922B90937B008770209149
:101F9000060290E4299F90011124822B80937C00FB
:101FA00080917A00806480937A0080917A0086FD27
:101FB000FCCF809178002091790090E0922B0895D9
:101FC0001F93CF93DF93182FEB0161E00E944C0F1A
:101FD000209711F460E004C0CF3FD10539F461E0EF
:101FE000812FDF91CF911F910C94880FE12FF0E0AA
:101FF000E25FFD4FE4914E2F50E0FA013197E1315D
:10200000F10508F093C08827ED57FF4F8F4F0C94D0
:10201000131A84B5806884BDC7BD8DC084B5806245
:1020200084BDC8BD88C08091800080688093800096
:10203000D0938900C09388007EC080918000806228
:1020400080938000D0938B00C0938A0074C08091ED
:10205000B00080688093B000C093B3006CC08091E2
:10206000B00080628093B000C093B40064C08091DF
:102070009000806880939000D0939900C09398005E
:102080005AC080919000806280939000D0939B0012
:10209000C0939A0050C08091900088608093900017
:1020A000D0939D00C0939C0046C08091A0008068A2
:1020B0008093A0008091A0008F7B8093A000D0939C
:1020C000A900C093A80037C08091A00080628093CF
:1020D000A000D093AB00C093AA002DC08091A000B7
:1020E00088608093A000D093AD00C093AC0023C063
:1020F00080912001806880932001D0932901C093B2
:10210000280119C080912001806280932001D09322
:102110002B01C0932A010FC0809120018860809319
:102120002001D0932D01C0932C0105C0C038D105EA
:102130000CF055CF4FCFDF91CF911F91089588308C
:1021400008F070C0A82FB0E0AA0FBB1FAF5DBB4F57
:1021500011967C936E9390E0FC013197E730F10586
:10216000A0F58827EC56FF4F8F4F0C94131A8091DF
:1021700069008C7F482B40936900E89A089580910C
:102180006900440F551F440F551F837F482B409310
:102190006900E99A08958091690074E0440F551F21
:1021A0007A95E1F78F7C482B40936900EA9A08956D
:1021B0008091690066E0440F551F6A95E1F78F73BF
:1021C000482B40936900EB9A089580916A008C7FB8
:1021D000482B40936A00EC9A089580916A00440F5E
:1021E000551F440F551F837F482B40936A00ED9A7B
:1021F000089580916A0024E0440F551F2A95E1F765
:102200008F7C482B40936A00EE9A089580916A0073
:1022100096E0440F551F9A95E1F78F73482B409332
:102220006A00EF9A08951F920F920FB60F92112431
:102230000BB60F922F933F934F935F936F937F93C0
:102240008F939F93AF93BF93EF93FF938091250458
:1022500090912604892B29F0E0912504F091260421
:102260001995FF91EF91BF91AF919F918F917F91C0
:102270006F915F914F913F912F910F900BBE0F90F7
:102280000FBE0F901F9018951F920F920FB60F92CE
:1022900011240BB60F922F933F934F935F936F933D
:1022A0007F938F939F93AF93BF93EF93FF9380910F
:1022B000270490912804892B29F0E0912704F091BC
:1022C00028041995FF91EF91BF91AF919F918F9144
:1022D0007F916F915F914F913F912F910F900BBE26
:1022E0000F900FBE0F901F9018951F920F920FB670
:1022F0000F9211240BB60F922F933F934F935F933E
:102300006F937F938F939F93AF93BF93EF93FF93BD
:102310008091290490912A04892B29F0E0912904C5
:10232000F0912A041995FF91EF91BF91AF919F9180
:102330008F917F916F915F914F913F912F910F906E
:102340000BBE0F900FBE0F901F9018951F920F920B
:102350000FB60F9211240BB60F922F933F934F930A
:102360005F936F937F938F939F93AF93BF93EF93FD
:10237000FF9380912B0490912C04892B29F0E091FC
:102380002B04F0912C041995FF91EF91BF91AF911F
:102390009F918F917F916F915F914F913F912F917D
:1023A0000F900BBE0F900FBE0F901F9018951F92AD
:1023B0000F920FB60F9211240BB60F922F933F93EB
:1023C0004F935F936F937F938F939F93AF93BF933D
:1023D000EF93FF938091210490912204892B29F09F
:1023E000E0912104F09122041995FF91EF91BF91A2
:1023F000AF919F918F917F916F915F914F913F919D
:102400002F910F900BBE0F900FBE0F901F9018953D
:102410001F920F920FB60F9211240BB60F922F93AB
:102420003F934F935F936F937F938F939F93AF935C
:10243000BF93EF93FF938091230490912404892B01
:1024400029F0E0912304F09124041995FF91EF9174
:10245000BF91AF919F918F917F916F915F914F91BC
:102460003F912F910F900BBE0F900FBE0F901F90BA
:1024700018951F920F920FB60F9211240BB60F9260
:102480002F933F934F935F936F937F938F939F937C
:10249000AF93BF93EF93FF9380912D0490912E04FF
:1024A000892B29F0E0912D04F0912E041995FF91CC
:1024B000EF91BF91AF919F918F917F916F915F91BC
:1024C0004F913F912F910F900BBE0F900FBE0F9029
:1024D0001F9018951F920F920FB60F9211240BB6F2
:1024E0000F922F933F934F935F936F937F938F93AD
:1024F0009F93AF93BF93EF93FF9380912F0490919D
:102500003004892B29F0E0912F04F09130041995C3
:10251000FF91EF91BF91AF919F918F917F916F91BB
:102520005F914F913F912F910F900BBE0F900FBE77
:102530000F901F901895FC0124853585F901E05C0A
:10254000FF4F80819181329620813181821B930BD4
:102550008F7399270895DC011C96ED91FC911D97CE
:10256000DF01A05CBF4F2D913C91119712968D9188
:102570009C9111972817390739F08D919C91E80F9C
:10258000F91F808190E008958FEF9FEF0895FC017F
:10259000A485B585FD01E05CFF4F20813181329635
:1025A000808191812817390779F080819181A80F66
:1025B000B91F8C91208131812F5F3F4F2F733327BB
:1025C0003183208390E008958FEF9FEF0895FC0101
:1025D00081A1882329F0A489B5898C9186FFFBCF3E
:1025E00011A208950F931F93CF93DF93FC01A6854B
:1025F000B7858D01005C1F4FE801888199810196A4
:102600008F739927AD014E5B5F4FEA0128813981B5
:1026100082179307D1F3E80128813981A20FB31FF4
:102620006C93A685B785A05CBF4F11969C938E9343
:10263000A689B7892C9181E090E0078C02C0880FB1
:10264000991F0A94E2F7822B8C9381E081A304887E
:10265000F589E02D80818064808381E090E0DF91C6
:10266000CF911F910F910895FB01E05CFF4F2081F6
:1026700031812F5F3F4F2F733327DB01AE5BBF4F9D
:102680004D915C912417350741F040815181DB0168
:10269000A40FB51F8C9331832083089508951F9252
:1026A0000F920FB60F9211240BB60F922F933F93F8
:1026B0004F935F936F937F938F939F93AF93BF934A
:1026C000EF93FF938091C00082FD07C08091C60008
:1026D00065E976E00E94341302C08091C600FF9144
:1026E000EF91BF91AF919F918F917F916F915F918A
:1026F0004F913F912F910F900BBE0F900FBE0F90F7
:102700001F90189508951F920F920FB60F921124E3
:102710000BB60F922F933F934F935F936F937F93DB
:102720008F939F93AF93BF93EF93FF938091C800D4
:1027300082FD07C08091CE006DE076E00E943413E8
:1027400002C08091CE00FF91EF91BF91AF919F9118
:102750008F917F916F915F914F913F912F910F904A
:102760000BBE0F900FBE0F901F90189508951F92EB
:102770000F920FB60F9211240BB60F922F933F9327
:102780004F935F936F937F938F939F93AF93BF9379
:10279000EF93FF938091D00082FD07C08091D60017
:1027A00065E875E00E94341302C08091D600FF9165
:1027B000EF91BF91AF919F918F917F916F915F91B9
:1027C0004F913F912F910F900BBE0F900FBE0F9026
:1027D0001F90189508951F920F920FB60F92112413
:1027E0000BB60F922F933F934F935F936F937F930B
:1027F0008F939F93AF93BF93EF93FF93809130019B
:1028000082FD07C0809136016DEF74E00E943413A1
:1028100002C080913601FF91EF91BF91AF919F91DE
:102820008F917F916F915F914F913F912F910F9079
:102830000BBE0F900FBE0F901F90189587E994E084
:102840000E949B12892B11F00E944E1385E794E0A1
:102850000E949B12892B11F00E94821383E594E061
:102860000E949B12892B11F00E94B61381E394E021
:102870000E949B12892B11F00C94EA1308951F9269
:102880000F920FB60F9211240BB60F922F933F9316
:102890008F939F93EF93FF9320919106309192062F
:1028A00080919306909194062817390731F480910E
:1028B000C1008F7D8093C10014C0E0919306F09118
:1028C0009406EF5AF94F20818091930690919406D7
:1028D00001968F7399279093940680939306209383
:1028E000C600FF91EF919F918F913F912F910F9093
:1028F0000BBE0F900FBE0F901F9018951F920F9256
:102900000FB60F9211240BB60F922F933F938F9314
:102910009F93EF93FF932091090630910A068091CF
:102920000B0690910C062817390731F48091C900E5
:102930008F7D8093C90014C0E0910B06F0910C06C6
:10294000E753FA4F208180910B0690910C06019677
:102950008F73992790930C0680930B062093CE00DB
:10296000FF91EF919F918F913F912F910F900BBE0F
:102970000F900FBE0F901F9018951F920F920FB6D9
:102980000F9211240BB60F922F933F938F939F9327
:10299000EF93FF932091810530918205809183050B
:1029A000909184052817390731F48091D1008F7DEB
:1029B0008093D10014C0E0918305F0918405EF5B12
:1029C000FA4F2081809183059091840501968F7341
:1029D000992790938405809383052093D600FF91D7
:1029E000EF919F918F913F912F910F900BBE0F9080
:1029F0000FBE0F901F9018951F920F920FB60F9257
:102A000011240BB60F922F933F938F939F93EF93C5
:102A1000FF932091F9043091FA048091FB04909186
:102A2000FC042817390731F4809131018F7D8093A0
:102A3000310114C0E091FB04F091FC04E754FB4F1A
:102A400020818091FB049091FC0401968F7399275B
:102A50009093FC048093FB0420933601FF91EF9147
:102A60009F918F913F912F910F900BBE0F900FBEB2
:102A70000F901F901895CF92DF92EF92FF920F93D5
:102A80001F93CF93DF93EC016A017B014115514EF7
:102A90006105710509F1EC89FD8981E090E008A0EC
:102AA00002C0880F991F0A94E2F7808360E079E002
:102AB0008DE390E0A70196010E94F11989019A0126
:102AC0000150110921093109369527951795079568
:102AD000980101151041A8F0EC89FD89108260E889
:102AE00074E88EE190E0A70196010E94F119DA01E5
:102AF000C9010197A109B109B695A7959795879541
:102B00009C01E889F9893083EA89FB89208319A22D
:102B1000EE89FF89408181E090E09C010C8C02C02D
:102B2000220F331F0A94E2F7242B2083EE89FF89BA
:102B300040819C010D8C02C0220F331F0A94E2F7E2
:102B4000242B2083EE89FF8940819C010E8C02C0DA
:102B5000220F331F0A94E2F7242B2083EE89FF898A
:102B600020810F8C02C0880F991F0A94E2F780958C
:102B700082238083DF91CF911F910F91FF90EF907F
:102B8000DF90CF900895CF92DF92EF92FF92E7E926
:102B9000F4E01382128288EEC82E83E0D82EE12C56
:102BA000F12CC482D582E682F78267E172E07183FC
:102BB000608385E996E09587848781E596E097872D
:102BC000868785EC90E0918B808B84EC90E0938BF2
:102BD000828B80EC90E0958B848B81EC90E0978BDE
:102BE000868B82EC90E0918F808F86EC90E0938FC3
:102BF000828F44E0448F33E0358F27E0268F95E0C5
:102C0000978F81E080A3E5E7F4E013821282C4820B
:102C1000D582E682F78271836083ADE0B6E0B58746
:102C2000A487A9ECB5E0B787A687ADECB0E0B18B7F
:102C3000A08BACECB0E0B38BA28BA8ECB0E0B58B72
:102C4000A48BA9ECB0E0B78BA68BAAECB0E0B18F57
:102C5000A08FAEECB0E0B38FA28F448F358F268F5C
:102C6000978F80A3E3E5F4E013821282C482D582B9
:102C7000E682F78271836083A5E8B5E0B587A48713
:102C8000A1E4B5E0B787A687A5EDB0E0B18BA08B36
:102C9000A4EDB0E0B38BA28BA0EDB0E0B58BA48B1C
:102CA000A1EDB0E0B78BA68BA2EDB0E0B18FA08F05
:102CB000A6EDB0E0B38FA28F448F358F268F978F0C
:102CC00080A3E1E3F4E013821282C482D582E6821B
:102CD000F782718360836DEF74E07587648769EBB9
:102CE00074E07787668765E371E0718B608B64E3DE
:102CF00071E0738B628B60E371E0758B648B61E3D1
:102D000071E0778B668B62E371E0718F608F66E3B1
:102D100071E0738F628F448F358F268F978F80A3DA
:102D2000FF90EF90DF90CF900895CF92DF92EF92D7
:102D3000FF920F931F93CF93DF936C01EB017B0105
:102D4000E40EF51E00E010E0CE15DF0561F069919C
:102D5000D601ED91FC910190F081E02DC60119950D
:102D6000080F191FF1CFC801DF91CF911F910F916B
:102D7000FF90EF90DF90CF9008956115710579F085
:102D8000FB0101900020E9F73197AF01461B570B7B
:102D9000DC01ED91FC910280F381E02D199480E03B
:102DA00090E008950C94BD16DC01ED91FC9101902A
:102DB000F081E02D19940F931F93CF93DF93EC01D3
:102DC0006DE00E94D4168C016AE0CE010E94D416F8
:102DD000800F911FDF91CF911F910F9108958F92D6
:102DE0009F92AF92BF92CF92DF92EF92FF920F939A
:102DF0001F93CF93DF93CDB7DEB7A1970FB6F894AB
:102E0000DEBF0FBECDBF6C01142FE52FCB01022F0B
:102E100019A2223008F40AE07E0121E2E20EF11C40
:102E2000802E912CA12CB12C612F7E2FA501940115
:102E30000E94F119029F1019112481E0E81AF1088B
:102E40001A3014F4105D01C0195CF7011083122FC1
:102E5000E32FCA01232B242B252B31F7B701C60101
:102E60000E94BD16A1960FB6F894DEBF0FBECDBF6F
:102E7000DF91CF911F910F91FF90EF90DF90CF9056
:102E8000BF90AF909F908F900895CF92DF92EF9276
:102E9000FF920F931F93CF93DF93EC016A017B01A5
:102EA0002115310579F4E881F9810190F081E02D57
:102EB000642FDF91CF911F910F91FF90EF90DF90E2
:102EC000CF9019942A303105E9F477FF1AC06DE2EA
:102ED0000E94D4168C0144275527BA014C195D096C
:102EE0006E097F092AE0CE010E94EF16800F911F24
:102EF000DF91CF911F910F91FF90EF90DF90CF90D6
:102F000008952AE0B701A601CE01DF91CF911F916C
:102F10000F91FF90EF90DF90CF900C94EF160F93EE
:102F20001F93CF93DF93EC019A01AB01770F660BF0
:102F3000770B0E9445178C01CE010E94DB16800F93
:102F4000911FDF91CF911F910F9108950E94980ECC
:102F50000E948204CEE1D4E10E9414052097E1F39F
:102F60000E941E14F9CF5058BB27AA270E94CB17E6
:102F70000C9445190E94371938F00E943E1920F030
:102F800039F49F3F19F426F40C9434190EF4E095AB
:102F9000E7FB0C942E19E92F0E94561958F3BA1723
:102FA000620773078407950720F079F4A6F50C945F
:102FB00078190EF4E0950B2EBA2FA02D0B01B90154
:102FC00090010C01CA01A0011124FF27591B99F09F
:102FD000593F50F4503E68F11A16F040A22F232FAB
:102FE000342F4427585FF3CF469537952795A795FB
:102FF000F0405395C9F77EF41F16BA0B620B730BA2
:10300000840BBAF09150A1F0FF0FBB1F661F771F12
:10301000881FC2F70EC0BA0F621F731F841F48F4C7
:10302000879577956795B795F7959E3F08F0B0CF50
:103030009395880F08F09927EE0F97958795089537
:103040000E940A1908F481E008950E9439180C942E
:1030500045190E943E1958F00E94371940F029F492
:103060005F3F29F00C942E1951110C9479190C948E
:1030700034190E94561968F39923B1F3552391F33B
:10308000951B550BBB27AA2762177307840738F0D7
:103090009F5F5F4F220F331F441FAA1FA9F335D034
:1030A0000E2E3AF0E0E832D091505040E695001CE8
:1030B000CAF72BD0FE2F29D0660F771F881FBB1FA2
:1030C000261737074807AB07B0E809F0BB0B802D80
:1030D000BF01FF2793585F4F3AF09E3F510578F0AC
:1030E0000C942E190C9479195F3FE4F3983ED4F3B5
:1030F000869577956795B795F7959F5FC9F7880F80
:10310000911D9695879597F90895E1E0660F771FD1
:10311000881FBB1F621773078407BA0720F0621B62
:10312000730B840BBA0BEE1F88F7E09508950E948D
:103130009E186894B1110C94791908950E945E1933
:1031400088F09F5798F0B92F9927B751B0F0E1F068
:10315000660F771F881F991F1AF0BA95C9F714C018
:10316000B13091F00E947819B1E008950C9478196B
:10317000672F782F8827B85F39F0B93FCCF3869551
:1031800077956795B395D9F73EF4909580957095AE
:1031900061957F4F8F4F9F4F0895E89409C097FB2B
:1031A0003EF490958095709561957F4F8F4F9F4F1E
:1031B0009923A9F0F92F96E9BB279395F695879562
:1031C00077956795B795F111F8CFFAF4BB0F11F425
:1031D00060FF1BC06F5F7F4F8F4F9F4F16C08823CC
:1031E00011F096E911C0772321F09EE8872F762F02
:1031F00005C0662371F096E8862F70E060E02AF043
:103200009A95660F771F881FDAF7880F969587952E
:1032100097F90895990F0008550FAA0BE0E8FEEF03
:1032200016161706E807F907C0F012161306E4078A
:10323000F50798F0621B730B840B950B39F40A2683
:1032400061F0232B242B252B21F408950A2609F461
:10325000A140A6958FEF811D811D089597F99F6765
:1032600080E870E060E008959FEF80EC089500240E
:103270000A941616170618060906089500240A94DB
:1032800012161306140605060895092E0394000C61
:1032900011F4882352F0BB0F40F4BF2B11F460FFF0
:1032A00004C06F5F7F4F8F4F9F4F089557FD905819
:1032B000440F551F59F05F3F71F04795880F97FBFA
:1032C000991F61F09F3F79F08795089512161306B4
:1032D0001406551FF2CF4695F1DF08C016161706E3
:1032E0001806991FF1CF8695710561050894089518
:1032F000E894BB2766277727CB0197F908950E94AA
:103300000A1908F48FEF08950E9497190C94451933
:103310000E94371938F00E943E1920F0952311F0D1
:103320000C942E190C94341911240C9479190E94C0
:10333000561970F3959FC1F3950F50E0551F629F8A
:10334000F001729FBB27F00DB11D639FAA27F00DFE
:10335000B11DAA1F649F6627B00DA11D661F829F25
:103360002227B00DA11D621F739FB00DA11D621F0A
:10337000839FA00D611D221F749F3327A00D611D27
:10338000231F849F600D211D822F762F6A2F112409
:103390009F5750409AF0F1F088234AF0EE0FFF1F3C
:1033A000BB1F661F771F881F91505040A9F79E3F93
:1033B000510580F00C942E190C9479195F3FE4F3B9
:1033C000983ED4F3869577956795B795F795E795E9
:1033D0009F5FC1F7FE2B880F911D9695879597F9F2
:1033E0000895A1E21A2EAA1BBB1BFD010DC0AA1F46
:1033F000BB1FEE1FFF1FA217B307E407F50720F05E
:10340000A21BB30BE40BF50B661F771F881F991FD8
:103410001A9469F760957095809590959B01AC0121
:10342000BD01CF010895EE0FFF1F881F8BBF0790CE
:10343000F691E02D19940E94261AA59F900DB49F35
:10344000900DA49F800D911D11240895A29FB0019D
:10345000B39FC001A39F700D811D1124911DB29FC8
:0E346000700D811D1124911D0895F894FFCF69
:10346E00060026002700010A2041564552414745D5
:10347E003A200000000000F21295169B12C712AB04
:04348E0012E712002F
:00000001FF
