:100000000C9499010C9433100C9464100C9495107A
:100010000C94C6100C94F7100C9428110C945911E0
:100020000C948A110C94CA010C94CA010C94CA0154
:100030000C94CA010C94CA010C94CA010C94CA0114
:100040000C94CA010C94CA010C94CA010C94CA0104
:100050000C94CA010C94CA010C94CA010C94350D7D
:100060000C94CA010C946F120C945F130C94CA0187
:100070000C94CA010C94CA010C94CA010C94CA01D4
:100080000C94CA010C94CA010C94CA010C94CA01C4
:100090000C94A3120C949E130C94CA010C94CA01E4
:1000A0000C94CA010C94CA010C94CA010C94CA01A4
:1000B0000C94CA010C94CA010C94CA010C94CA0194
:1000C0000C94CA010C94CA010C94CA010C94D71266
:1000D0000C94DD130C94CA010C940B130C941C1497
:1000E0000C94CA01590E5C0E4F0E530E930E600E07
:1000F000640E6A0E6E0E720E780E7C0E800E930EDB
:10010000860E8A0E8E0E290F2E0F330F3D0FB60F5F
:10011000470F4F0F570F610F6B0F750F840F8E0F27
:10012000B60F980FA20FAC0F0D10D70FDF0FEB0F0C
:10013000F80F191026100C94A20F0C94570F0C9462
:10014000BB110C943D0F0C9426020C94930E0C944E
:1001500007120C945C0E0C947C0E0C94780E0C948C
:10016000600E0C948E0F0C94F80F0C941A020C94E1
:10017000750F0C94640E0C94E7110C9412120C94ED
:100180008A0E0C940E020C94AC0F0C94840F0C94F9
:100190002E0F0C94D70F0C948F040C94530E0C94C8
:1001A000EB0F0C940D100C9426100C94800E0C94F4
:1001B000E3140C94470F0C943E130C94860E0C948D
:1001C000330F0C9420020C944F0F0C946A0E0C9475
:1001D000980F0C94B5150C946E0E0C9419100C9489
:1001E0006B0F0C94720E0C942C020C94CB110C948B
:1001F000290F0C94590E0C948E0E0C94610F0C94D4
:1002000014020C94B60F0C94DF0F0C944F0E0000E8
:10021000090A02080B0C0D07060304010000000088
:1002200000000000000000000000000000000000CE
:100230000000000000000000000011100F0000008E
:1002400000000000000000000000000000000000AE
:10025000000000000102102020080810204010209B
:10026000408002010201080402010102040810207A
:100270004080804020100804020180040201804078
:1002800020100804020108040201010204081020E1
:10029000408001020408102040800505050507057F
:1002A00008080808020202020A0A080804040404F2
:1002B000010101010101010103030303030303031E
:1002C000040707070C0C0C0C0C0C0C0C02020202AD
:1002D00006060606060606060B0B0B0B0B0B0B0B96
:1002E000000020002300260029002C002F003200EF
:1002F00000010000030106010901000022002500A1
:1003000028002B002E0031003400020100000501FE
:1003100008010B0100002100240027002A002D0005
:100320003000330001010000040107010A018F04BD
:10033000E31411241FBECFEFD1E2DEBFCDBF00E03A
:100340000CBF12E0A0E0B2E0ECEDF0E300E00BBF88
:1003500002C007900D92A031B107D9F726E0A0E1C5
:10036000B2E001C01D92A53CB207E1F711E0C9E976
:10037000D1E000E006C021970109802FFE010E9414
:100380004A18C739D10780E00807A9F70E94DD1590
:100390000C946C180C940000DC01ED91FD918081AF
:1003A000ED91FD919081ED91FD916C9163708E23A3
:1003B00009F064609F2309F06860E9EEF1E0E60F60
:1003C000F11D659565956D936D917D918D919D91D3
:1003D000099423C01AC012C016C010C01EC009C0A4
:1003E00014C013C006C019C009C00DC007C00DC09D
:1003F00014C062507040804090400BC0615070400B
:100400008040904006C06E5F01C06F5F7F4F8F4F8E
:100410009F4F9E938E937E936E93089580910204D6
:10042000909103040C94CC018091000490910104FC
:100430000C94CC018091FE039091FF030C94CC01AD
:100440008091FC039091FD030C94CC018091FA0300
:100450009091FB030C94CC018091F8039091F903E7
:100460000C94CC01823109F440C078F48230E1F080
:10047000833009F044C07093FB036093FA0341E0BA
:1004800050E066E272E081E02CC08431B9F000F106
:100490008531A9F57093FD036093FC0341E050E0C2
:1004A00060E272E082E01DC07093F9036093F8038C
:1004B00041E050E06CE272E080E013C07093FF0313
:1004C0006093FE0341E050E06AE172E083E009C01E
:1004D000709301046093000441E050E064E172E035
:1004E00084E00E94BF0F81E008957093030460933D
:1004F000020441E050E06EE072E085E0F2CF80E07F
:1005000008953F924F925F926F927F928F929F9247
:10051000AF92BF92CF92DF92EF92FF920F931F9311
:10052000CF93DF93EC01562E442E322E62E0802FC3
:100530000E94940E62E08E2D0E94940E802F90E017
:10054000FC01E656FD4FE491F0E0EE0FFF1FE05294
:10055000FD4F2591349139832883FC01EC5AFD4FDE
:10056000E491EC832E2D30E0F901E656FD4FE49145
:10057000F0E0EE0FFF1FE052FD4F859194919B83B9
:100580008A83F901EC5AFD4FE491ED831F821886AE
:1005900019861A8680ED97E00E94D60DE881F981D0
:1005A00090818C81982381E009F480E0EA81FB81CD
:1005B00020819D81922309F082608E83BE01802F6D
:1005C0000E9432028B87BE018E2D0E9432022B8543
:1005D00090E0820F911D8B874E018CE0880E911C5C
:1005E0003E0198E4690E711CAE014C5A5F4FBE018A
:1005F000605B7F4F1F921F928EE38F9389E18F93F1
:1006000089E98F938AE98F938DECA82E8CECB82E14
:100610008CE4C82E8DE3D82E1AE9E12E19E9F12ECB
:1006200009E91EE39301C4010E94030D5E01ECE49D
:10063000AE0EB11C8FEFF50180836E01FDE4CF0E8D
:10064000D11CF60180837E01FEE4EF0EF11CF70160
:100650008083C45ADF4F188219821A821B82F301E9
:10066000108211821282138261E070E0C4010E9444
:10067000410C00E010E02FE733E440E050E06FE78A
:1006800073ECC4010E947B0BF5015082F60140829D
:10069000F701308261E0852D0E94940E61E0F60141
:1006A00080810E94940E0F900F900F900F900F90EA
:1006B0000F9061E0F7018081DF91CF911F910F9141
:1006C000FF90EF90DF90CF90BF90AF909F908F9072
:1006D0007F906F905F904F903F900C94940ECF93CB
:1006E000DF93EC01613051F4FC01E35BFF4F60E00C
:1006F00080810E94D00EC25BDF4F0BC0623059F484
:10070000FC01E25BFF4F60E080810E94D00EC35B82
:10071000DF4F61E00CC0633079F4FC01E35BFF4F15
:1007200060E080810E94D00EC25BDF4F60E0888174
:10073000DF91CF910C94D00EDF91CF91089570E0AE
:10074000FC01E45BFF4F80810C94000F8F929F921D
:10075000AF92BF92CF92DF92EF92FF92CF93DF934F
:100760004A015B01EC01C45ADF4F88819981AA815B
:10077000BB819A01AB01281B390B4A0B5B0BA8E527
:10078000B2E00E9452180E94061720E030E040EFCD
:1007900054E40E945C166B017C0188829982AA82D3
:1007A000BB8220E030E0A9010E94B617181624F0A1
:1007B000C701B601905802C0C701B601DF91CF91C1
:1007C000FF90EF90DF90CF90BF90AF909F908F9071
:1007D00008950F931F93CF93DF93EC018B858230A5
:1007E00028F4F894CE010E94CC0101C0F8943F8116
:1007F000288599858A857894FE01E85AFF4F3083D1
:10080000218392838383432F522F692F782F77FF81
:1008100007C070956095509541955F4F6F4F7F4F22
:10082000CE010E94A603FE01E05BFF4F608371834F
:1008300082839383CE010C960E944A098E01015B4C
:100840001F4FF801608170E080E090E00E94061781
:10085000FE01EC5AFF4F20813181428153810E9479
:10086000EB150E94CE1677FD07C06F3F710529F08A
:1008700024F06FEF70E001C060E0F801608320E0D9
:1008800030E0A901FE01E85BFF4F60817181828148
:1008900093810E945716811102C0F8011082F8015D
:1008A0006081CE01DF91CF911F910F910C949F0336
:1008B000CF93DF93EC018B85823028F4F894CE013E
:1008C0000E94CC0101C0F8946F81788589859A8552
:1008D0007894C85ADF4F688379838A839B83DF913A
:1008E000CF910895CF93DF9340E855E260E070E048
:1008F00083E894E00E945B1410921202109213029B
:10090000C8E7D2E063E0CE010E946F03C05ADF4F18
:1009100083E0C83FD807B1F7DF91CF910895EF92F8
:100920000F9384E3E82E04E12AE14BE16AE088E7D3
:1009300092E00E94810295E3E92E05E12CE14DE170
:100940006BE088ED92E00E94810223E3E22E03E156
:1009500026E147E168E088E393E00E94810232E308
:10096000E32E02E128E149E169E088E993E00E9491
:10097000810243E0E42E02E029E248E265E088E1FA
:1009800092E00E9481020F91EF900895CF92DF9242
:10099000EF92FF920F931F93CF93DF9383E894E03E
:1009A0000E94BB1118161906C4F483E894E00E9453
:1009B000E711809312026AE070E080E090E00E940C
:1009C000B00D83E894E00E94E711809313026AE07F
:1009D00070E080E090E00E94B00D8091120290E003
:1009E000609113020097A1F4C8E7D2E063E0CE0162
:1009F0000E946F03FE01E85BFF4F1082118212829A
:100A00001382C05ADF4F83E0C83FD80779F7F5C398
:100A1000C62ED12C81309105E9F4C8E7D2E00D2C27
:100A2000000CEE08FF0861E0CE010E946F038E010A
:100A3000085B1F4FC701B6010E940617F8016083CB
:100A4000718382839383C05ADF4FF3E0C83FDF078F
:100A500051F7D3C382309105E9F4C8E7D2E00D2CF9
:100A6000000CEE08FF0862E0CE010E946F038E01C9
:100A7000085B1F4FC701B6010E940617F80160838B
:100A8000718382839383C05ADF4FF3E0C83FDF074F
:100A900051F7B3C38330910589F462E088E792E0AF
:100AA0000E946F0361E088ED92E00E946F0362E0B4
:100AB00088E393E00E946F0361E013C084309105E6
:100AC000D9F561E088E792E00E946F0362E088ED6B
:100AD00092E00E946F0361E088E393E00E946F035D
:100AE00062E088E993E00E946F03B601DD0C880B99
:100AF000990B0E9406176093200370932103809343
:100B00002203909323036093E0037093E1038093A7
:100B1000E2039093E3036093C0027093C102809359
:100B2000C2029093C3026093800370938103809309
:100B300082039093830361C38530910589F462E059
:100B400088E792E00E946F0361E088ED92E00E94E6
:100B50006F0361E088E393E00E946F0362E013C0DB
:100B60008630910599F561E088E792E00E946F0375
:100B700062E088ED92E00E946F0362E088E393E018
:100B80000E946F0361E088E993E00E946F03B60161
:100B9000DD0C880B990B0E9406176093C0027093BE
:100BA000C1028093C2029093C302609320037093AA
:100BB0002103809322039093230360938003709317
:100BC00081038093820390938303B3C2873091059E
:100BD00069F51092C0021092C1021092C2021092E6
:100BE000C302B601DD0C880B990B0E9406176093B7
:100BF0002003709321038093220390932303109288
:100C000080031092810310928203109283036093F9
:100C1000E0037093E1038093E2039093E30363E0C6
:100C200088E792E00E946F0361E0F4C0883091058C
:100C300069F5B601DD0C880B990B0E9406176093CD
:100C4000C0027093C1028093C2029093C3021092BB
:100C50002003109221031092220310922303609329
:100C60008003709381038093820390938303109297
:100C7000E0031092E1031092E2031092E30361E0BB
:100C800088E792E00E946F0363E08FC0893091058E
:100C900069F5B601DD0C880B990B0E94061760936D
:100CA000C0027093C1028093C2029093C30210925B
:100CB00020031092210310922203109223036093C9
:100CC0008003709381038093820390938303109237
:100CD000E0031092E1031092E2031092E30362E05A
:100CE00088E792E00E946F0363E0C9C08A309105F3
:100CF00069F51092C0021092C1021092C2021092C5
:100D0000C302B601DD0C880B990B0E940617609395
:100D10002003709321038093220390932303109266
:100D200080031092810310928203109283036093D8
:100D3000E0037093E1038093E2039093E30363E0A5
:100D400088E792E00E946F0362E0CEC08B3091058D
:100D500091F51092C0021092C1021092C20210923C
:100D6000C302B601DD0C880B990B0E940617609335
:100D700020037093210380932203909323036093B5
:100D80008003709381038093820390938303109276
:100D9000E0031092E1031092E2031092E30363E098
:100DA00088E792E00E946F0361E088ED92E00E9484
:100DB0006F0361E003C18C30910591F5B601DD0C44
:100DC000880B990B0E9406176093C0027093C102B2
:100DD0008093C2029093C3021092200310922103C9
:100DE0001092220310922303109280031092810329
:100DF00010928203109283036093E0037093E103E7
:100E00008093E2039093E30361E088E792E00E941D
:100E10006F0363E088ED92E00E946F0363E042C1DC
:100E20008D30910591F51092C0021092C10210927E
:100E3000C2021092C302B601DD0C880B990B0E940E
:100E400006176093200370932103809322039093ED
:100E500023036093800370938103809382039093B4
:100E600083031092E0031092E1031092E2031092C8
:100E7000E30363E088E792E00E946F0362E088ED9D
:100E800092E00E946F0362E099C08E30910591F567
:100E9000B601DD0C880B990B0E9406176093C00207
:100EA0007093C1028093C2029093C30210922003F8
:100EB00010922103109222031092230310928003B8
:100EC0001092810310928203109283036093E003D7
:100ED0007093E1038093E2039093E30362E088E779
:100EE00092E00E946F0363E088ED92E00E946F033E
:100EF00063E09EC08F30910569F5B601DD0C880B6B
:100F0000990B0E9406176093C0027093C1028093F0
:100F1000C2029093C30260932003709321038093D5
:100F20002203909323031092800310928103109266
:100F30008203109283031092E0031092E103109257
:100F4000E2031092E30362E088E792E00E946F03FD
:100F500061E02FC080319105B9F5B601DD0C880B39
:100F6000990B0E9406176093C0027093C102809390
:100F7000C2029093C3026093200370932103809375
:100F80002203909323031092800310928103109206
:100F90008203109283031092E0031092E1031092F7
:100FA000E2031092E30361E088E792E00E946F039E
:100FB00062E088ED92E00E946F0363E088E393E0D3
:100FC0000E946F0363E073C081319105B9F51092FF
:100FD000C0021092C1021092C2021092C30210927B
:100FE0002003109221031092220310922303B601D2
:100FF000DD0C880B990B0E94061760938003709399
:10100000810380938203909383036093E003709342
:10101000E1038093E2039093E30363E088E792E0C7
:101020000E946F0363E088ED92E00E946F0361E02D
:1010300088E393E00E946F0362E039C0823191053A
:10104000D9F51092C0021092C1021092C202109201
:10105000C3021092200310922103109222031092D7
:101060002303B601DD0C880B990B0E9406176093D1
:101070008003709381038093820390938303609332
:10108000E0037093E1038093E2039093E30363E052
:1010900088E792E00E946F0363E088ED92E00E948F
:1010A0006F0362E088E393E00E946F0361E088E9E8
:1010B00093E00E946F03A1C08331910549F5B60109
:1010C000DD0C880B990B0E9406176B017C019B01BC
:1010D000AC016091200370912103809122039091D3
:1010E00023030E94EB1560932003709321038093E8
:1010F000220390932303A70196016091E00370916E
:10110000E1038091E2039091E3030E94EB1511C08B
:1011100084319105B9F4B601DD0C880B990B0E945E
:10112000061760932003709321038093220390930A
:1011300023036093E0037093E1038093E2039093B1
:10114000E3035BC08531910519F588E192E00E94C7
:1011500058046B017C0168E288E192E00E949F03E1
:1011600061E088E192E00E946F038FE7C81A85E290
:10117000D80AE108F10888E192E00E9458046C1551
:101180007D058E059F05BCF763E088E192E091CF75
:10119000469701F588E192E00E9458046B017C01BA
:1011A00068E288E192E00E949F0362E088E192E0B9
:1011B0000E946F03EFE7CE0EE5E2DE1EE11CF11C9C
:1011C00088E192E00E945804C616D706E806F906A0
:1011D000BCF7DACFC8E7D2E063E0CE010E946F032C
:1011E000FE01E85BFF4F1082118212821382C05A07
:1011F000DF4FF3E0C83FDF0779F70E947F0DC09013
:101200001402D0901502E0901602F0901702DC0153
:10121000CB018C199D09AE09BF0984369105A10542
:10122000B10578F10E947F0D60931402709315024E
:10123000809316029093170288E792E00E94E903D8
:1012400088ED92E00E94E90388E393E00E94E903BD
:1012500088E993E00E94E9038091100290911102C5
:101260000196909311028093100283E894E0DF913D
:10127000CF911F910F91FF90EF90DF90CF900C9442
:101280000712DF91CF911F910F91FF90EF90DF90A8
:10129000CF9008952F923F924F925F926F927F92DC
:1012A0008F929F92AF92BF92CF92DF92EF92FF9276
:1012B0000F931F93CF93DF93CDB7DEB760970FB631
:1012C000F894DEBF0FBECDBFDC01DA96BC91B983C6
:1012D000B11102C0198227C1988B8F870E947F0DA0
:1012E0006E837F8388879987EF85F88982A193A190
:1012F000A4A1B5A14E815F8168857985481B590BF2
:101300006A0B7B0B86A597A5A0A9B1A94817590719
:101310006A077B07F8F2248D358DD9018D919D9157
:101320000D90BC91A02D8A839B83AC83BD8300A0CC
:10133000F1A1E02D9C01AD016081718182819381D9
:101340000E94EA154B015C01EF85F88922A533A5BF
:1013500044A555A56A817B818C819D810E94EA15F7
:101360006B017C01AF85B88950962D913D914D91CF
:101370005C915397C501B4010E94BB17EF85F889B2
:1013800026A137A140A551A50E94EB152B013C01D8
:10139000AF85B88996966D937D938D939C9399971D
:1013A000DB96BC91BA87B11118C0EF85F889248506
:1013B000358546855785C701B6010E94BB179B013D
:1013C000AC01C301B2010E94EA15AF85B8899696B7
:1013D0006D937D938D939C939997EF85F88946A0A3
:1013E00057A060A471A416A907A930AC21AC212F85
:1013F000302F432D522DC301B2010E94B61718168B
:101400002CF4812F902FA32DB22D18C0AF85B88951
:10141000D2968D919D910D90BC91A02D8B879C872C
:10142000AD87BE879C01AD01C301B2010E94571672
:1014300087FF0AC08B859C85AD85BE85EF85F889C1
:1014400086A397A3A0A7B1A7FA85FF2379F0AF855C
:10145000B8891C962D913D914D915C911F97C501C6
:10146000B4010E94BB174B015C0103C0812C912C7D
:101470005401EF85F8892489358946895789C70140
:10148000B6010E94BB179B01AC01AF85B889969647
:101490006D917D918D919C9199970E94EA159B0188
:1014A000AC01C501B4010E94EB156B017C01212F39
:1014B000302F432D522D0E94B6171816A4F0EF8539
:1014C000F88912A903A934A825A8212F302F432D6C
:1014D000522DB601C7010E94571687FD04C01C2D6E
:1014E0000D2D3E2C2F2CAF85B8895E96ED91FC9189
:1014F0005F97812F902FA32DB22D80839183A2839C
:10150000B3838A819B81AC81BD81EF85F88982A7F5
:1015100093A7A4A7B5A78E819F81A885B98582A32B
:1015200093A3A4A3B5A3898160960FB6F894DEBFF8
:101530000FBECDBFDF91CF911F910F91FF90EF9024
:10154000DF90CF90BF90AF909F908F907F906F90E3
:101550005F904F903F902F9008952F923F924F921F
:101560005F926F927F928F929F92AF92BF92CF9233
:10157000DF92EF92FF920F931F93CF93DF9300D0F0
:101580001F92CDB7DEB71C0149835A836B837C83DE
:101590002801390120E030E0A90169817A818B813D
:1015A0009C810E94571687FD8FC020E030E0A90182
:1015B000C301B2010E94571687FD86C020E030E0CB
:1015C000A901C701B6010E94571687FD7DC0D10150
:1015D0005B96BC92AE925A9781E0AA94AB2809F030
:1015E00080E0F10183AF89819A81AB81BC818083E6
:1015F0009183A283B3834482558266827782C086B8
:10160000D186E286F38666A577A580A991A90E9476
:10161000041720E030E04AE754E40E945C164B01D6
:101620005C0189819A81AB81BC81F10184879587B6
:10163000A687B787A5019401C301B2010E94BB1719
:101640002B013C01D10150966D937D938D939C931A
:101650005397A5019401C701B6010E945C166B0166
:101660007C01F101648B758B868B978B808D918DBE
:10167000019751F529813A814B815C8160E070E0EE
:10168000CB010E94EA15D1011C966D937D938D9339
:101690009C931F97A301920160E070E0CB010E9430
:1016A000EA15F101608B718B828B938BA7019601F8
:1016B00060E070E0CB010E94EA15D10154966D9371
:1016C0007D938D939C9357970F900F900F900F9051
:1016D000DF91CF911F910F91FF90EF90DF90CF900E
:1016E000BF90AF909F908F907F906F905F904F9042
:1016F0003F902F9008952F923F924F925F926F925A
:101700007F928F929F92AF92BF92CF92DF92EF9291
:10171000FF920F931F93CF93DF93EC016A017B013C
:1017200048015901A9019801C701B6010E94B617E5
:1017300087FF4EC0CAAADBAAECAAFDAA8EAA9FAA5E
:10174000A8AEB9AE8AAD882309F442C02E8C3F8C76
:10175000F1014080518062807380A5019401C30132
:10176000B2010E94B617181634F4F10180829182FA
:10177000A282B3820DC0A7019601C301B2010E94EB
:10178000571687FF05C0F101C082D182E282F38241
:101790008EA09FA0A8A4B9A4CEA8DFA8E8ACF9ACFD
:1017A000A7019601C501B4010E94B617181664F08E
:1017B000CAA8DBA8ECA8FDA8A7019601C501B40141
:1017C0000E94571687FF04C0CEA2DFA2E8A6F9A6A2
:1017D000DF91CF911F910F91FF90EF90DF90CF900D
:1017E000BF90AF909F908F907F906F905F904F9041
:1017F0003F902F9008958F929F92AF92BF92CF9279
:10180000DF92EF92FF92CF93DF93EC01EE8DFF8D8D
:10181000C080D180E280F380CEA2DFA2E8A6F9A644
:10182000EC8DFD8D80819181A281B3818AA79BA7D8
:10183000ACA7BDA78EA89FA8A8ACB9ACA501940180
:10184000C701B6010E94B617181664F08AA89BA8B3
:10185000ACA8BDA8A5019401C701B6010E94571606
:1018600087FF04C08EA29FA2A8A6B9A6DF91CF9140
:10187000FF90EF90DF90CF90BF90AF909F908F90B0
:1018800008951F93CF93DF93EC0111E06130710550
:1018900011F010E006C08AAD811103C0CE010E9494
:1018A000FB0B1AAFDF91CF911F9108950F931F93F8
:1018B000CF93DF93EC018B018AAD882361F1888D92
:1018C000998D6817790739F12C853D854E855F859F
:1018D00060E070E0CB010E94EA156C877D878E87FF
:1018E0009F87288939894A895B8960E070E0CB014C
:1018F0000E94EA15688B798B8A8B9B8B2C893D899A
:101900004E895F8960E070E0CB010E94EA156C8B24
:101910007D8B8E8B9F8B198F088FDF91CF911F91BD
:101920000F9108954F925F926F927F928F929F9244
:10193000AF92BF92CF92DF92EF92FF920F931F93DD
:10194000CF93DF9300D01F92CDB7DEB74C012701B4
:101950003801A982BA82CB82DC82FC01578F468F84
:10196000758F648F31A320A312AE12AA13AA14AAF2
:1019700015AA80E090E0AFE7B3E486AB97ABA0AFE9
:10198000B1AF84E690E0A0E0B0E086A797A7A0AB57
:10199000B1AB6E8D7F8DC4010E94560CAC8CBD8C9A
:1019A000C88CD98CEA8CFB8C09811A812B813C81F3
:1019B000B301A201C4010E94AD0A0E947F0DF4018F
:1019C00006A517A520A931A9DC01CB01801B910B2D
:1019D000A20BB30B82A393A3A4A3B5A30F900F9064
:1019E0000F900F90DF91CF911F910F91FF90EF908B
:1019F000DF90CF90BF90AF909F908F907F906F902F
:101A00005F904F9008958F929F92AF92BF92CF9226
:101A1000DF92EF92FF920F931F93CF93DF93CDB797
:101A2000DEB7E889F989AA89BB899C888D888F925D
:101A30009F921F92992493949F92BF93AF93FF9389
:101A4000EF930E94920C0FB6F894DEBF0FBECDBF8D
:101A5000DF91CF911F910F91FF90EF90DF90CF908A
:101A6000BF90AF909F908F9008951F920F920FB6E6
:101A70000F9211242F933F938F939F93AF93BF9314
:101A80008091050490910604A0910704B091080488
:101A90003091040423E0230F2D3720F40196A11D7B
:101AA000B11D05C026E8230F0296A11DB11D20938C
:101AB00004048093050490930604A0930704B09354
:101AC00008048091090490910A04A0910B04B0913C
:101AD0000C040196A11DB11D8093090490930A0482
:101AE000A0930B04B0930C04BF91AF919F918F9181
:101AF0003F912F910F900FBE0F901F9018952FB709
:101B0000F894609105047091060480910704909107
:101B100008042FBF08953FB7F8948091090490916D
:101B20000A04A0910B04B0910C0426B5A89B05C033
:101B30002F3F19F00196A11DB11D3FBFBA2FA92F4C
:101B4000982F8827820F911DA11DB11DBC01CD01C9
:101B500042E0660F771F881F991F4A95D1F70895B5
:101B6000CF92DF92EF92FF92CF93DF936B017C01D4
:101B70000E948B0DEB01C114D104E104F10479F052
:101B80000E948B0D6C1B7D0B683E7340A0F381E0BF
:101B9000C81AD108E108F108C851DC4FECCFDF9139
:101BA000CF91FF90EF90DF90CF900895019739F09B
:101BB000880F991F880F991F02970197F1F70895D1
:101BC000789484B5826084BD84B5816084BD85B518
:101BD000826085BD85B5816085BDEEE6F0E08081DF
:101BE00081608083E1E8F0E0108280818260808300
:101BF000808181608083E0E8F0E080818160808383
:101C0000E1EBF0E0808184608083E0EBF0E08081B4
:101C100081608083E1E9F0E080818260808380815F
:101C200081608083E0E9F0E0808181608083E1EA87
:101C3000F0E0808182608083808181608083E0EA3F
:101C4000F0E0808181608083E1E2F1E08081826068
:101C50008083808181608083E0E2F1E08081816027
:101C60008083EAE7F0E08081846080838081826005
:101C700080838081816080838081806880831092EE
:101C8000C100089590E0FC013197E131F10508F0C1
:101C90004AC08827EE58FF4F8F4F0C944A18809106
:101CA00080008F7703C0809180008F7D80938000BB
:101CB000089584B58F7702C084B58F7D84BD089563
:101CC0008091B0008F7703C08091B0008F7D8093AA
:101CD000B0000895809190008F7707C080919000A8
:101CE0008F7D03C080919000877F8093900008953E
:101CF0008091A0008F7707C08091A0008F7D03C0E6
:101D00008091A000877F8093A0000895809120019A
:101D10008F7707C0809120018F7D03C080912001C3
:101D2000877F809320010895CF93DF9390E0FC019B
:101D3000EC5AFD4F2491FC01E656FD4F8491882317
:101D400061F190E0880F991FFC01EC5EFC4FC5919A
:101D5000D491FC01E650FD4FA591B491611109C0E9
:101D60009FB7F8948881209582238883EC912E2355
:101D70000BC0623061F49FB7F8943881822F809550
:101D800083238883EC912E2B2C939FBF06C08FB7A3
:101D9000F894E8812E2B28838FBFDF91CF9108958F
:101DA0001F93CF93DF93282F30E0F901E25FFD4FBF
:101DB0008491F901EC5AFD4FD491F901E656FD4F9B
:101DC000C491CC23C9F0162F81110E94420EEC2F32
:101DD000F0E0EE0FFF1FE650FD4FA591B4918FB7D5
:101DE000F894111105C09C91ED2FE095E92302C0F4
:101DF000EC91ED2BEC938FBFDF91CF911F91089564
:101E00001F93CF93DF93182FEB0161E00E94940E94
:101E1000209711F460E004C0CF3FD10539F461E0B0
:101E2000812FDF91CF911F910C94D00EE12FF0E024
:101E3000E25FFD4FE4914E2F50E0FA013197E1311E
:101E4000F10508F093C08827ED57FF4F8F4F0C9492
:101E50004A1884B5806884BDC7BD8DC084B58062D2
:101E600084BDC8BD88C08091800080688093800058
:101E7000D0938900C09388007EC0809180008062EA
:101E800080938000D0938B00C0938A0074C08091AF
:101E9000B00080688093B000C093B3006CC08091A4
:101EA000B00080628093B000C093B40064C08091A1
:101EB0009000806880939000D0939900C093980020
:101EC0005AC080919000806280939000D0939B00D4
:101ED000C0939A0050C080919000886080939000D9
:101EE000D0939D00C0939C0046C08091A000806864
:101EF0008093A0008091A0008F7B8093A000D0935E
:101F0000A900C093A80037C08091A0008062809390
:101F1000A000D093AB00C093AA002DC08091A00078
:101F200088608093A000D093AD00C093AC0023C024
:101F300080912001806880932001D0932901C09373
:101F4000280119C080912001806280932001D093E4
:101F50002B01C0932A010FC08091200188608093DB
:101F60002001D0932D01C0932C0105C0C038D105AC
:101F70000CF055CF4FCFDF91CF911F91089588304E
:101F800008F070C0A82FB0E0AA0FBB1FA35FBB4F23
:101F900011967C936E9390E0FC013197E730F10548
:101FA000A0F58827EC56FF4F8F4F0C944A1880916C
:101FB00069008C7F482B40936900E89A08958091CE
:101FC0006900440F551F440F551F837F482B4093D2
:101FD0006900E99A08958091690074E0440F551FE3
:101FE0007A95E1F78F7C482B40936900EA9A08952F
:101FF0008091690066E0440F551F6A95E1F78F7381
:10200000482B40936900EB9A089580916A008C7F79
:10201000482B40936A00EC9A089580916A00440F1F
:10202000551F440F551F837F482B40936A00ED9A3C
:10203000089580916A0024E0440F551F2A95E1F726
:102040008F7C482B40936A00EE9A089580916A0035
:1020500096E0440F551F9A95E1F78F73482B4093F4
:102060006A00EF9A08951F920F920FB60F921124F3
:102070000BB60F922F933F934F935F936F937F9382
:102080008F939F93AF93BF93EF93FF93809111042E
:1020900090911204892B29F0E0911104F09112041F
:1020A0001995FF91EF91BF91AF919F918F917F9182
:1020B0006F915F914F913F912F910F900BBE0F90B9
:1020C0000FBE0F901F9018951F920F920FB60F9290
:1020D00011240BB60F922F933F934F935F936F93FF
:1020E0007F938F939F93AF93BF93EF93FF938091D1
:1020F000130490911404892B29F0E0911304F091BA
:1021000014041995FF91EF91BF91AF919F918F9119
:102110007F916F915F914F913F912F910F900BBEE7
:102120000F900FBE0F901F9018951F920F920FB631
:102130000F9211240BB60F922F933F934F935F93FF
:102140006F937F938F939F93AF93BF93EF93FF937F
:102150008091150490911604892B29F0E0911504C3
:10216000F09116041995FF91EF91BF91AF919F9156
:102170008F917F916F915F914F913F912F910F9030
:102180000BBE0F900FBE0F901F9018951F920F92CD
:102190000FB60F9211240BB60F922F933F934F93CC
:1021A0005F936F937F938F939F93AF93BF93EF93BF
:1021B000FF938091170490911804892B29F0E091E6
:1021C0001704F09118041995FF91EF91BF91AF9109
:1021D0009F918F917F916F915F914F913F912F913F
:1021E0000F900BBE0F900FBE0F901F9018951F926F
:1021F0000F920FB60F9211240BB60F922F933F93AD
:102200004F935F936F937F938F939F93AF93BF93FE
:10221000EF93FF9380910D0490910E04892B29F088
:10222000E0910D04F0910E041995FF91EF91BF918B
:10223000AF919F918F917F916F915F914F913F915E
:102240002F910F900BBE0F900FBE0F901F901895FF
:102250001F920F920FB60F9211240BB60F922F936D
:102260003F934F935F936F937F938F939F93AF931E
:10227000BF93EF93FF9380910F0490911004892BEB
:1022800029F0E0910F04F09110041995FF91EF915E
:10229000BF91AF919F918F917F916F915F914F917E
:1022A0003F912F910F900BBE0F900FBE0F901F907C
:1022B00018951F920F920FB60F9211240BB60F9222
:1022C0002F933F934F935F936F937F938F939F933E
:1022D000AF93BF93EF93FF938091190490911A04E9
:1022E000892B29F0E0911904F0911A041995FF91B6
:1022F000EF91BF91AF919F918F917F916F915F917E
:102300004F913F912F910F900BBE0F900FBE0F90EA
:102310001F9018951F920F920FB60F9211240BB6B3
:102320000F922F933F934F935F936F937F938F936E
:102330009F93AF93BF93EF93FF9380911B04909172
:102340001C04892B29F0E0911B04F0911C041995C1
:10235000FF91EF91BF91AF919F918F917F916F917D
:102360005F914F913F912F910F900BBE0F900FBE39
:102370000F901F901895FC0124853585F901E05CCC
:10238000FF4F80819181329620813181821B930B96
:102390008F7399270895DC011C96ED91FC911D9790
:1023A000DF01A05CBF4F2D913C91119712968D914A
:1023B0009C9111972817390739F08D919C91E80F5E
:1023C000F91F808190E008958FEF9FEF0895FC0141
:1023D000A485B585FD01E05CFF4F208131813296F7
:1023E000808191812817390779F080819181A80F28
:1023F000B91F8C91208131812F5F3F4F2F7333277D
:102400003183208390E008958FEF9FEF0895FC01C2
:1024100081A1882329F0A489B5898C9186FFFBCFFF
:1024200011A208950F931F93CF93DF93FC01A6850C
:10243000B7858D01005C1F4FE80188819981019665
:102440008F739927AD014E5B5F4FEA012881398177
:1024500082179307D1F3E80128813981A20FB31FB6
:102460006C93A685B785A05CBF4F11969C938E9305
:10247000A689B7892C9181E090E0078C02C0880F73
:10248000991F0A94E2F7822B8C9381E081A3048840
:10249000F589E02D80818064808381E090E0DF9188
:1024A000CF911F910F910895FB01E05CFF4F2081B8
:1024B00031812F5F3F4F2F733327DB01AE5BBF4F5F
:1024C0004D915C912417350741F040815181DB012A
:1024D000A40FB51F8C9331832083089508951F9214
:1024E0000F920FB60F9211240BB60F922F933F93BA
:1024F0004F935F936F937F938F939F93AF93BF930C
:10250000EF93FF938091C00082FD07C08091C600C9
:1025100061E876E00E94541202C08091C600FF91EB
:10252000EF91BF91AF919F918F917F916F915F914B
:102530004F913F912F910F900BBE0F900FBE0F90B8
:102540001F90189508951F920F920FB60F921124A5
:102550000BB60F922F933F934F935F936F937F939D
:102560008F939F93AF93BF93EF93FF938091C80096
:1025700082FD07C08091CE0069EF75E00E94541281
:1025800002C08091CE00FF91EF91BF91AF919F91DA
:102590008F917F916F915F914F913F912F910F900C
:1025A0000BBE0F900FBE0F901F90189508951F92AD
:1025B0000F920FB60F9211240BB60F922F933F93E9
:1025C0004F935F936F937F938F939F93AF93BF933B
:1025D000EF93FF938091D00082FD07C08091D600D9
:1025E00061E775E00E94541202C08091D600FF910D
:1025F000EF91BF91AF919F918F917F916F915F917B
:102600004F913F912F910F900BBE0F900FBE0F90E7
:102610001F90189508951F920F920FB60F921124D4
:102620000BB60F922F933F934F935F936F937F93CC
:102630008F939F93AF93BF93EF93FF93809130015C
:1026400082FD07C08091360169EE74E00E94541249
:1026500002C080913601FF91EF91BF91AF919F91A0
:102660008F917F916F915F914F913F912F910F903B
:102670000BBE0F900FBE0F901F90189583E894E04B
:102680000E94BB11892B11F00E946E1281E694E02A
:102690000E94BB11892B11F00E94A2128FE394E0DB
:1026A0000E94BB11892B11F00E94D6128DE194E09B
:1026B0000E94BB11892B11F00C940A1308951F92EC
:1026C0000F920FB60F9211240BB60F922F933F93D8
:1026D0008F939F93EF93FF9320917D0630917E0619
:1026E00080917F06909180062817390731F48091F8
:1026F000C1008F7D8093C10014C0E0917F06F091EE
:102700008006E35CF94F208180917F0690918006DE
:1027100001968F7399279093800680937F0620936C
:10272000C600FF91EF919F918F913F912F910F9054
:102730000BBE0F900FBE0F901F9018951F920F9217
:102740000FB60F9211240BB60F922F933F938F93D6
:102750009F93EF93FF932091F5053091F6058091BB
:10276000F7059091F8052817390731F48091C900D1
:102770008F7D8093C90014C0E091F705F091F805B2
:10278000EB54FA4F20818091F7059091F80501965E
:102790008F7399279093F8058093F7052093CE00C7
:1027A000FF91EF919F918F913F912F910F900BBED1
:1027B0000F900FBE0F901F9018951F920F920FB69B
:1027C0000F9211240BB60F922F933F938F939F93E9
:1027D000EF93FF9320916D0530916E0580916F0509
:1027E000909170052817390731F48091D1008F7DC1
:1027F0008093D10014C0E0916F05F0917005E35D06
:10280000FA4F208180916F059091700501968F732A
:1028100099279093700580936F052093D600FF91C0
:10282000EF919F918F913F912F910F900BBE0F9041
:102830000FBE0F901F9018951F920F920FB60F9218
:1028400011240BB60F922F933F938F939F93EF9387
:10285000FF932091E5043091E6048091E704909184
:10286000E8042817390731F4809131018F7D809376
:10287000310114C0E091E704F091E804EB55FB4FFF
:1028800020818091E7049091E80401968F73992745
:102890009093E8048093E70420933601FF91EF9131
:1028A0009F918F913F912F910F900BBE0F900FBE74
:1028B0000F901F901895CF92DF92EF92FF920F9397
:1028C0001F93CF93DF93EC016A017B014115514EB9
:1028D0006105710509F1EC89FD8981E090E008A0AE
:1028E00002C0880F991F0A94E2F7808360E079E0C4
:1028F0008DE390E0A70196010E94281889019A01B2
:102900000150110921093109369527951795079529
:10291000980101151041A8F0EC89FD89108260E84A
:1029200074E88EE190E0A70196010E942818DA0170
:10293000C9010197A109B109B695A7959795879502
:102940009C01E889F9893083EA89FB89208319A2EF
:10295000EE89FF89408181E090E09C010C8C02C0EF
:10296000220F331F0A94E2F7242B2083EE89FF897C
:1029700040819C010D8C02C0220F331F0A94E2F7A4
:10298000242B2083EE89FF8940819C010E8C02C09C
:10299000220F331F0A94E2F7242B2083EE89FF894C
:1029A00020810F8C02C0880F991F0A94E2F780954E
:1029B00082238083DF91CF911F910F91FF90EF9041
:1029C000DF90CF900895CF92DF92EF92FF92E3E8ED
:1029D000F4E01382128288EEC82E83E0D82EE12C18
:1029E000F12CC482D582E682F78264E072E07183C2
:1029F000608381E896E0958784878DE396E09787EA
:102A0000868785EC90E0918B808B84EC90E0938BB3
:102A1000828B80EC90E0958B848B81EC90E0978B9F
:102A2000868B82EC90E0918F808F86EC90E0938F84
:102A3000828F44E0448F33E0358F27E0268F95E086
:102A4000978F81E080A3E1E6F4E013821282C482D2
:102A5000D582E682F78271836083A9EFB5E0B587FE
:102A6000A487A5EBB5E0B787A687ADECB0E0B18B46
:102A7000A08BACECB0E0B38BA28BA8ECB0E0B58B34
:102A8000A48BA9ECB0E0B78BA68BAAECB0E0B18F19
:102A9000A08FAEECB0E0B38FA28F448F358F268F1E
:102AA000978F80A3EFE3F4E013821282C482D58271
:102AB000E682F78271836083A1E7B5E0B587A487DA
:102AC000ADE2B5E0B787A687A5EDB0E0B18BA08BEE
:102AD000A4EDB0E0B38BA28BA0EDB0E0B58BA48BDE
:102AE000A1EDB0E0B78BA68BA2EDB0E0B18FA08FC7
:102AF000A6EDB0E0B38FA28F448F358F268F978FCE
:102B000080A3EDE1F4E013821282C482D582E682D2
:102B1000F7827183608369EE74E07587648765EA84
:102B200074E07787668765E371E0718B608B64E39F
:102B300071E0738B628B60E371E0758B648B61E392
:102B400071E0778B668B62E371E0718F608F66E373
:102B500071E0738F628F448F358F268F978F80A39C
:102B6000FF90EF90DF90CF900895CF92DF92EF9299
:102B7000FF920F931F93CF93DF936C01EB017B01C7
:102B8000E40EF51E00E010E0CE15DF0561F069915E
:102B9000D601ED91FC910190F081E02DC6011995CF
:102BA000080F191FF1CFC801DF91CF911F910F912D
:102BB000FF90EF90DF90CF9008950E94E00D0E946B
:102BC0007204CEE3D3E10E94C6042097E1F30E9491
:102BD0003E13F9CF5058BB27AA270E9402160C9427
:102BE0007C170E946E1738F00E94751720F039F498
:102BF0009F3F19F426F40C946B170EF4E095E7FB55
:102C00000C946517E92F0E948D1758F3BA176207C5
:102C100073078407950720F079F4A6F50C94AF1795
:102C20000EF4E0950B2EBA2FA02D0B01B9019001E7
:102C30000C01CA01A0011124FF27591B99F0593F2B
:102C400050F4503E68F11A16F040A22F232F342F73
:102C50004427585FF3CF469537952795A795F040C1
:102C60005395C9F77EF41F16BA0B620B730B840BD6
:102C7000BAF09150A1F0FF0FBB1F661F771F881F8E
:102C8000C2F70EC0BA0F621F731F841F48F48795E6
:102C900077956795B795F7959E3F08F0B0CF9395D8
:102CA000880F08F09927EE0F9795879508950E9451
:102CB000411708F481E008950E9470160C947C1767
:102CC0000E94751758F00E946E1740F029F45F3F7C
:102CD00029F00C94651751110C94B0170C946B17D4
:102CE0000E948D1768F39923B1F3552391F3951B37
:102CF000550BBB27AA2762177307840738F09F5F1D
:102D00005F4F220F331F441FAA1FA9F335D00E2E89
:102D10003AF0E0E832D091505040E695001CCAF7F6
:102D20002BD0FE2F29D0660F771F881FBB1F2617B9
:102D300037074807AB07B0E809F0BB0B802DBF0190
:102D4000FF2793585F4F3AF09E3F510578F00C945F
:102D500065170C94B0175F3FE4F3983ED4F3869563
:102D600077956795B795F7959F5FC9F7880F911D80
:102D70009695879597F90895E1E0660F771F881F6C
:102D8000BB1F621773078407BA0720F0621B730B1F
:102D9000840BBA0BEE1F88F7E09508950E94D516B4
:102DA0006894B1110C94B01708950E94951788F09B
:102DB0009F5798F0B92F9927B751B0F0E1F0660FFF
:102DC000771F881F991F1AF0BA95C9F714C0B13040
:102DD00091F00E94AF17B1E008950C94AF17672FE0
:102DE000782F8827B85F39F0B93FCCF3869577956F
:102DF0006795B395D9F73EF4909580957095619558
:102E00007F4F8F4F9F4F0895E89409C097FB3EF482
:102E100090958095709561957F4F8F4F9F4F992327
:102E2000A9F0F92F96E9BB279395F69587957795A5
:102E30006795B795F111F8CFFAF4BB0F11F460FF65
:102E40001BC06F5F7F4F8F4F9F4F16C0882311F0BD
:102E500096E911C0772321F09EE8872F762F05C0D1
:102E6000662371F096E8862F70E060E02AF09A956C
:102E7000660F771F881FDAF7880F9695879597F961
:102E80000895990F0008550FAA0BE0E8FEEF1616FB
:102E90001706E807F907C0F012161306E407F5074E
:102EA00098F0621B730B840B950B39F40A2661F0C2
:102EB000232B242B252B21F408950A2609F4A14065
:102EC000A6958FEF811D811D089597F99F6780E872
:102ED00070E060E008959FEF80EC089500240A946C
:102EE0001616170618060906089500240A941216E5
:102EF0001306140605060895092E0394000C11F418
:102F0000882352F0BB0F40F4BF2B11F460FF04C0C4
:102F10006F5F7F4F8F4F9F4F089557FD9058440F1D
:102F2000551F59F05F3F71F04795880F97FB991F28
:102F300061F09F3F79F087950895121613061406E5
:102F4000551FF2CF4695F1DF08C016161706180672
:102F5000991FF1CF86957105610508940895E8944D
:102F6000BB2766277727CB0197F908950E94411761
:102F700008F48FEF08950E94CE170C947C170E94DE
:102F80006E1738F00E94751720F0952311F00C94FD
:102F900065170C946B1711240C94B0170E948D17B1
:102FA00070F3959FC1F3950F50E0551F629FF0019C
:102FB000729FBB27F00DB11D639FAA27F00DB11DB5
:102FC000AA1F649F6627B00DA11D661F829F22273E
:102FD000B00DA11D621F739FB00DA11D621F839FC5
:102FE000A00D611D221F749F3327A00D611D231F9B
:102FF000849F600D211D822F762F6A2F11249F57E9
:1030000050409AF0F1F088234AF0EE0FFF1FBB1FEB
:10301000661F771F881F91505040A9F79E3F5105AA
:1030200080F00C9465170C94B0175F3FE4F3983E62
:10303000D4F3869577956795B795F795E7959F5F54
:10304000C1F7FE2B880F911D9695879597F90895E6
:10305000A1E21A2EAA1BBB1BFD010DC0AA1FBB1F9C
:10306000EE1FFF1FA217B307E407F50720F0A21B0E
:10307000B30BE40BF50B661F771F881F991F1A947B
:1030800069F760957095809590959B01AC01BD01A5
:10309000CF010895EE0FFF1F881F8BBF0790F69199
:1030A000E02D19940E945D18A59F900DB49F900D7E
:1030B000A49F800D911D11240895A29FB001B39F7C
:1030C000C001A39F700D811D1124911DB29F700D31
:0C30D000811D1124911D0895F894FFCF7C
:1030DC00000000001212B515BB11E711CB1107123D
:00000001FF
