:100000000C9499010C943A120C946B120C949C125F
:100010000C94CD120C94FE120C942F130C946013BC
:100020000C9491130C94CA010C94CA010C94CA014B
:100030000C94CA010C94CA010C94CA010C94CA0114
:100040000C94CA010C94CA010C94CA010C94CA0104
:100050000C94CA010C94CA010C94CA010C94140F9C
:100060000C94CA010C9476140C9466150C94CA0175
:100070000C94CA010C94CA010C94CA010C94CA01D4
:100080000C94CA010C94CA010C94CA010C94CA01C4
:100090000C94AA140C94A5150C94CA010C94CA01D2
:1000A0000C94CA010C94CA010C94CA010C94CA01A4
:1000B0000C94CA010C94CA010C94CA010C94CA0194
:1000C0000C94CA010C94CA010C94CA010C94DE145D
:1000D0000C94E4150C94CA010C9412150C9423167C
:1000E0000C94CA0138103B102E10321072103F10C1
:1000F000431049104D10511057105B105F107210D3
:10010000651069106D10301135113A114411BD118F
:100110004E1156115E11681172117C118B119511DF
:10012000BD119F11A911B3111412DE11E611F211C4
:10013000FF1120122D120C9426020C947C110C94A9
:1001400072100C94C2130C9456110C945E110C9402
:100150005B100C943A110C941A020C9430110C940C
:1001600065100C9420120C9438100C943B100C94D5
:10017000D2130C940E020C9472110C9419140C945A
:10018000BC170C94A9110C942D120C9495110C947D
:10019000E6110C9457100C943F100C94DE110C9443
:1001A00035110C9420020C944E110C946D100C948B
:1001B00069100C94F2110C94B3110C94FF110C946F
:1001C00043100C9444110C94EE130C94DD040C9425
:1001D0009F110C9451100C942C020C94BD110C9492
:1001E00068110C948B110C94EA160C9449100C9421
:1001F00045150C940E140C944D100C9414020C9490
:1002000032100C945F100C9414120C942E100000F9
:10021000090A02080B0C0D07060304010000000088
:1002200000000000000000000000000000000000CE
:100230000000000000000000000011100F0000008E
:1002400000000000000000000000000000000000AE
:10025000000000000102102020080810204010209B
:10026000408002010201080402010102040810207A
:100270004080804020100804020180040201804078
:1002800020100804020108040201010204081020E1
:10029000408001020408102040800505050507057F
:1002A00008080808020202020A0A080804040404F2
:1002B000010101010101010103030303030303031E
:1002C000040707070C0C0C0C0C0C0C0C02020202AD
:1002D00006060606060606060B0B0B0B0B0B0B0B96
:1002E000000020002300260029002C002F003200EF
:1002F00000010000030106010901000022002500A1
:1003000028002B002E0031003400020100000501FE
:1003100008010B0100002100240027002A002D0005
:100320003000330001010000040107010A01DD046F
:10033000EA1611241FBECFEFD1E2DEBFCDBF00E031
:100340000CBF12E0A0E0B2E0E0E2F5E300E00BBF9A
:1003500002C007900D92A831B107D9F726E0A8E1B5
:10036000B2E001C01D92AE3CB207E1F711E0C9E96D
:10037000D1E000E006C021970109802FFE010E9414
:100380006C1AC739D10780E00807A9F70E94FF1748
:100390000C948E1A0C940000DC01ED91FD9180818B
:1003A000ED91FD919081ED91FD916C9163708E23A3
:1003B00009F064609F2309F06860E9EEF1E0E60F60
:1003C000F11D659565956D936D917D918D919D91D3
:1003D000099423C01AC012C016C010C01EC009C0A4
:1003E00014C013C006C019C009C00DC007C00DC09D
:1003F00014C062507040804090400BC0615070400B
:100400008040904006C06E5F01C06F5F7F4F8F4F8E
:100410009F4F9E938E937E936E93089580910B04CD
:1004200090910C040C94CC018091090490910A04E1
:100430000C94CC0180910704909108040C94CC0199
:1004400080910504909106040C94CC0180910304E2
:10045000909104040C94CC018091010490910204C9
:100460000C94CC01823109F440C078F48230E1F080
:10047000833009F044C0709304046093030441E0A6
:1004800050E066E272E081E02CC08431B9F000F106
:100490008531A9F5709306046093050441E050E0AE
:1004A00060E272E082E01DC0709302046093010478
:1004B00041E050E06CE272E080E013C07093080409
:1004C0006093070441E050E06AE172E083E009C014
:1004D00070930A046093090441E050E064E172E023
:1004E00084E00E94C61181E0089570930C0460932B
:1004F0000B0441E050E06EE072E085E0F2CF80E076
:1005000008953F924F925F926F927F928F929F9247
:10051000AF92BF92CF92DF92EF92FF920F931F9311
:10052000CF93DF93EC01562E442E322E62E0802FC3
:100530000E94731062E08E2D0E947310802F90E055
:10054000FC01E656FD4FE491F0E0EE0FFF1FE05294
:10055000FD4F2591349139832883FC01EC5AFD4FDE
:10056000E491EC832E2D30E0F901E656FD4FE49145
:10057000F0E0EE0FFF1FE052FD4F859194919B83B9
:100580008A83F901EC5AFD4FE491ED831F821886AE
:1005900019861A8680ED97E00E94B50FE881F981EF
:1005A00090818C81982381E009F480E0EA81FB81CD
:1005B00020819D81922309F082608E83BE01802F6D
:1005C0000E9432028B87BE018E2D0E9432022B8543
:1005D00090E0820F911D8B874E018CE0880E911C5C
:1005E0003E0198E4690E711CAE01405B5F4FBE0195
:1005F000645B7F4F1F921F928DE38F9385E78F93EC
:1006000082EC8F938FE88F938CEBA82E84E7B82E23
:1006100083E1C82E8EE3D82E1FE8E12E12ECF12ED6
:1006200005E71EE39301C4010E94E20E5E01E4E5CA
:10063000AE0EB11C8FEFF50180836E01F5E5CF0E94
:10064000D11CF60180837E01F6E5EF0EF11CF70167
:100650008083C45ADF4F188219821A821B82F301E9
:10066000108211821282138261E070E0C4010E9444
:10067000200E00E010E02FE733E440E050E06FE7A9
:1006800073ECC4010E945A0DF5015082F6014082BC
:10069000F701308261E0852D0E94731061E0F60160
:1006A00080810E9473100F900F900F900F900F9009
:1006B0000F9061E0F7018081DF91CF911F910F9141
:1006C000FF90EF90DF90CF90BF90AF909F908F9072
:1006D0007F906F905F904F903F900C947310CF93EA
:1006E000DF93EC01613051F4FC01EB5AFF4F60E005
:1006F00080810E94AF10CA5ADF4F0BC0623059F49C
:10070000FC01EA5AFF4F60E080810E94AF10CB5A93
:10071000DF4F61E00CC0633079F4FC01EB5AFF4F0E
:1007200060E080810E94AF10CA5ADF4F60E088818C
:10073000DF91CF910C94AF10DF91CF91089570E0CD
:10074000FC01EC5AFF4F80810C9407118F929F920D
:10075000AF92BF92CF92DF92EF92FF92CF93DF934F
:100760004A015B01EC01C45ADF4F88819981AA815B
:10077000BB819A01AB01281B390B4A0B5B0BA8E527
:10078000B2E00E94741A0E94281920E030E040EF85
:1007900054E40E947E186B017C0188829982AA82AF
:1007A000BB8220E030E0A9010E94D819181624F07D
:1007B000C701B601905802C0C701B601DF91CF91C1
:1007C000FF90EF90DF90CF90BF90AF909F908F9071
:1007D00008950F931F93CF93DF93EC018B858230A5
:1007E00028F4F894CE010E94CC0101C0F8943F8116
:1007F000288599858A857894FE01E85AFF4F3083D1
:10080000218392838383432F522F692F782F77FF81
:1008100007C070956095509541955F4F6F4F7F4F22
:10082000CE010E94A603FE01E45BFF4F608371834B
:1008300082839383CE010C960E94130B8E01095A7A
:100840001F4FF801608170E080E090E00E9428195D
:10085000FE01E05BFF4F20813181428153810E9484
:100860000D180E94F01877FD07C06F3F710529F041
:1008700024F06FEF70E001C060E0F801608320E0D9
:1008800030E0A901FE01E85BFF4F60817181828148
:1008900093810E947918811102C0F8011082F80139
:1008A0006081CE01DF91CF911F910F910C949F0336
:1008B000CF93DF93EC018B85823028F4F894CE013E
:1008C0000E94CC0101C0F8946F81788589859A8552
:1008D0007894C85ADF4F688379838A839B83DF913A
:1008E000CF910895CF92DF92EF92FF920F931F93D3
:1008F0000C960E94440D1F910F91FF90EF90DF9096
:10090000CF900895CF92DF92EF92FF920F931F93B3
:10091000CF93DF9340E855E260E070E08CE894E02C
:100920000E94621683E00E94DF108FE8C82E82ECDE
:10093000D82E85EFE82E8CE3F82E0AE017ED23E29F
:100940003CE34FE852EC65E77DE381E292E00E94F0
:10095000720486E30E94E21010921B0210921C02A5
:1009600063E081E292E00E946F03109269021092AC
:100970006A0210926B0210926C02C1E8D2E063E04E
:10098000CE010E946F03C05ADF4F84E0C130D80708
:10099000B1F7C0E0D2E08881229661E00E94731036
:1009A00082E0C630D807B9F7DF91CF911F910F9140
:1009B000FF90EF90DF90CF900895EF920F9384E334
:1009C000E82E04E12AE14BE16AE081E892E00E942E
:1009D000810295E3E92E05E12CE14DE16BE081EE2A
:1009E00092E00E94810223E3E22E03E126E147E147
:1009F00068E081E493E00E94810232E3E32E02E1A9
:100A000028E149E169E081EA93E00E94810243E044
:100A1000E42E02E026E247E265E081E292E00E94F5
:100A200081020F91EF9008958F929F92AF92BF92A3
:100A3000CF92DF92EF92FF920F931F93CF93DF93AA
:100A40008CE894E00E94C213181619060CF047C0F7
:100A50008CE894E00E94EE1380931B026AE070E041
:100A600080E090E00E948F0F8CE894E00E94EE13EB
:100A700080931C026AE070E080E090E00E948F0F9B
:100A800090911B0280911A02981749F1C0E0D0E0C2
:100A900060E070E0CE0183579D4F0E94200EC05A47
:100AA000DF4FC03881E0D80799F7C9ECD2E018864B
:100AB00019861A861B8661E070E0CE01CC970E94F1
:100AC000200E188219821A821B82C05ADF4FE4E07E
:100AD000C934DE0761F780911B0280931A02E0900F
:100AE0001B02F12CC0911C02F4E6EF16F10484F015
:100AF00000E010E060E070E0C80183579D4F0E9465
:100B0000200E005A1F4F003881E0180799F72FC0B8
:100B100009EC12E0F801108611861286138661E056
:100B200070E0C801CC970E94200EF801108211825B
:100B300012821382005A1F4FF4E009341F0751F745
:100B4000E114F104A1F4C1E8D2E063E0CE010E9417
:100B50006F03FE01E85BFF4F108211821282138245
:100B6000C05ADF4F84E0C130D80779F710C5CC2ECA
:100B7000D12CE1E0EE16F104E9F4C1E8D2E00D2C4D
:100B8000000CEE08FF0861E0CE010E946F038E01A9
:100B9000085B1F4FC701B6010E942819F801608346
:100BA000718382839383C05ADF4FF4E0C130DF0743
:100BB00051F7EDC482E0E816F104E9F4C1E8D2E0AF
:100BC0000D2C000CEE08FF0862E0CE010E946F03BE
:100BD0008E01085B1F4FC701B6010E942819F8015A
:100BE0006083718382839383C05ADF4FF4E0C13006
:100BF000DF0751F7CCC483E0E816F10489F462E022
:100C000081E892E00E946F0361E081EE92E00E9431
:100C10006F0362E081E493E00E946F0361E014C01F
:100C2000E4E0EE16F104D9F561E081E892E00E947B
:100C30006F0362E081EE92E00E946F0361E081E465
:100C400093E00E946F0362E081EA93E00E946F03E9
:100C5000B601DD0C880B990B0E94281960932903BB
:100C600070932A0380932B0390932C036093E903E2
:100C70007093EA038093EB039093EC036093C902B3
:100C80007093CA028093CB029093CC026093890345
:100C900070938A0380938B0390938C0378C4F5E060
:100CA000EF16F10489F462E081E892E00E946F039C
:100CB00061E081EE92E00E946F0361E081E493E0E5
:100CC0000E946F0362E014C086E0E816F104D9F5D3
:100CD00061E081E892E00E946F0362E081EE92E0C1
:100CE0000E946F0362E081E493E00E946F0361E081
:100CF00081EA93E00E946F03B601DD0C880B990B2B
:100D00000E9428196093C9027093CA028093CB0293
:100D10009093CC026093290370932A0380932B0352
:100D200090932C036093890370938A0380938B03C1
:100D300090938C036093E9037093EA038093EB0331
:100D40009093EC0324C4E7E0EE16F10439F5109219
:100D5000C9021092CA021092CB021092CC02B601C4
:100D6000DD0C880B990B0E9428196093290370935E
:100D70002A0380932B0390932C03109289031092E3
:100D80008A0310928B0310928C036093E903709393
:100D9000EA038093EB039093EC0379C3F8E0EF163A
:100DA000F10439F5B601DD0C880B990B0E94281966
:100DB0006093C9027093CA028093CB029093CC02D5
:100DC0001092290310922A0310922B0310922C03E5
:100DD0006093890370938A0380938B0390938C03B1
:100DE0001092E9031092EA031092EB031092EC03C5
:100DF0006DC389E0E816F10439F5B601DD0C880B06
:100E0000990B0E9428196093C9027093CA028093BB
:100E1000CB029093CC021092290310922A031092D5
:100E20002B0310922C036093890370938A038093A1
:100E30008B0390938C031092E9031092EA031092B3
:100E4000EB031092EC035CC3EAE0EE16F10439F513
:100E50001092C9021092CA021092CB021092CC02D8
:100E6000B601DD0C880B990B0E94281960932903A9
:100E700070932A0380932B0390932C031092890381
:100E800010928A0310928B0310928C036093E903F3
:100E90007093EA038093EB039093EC0350C3FBE061
:100EA000EF16F10469F51092C9021092CA0210926D
:100EB000CB021092CC02B601DD0C880B990B0E947C
:100EC00028196093290370932A0380932B0390932E
:100ED0002C036093890370938A0380938B03909310
:100EE0008C031092E9031092EA031092EB03109224
:100EF000EC0363E081E892E00E946F0361E0ECC2E2
:100F00008CE0E816F10469F5B601DD0C880B990B4D
:100F10000E9428196093C9027093CA028093CB0281
:100F20009093CC021092290310922A0310922B0363
:100F300010922C031092890310928A0310928B0353
:100F400010928C036093E9037093EA038093EB03A0
:100F50009093EC0361E081E892E00E946F0363E00C
:100F60009CC2EDE0EE16F10469F51092C9021092F0
:100F7000CA021092CB021092CC02B601DD0C880B93
:100F8000990B0E9428196093290370932A03809378
:100F90002B0390932C036093890370938A038093AF
:100FA0008B0390938C031092E9031092EA03109242
:100FB000EB031092EC0363E081E892E00E946F0380
:100FC00062E0A4C2FEE0EF16F10469F5B601DD0CA3
:100FD000880B990B0E9428196093C9027093CA026A
:100FE0008093CB029093CC021092290310922A0393
:100FF00010922B0310922C031092890310928A03F3
:1010000010928B0310928C036093E9037093EA03B0
:101010008093EB039093EC0362E081E892E00E94FE
:101020006F0363E092C28FE0E816F10469F5B60140
:10103000DD0C880B990B0E9428196093C9027093EC
:10104000CA028093CB029093CC02609329037093E1
:101050002A0380932B0390932C0310928903109200
:101060008A0310928B0310928C031092E903109262
:10107000EA031092EB031092EC0362E081E892E045
:101080000E946F0361E030C0E0E1EE16F10491F5DB
:10109000B601DD0C880B990B0E9428196093C902D8
:1010A0007093CA028093CB029093CC026093290381
:1010B00070932A0380932B0390932C03109289033F
:1010C00010928A0310928B0310928C031092E90302
:1010D0001092EA031092EB031092EC0361E081E8B6
:1010E00092E00E946F0362E081EE92E00E946F0343
:1010F00063E011C2F1E1EF16F10491F51092C9021B
:101100001092CA021092CB021092CC0210922903C4
:1011100010922A0310922B0310922C03B601DD0CBF
:10112000880B990B0E9428196093890370938A0396
:1011300080938B0390938C036093E9037093EA038D
:101140008093EB039093EC0363E081E892E00E94CC
:101150006F0363E081EE92E00E946F0361E0FAC1E9
:1011600082E1E816F10491F51092C9021092CA02C8
:101170001092CB021092CC021092290310922A03F3
:1011800010922B0310922C03B601DD0C880B990BE7
:101190000E9428196093890370938A0380938B03BC
:1011A00090938C036093E9037093EA038093EB03BD
:1011B0009093EC0363E081E892E00E946F0363E0A8
:1011C00081EE92E00E946F0362E06CC1E3E1EE16F3
:1011D000F10449F5B601DD0C880B990B0E94281922
:1011E0006B017C019B01AC016091290370912A0382
:1011F00080912B0390912C030E940D18609329037A
:1012000070932A0380932B0390932C03A7019601DC
:101210006091E9037091EA038091EB039091EC03F4
:101220000E940D1887CDF4E1EF16F10479F4B601B0
:10123000DD0C880B990B0E94281960932903709389
:101240002A0380932B0390932C0374CD85E1E81639
:10125000F10419F581E292E00E9458046B017C01CF
:1012600068E281E292E00E949F0361E081E292E005
:101270000E946F03EFE7CE1AE5E2DE0AE108F1080B
:1012800081E292E00E9458046C157D058E059F0551
:10129000BCF763E081E292E064C1F6E1EF16F1048D
:1012A00009F043C081E292E00E9458044B015C01C6
:1012B000B601DD0C880B990B0E9428196093690216
:1012C00070936A0280936B0290936C0262E081E2F9
:1012D00092E00E946F03750164018FE7C80E85E2FA
:1012E000D81EE11CF11C81E292E00E945804C6164F
:1012F000D706E806F9065CF081E292E00E94E90375
:1013000064E670E080E090E00E948F0FECCF63E035
:1013100081E292E00E946F031092690210926A02C9
:1013200010926B0210926C0232C1E7E1EE16F104EA
:1013300069F460E0809104020E94AF1061E0809146
:1013400002020E94AF106CED70E021C0F8E1EF16D0
:10135000F10469F460E0809102020E94AF1061E044
:10136000809104020E94AF106FEF70E010C089E11D
:10137000E816F10489F460E0809102020E94AF1047
:1013800060E0809104020E94AF1060E070E0809104
:1013900000020E940711FBC0E5E6EE16F10489F495
:1013A00001E812E061E0C8010E946F036C2FC801E0
:1013B0000E949F03005A1F4FF4E001301F0791F76E
:1013C000E6C086E6E816F10489F401E812E062E07E
:1013D000C8010E946F036C2FC8010E949F03005A2E
:1013E0001F4FE4E001301E0791F7D1C0F7E6EF167A
:1013F000F10489F462E081E892E00E946F0361E009
:1014000081EE92E00E946F0362E081E493E00E942B
:101410006F0361E014C088E6E816F10449F561E065
:1014200081E892E00E946F0362E081EE92E00E9408
:101430006F0361E081E493E00E946F0362E081EA60
:1014400093E00E946F036EE681E892E00E949F03A2
:101450006EE681EE92E00E949F0364E681E493E0F1
:101460000E949F0364E681EA93E00E949F038FC07D
:10147000EBE6EE16F104E1F46FE06C0F81EE92E022
:101480000E949F036C2F81EA93E00E949F0363E018
:1014900081E892E00E946F0361E081EE92E00E9499
:1014A0006F0363E081E493E00E946F0361E057C043
:1014B000FCE6EF16F104B1F46C2F81E892E00E9493
:1014C0009F036C2F81E493E00E949F0361E081E819
:1014D00092E00E946F0363E081EE92E00E946F034E
:1014E00061E019C08DE6E816F104D9F46C2F81E8AB
:1014F00092E00E949F036C2F81E493E00E949F037F
:1015000062E081E892E00E946F0363E081EE92E086
:101510000E946F0362E081E493E00E946F0363E046
:101520001EC0EEE6EE16F104F9F46C2F81EE92E0A7
:101530000E949F036C2F81EA93E00E949F0363E067
:1015400081E892E00E946F0362E081EE92E00E94E7
:101550006F0363E081E493E00E946F0362E081EA3D
:1015600093E00E946F0313C0C1E8D2E063E0CE01B4
:101570000E946F03FE01E85BFF4F1082118212820E
:101580001382C05ADF4FF4E0C130DF0779F70E94C1
:101590005E0F00911D0210911E0220911F023091DA
:1015A0002002DC01CB01801B910BA20BB30B843614
:1015B0009105A105B10538F10E945E0F60931D02EF
:1015C00070931E0280931F029093200281E892E0A4
:1015D0000E94E90381EE92E00E94E90381E493E036
:1015E0000E94E90381EA93E00E94E9038CE894E019
:1015F0000E94EB1780911802909119020196909326
:101600001902809318028CE894E0DF91CF911F912A
:101610000F91FF90EF90DF90CF90BF90AF909F9091
:101620008F900C940E142F923F924F925F926F9274
:101630007F928F929F92AF92BF92CF92DF92EF9262
:10164000FF920F931F93CF93DF93CDB7DEB76097D1
:101650000FB6F894DEBF0FBECDBFDC01DA96BC91A9
:10166000B983B11102C0198227C1988B8F870E945C
:101670005E0F6E837F8388879987EF85F88982A1C3
:1016800093A1A4A1B5A14E815F8168857985481B8E
:10169000590B6A0B7B0B86A597A5A0A9B1A9481782
:1016A00059076A077B07F8F2248D358DD9018D9192
:1016B0009D910D90BC91A02D8A839B83AC83BD83AB
:1016C00000A0F1A1E02D9C01AD01608171818281BA
:1016D00093810E940C184B015C01EF85F88922A5CB
:1016E00033A544A555A56A817B818C819D810E948B
:1016F0000C186B017C01AF85B88950962D913D91F6
:101700004D915C915397C501B4010E94DD19EF859D
:10171000F88926A137A140A551A50E940D182B01DB
:101720003C01AF85B88996966D937D938D939C937C
:101730009997DB96BC91BA87B11118C0EF85F889EB
:101740002485358546855785C701B6010E94DD1978
:101750009B01AC01C301B2010E940C18AF85B8898E
:1017600096966D937D938D939C939997EF85F889C9
:1017700046A057A060A471A416A907A930AC21AC5B
:10178000212F302F432D522DC301B2010E94D819B1
:1017900018162CF4812F902FA32DB22D18C0AF85D1
:1017A000B889D2968D919D910D90BC91A02D8B877B
:1017B0009C87AD87BE879C01AD01C301B2010E9429
:1017C000791887FF0AC08B859C85AD85BE85EF851E
:1017D000F88986A397A3A0A7B1A7FA85FF2379F07C
:1017E000AF85B8891C962D913D914D915C911F97C5
:1017F000C501B4010E94DD194B015C0103C0812CBD
:10180000912C5401EF85F8892489358946895789B7
:10181000C701B6010E94DD199B01AC01AF85B889F3
:1018200096966D917D918D919C9199970E940C183F
:101830009B01AC01C501B4010E940D186B017C0134
:10184000212F302F432D522D0E94D8191816A4F0A5
:10185000EF85F88912A903A934A825A8212F302FD4
:10186000432D522DB601C7010E94791887FD04C08F
:101870001C2D0D2D3E2C2F2CAF85B8895E96ED9139
:10188000FC915F97812F902FA32DB22D80839183A0
:10189000A283B3838A819B81AC81BD81EF85F88966
:1018A00082A793A7A4A7B5A78E819F81A885B98594
:1018B00082A393A3A4A3B5A3898160960FB6F894DD
:1018C000DEBF0FBECDBFDF91CF911F910F91FF9073
:1018D000EF90DF90CF90BF90AF909F908F907F90D0
:1018E0006F905F904F903F902F9008952F923F926E
:1018F0004F925F926F927F928F929F92AF92BF9220
:10190000CF92DF92EF92FF920F931F93CF93DF93CB
:1019100000D01F92CDB7DEB71C0149835A836B8379
:101920007C832801390120E030E0A90169817A81B6
:101930008B819C810E94791887FD8FC020E030E068
:10194000A901C301B2010E94791887FD86C020E079
:1019500030E0A901C701B6010E94791887FD7DC05A
:10196000D1015B96BC92AE925A9781E0AA94AB28C3
:1019700009F080E0F10183AF89819A81AB81BC815C
:1019800080839183A283B383448255826682778267
:10199000C086D186E286F38666A577A580A991A93F
:1019A0000E94261920E030E04AE754E40E947E18A5
:1019B0004B015C0189819A81AB81BC81F1018487F3
:1019C0009587A687B787A5019401C301B2010E943C
:1019D000DD192B013C01D10150966D937D938D93C0
:1019E0009C935397A5019401C701B6010E947E18EC
:1019F0006B017C01F101648B758B868B978B808DDD
:101A0000918D019751F529813A814B815C8160E08C
:101A100070E0CB010E940C18D1011C966D937D9350
:101A20008D939C931F97A301920160E070E0CB011E
:101A30000E940C18F101608B718B828B938BA70134
:101A4000960160E070E0CB010E940C18D101549621
:101A50006D937D938D939C9357970F900F900F905C
:101A60000F90DF91CF911F910F91FF90EF90DF903A
:101A7000CF90BF90AF909F908F907F906F905F902E
:101A80004F903F902F900895AF92BF92CF92DF92E8
:101A9000EF92FF920F931F93FC01A28CB38C0E94D4
:101AA000760C1F910F91FF90EF90DF90CF90BF9039
:101AB000AF9008952F923F924F925F926F927F92D4
:101AC0008F929F92AF92BF92CF92DF92EF92FF924E
:101AD0000F931F93CF93DF93EC016A017B014801C1
:101AE0005901A9019801C701B6010E94D81987FFC1
:101AF0004EC0CAAADBAAECAAFDAA8EAA9FAAA8AECB
:101B0000B9AE8AAD882309F442C02E8C3F8CF10116
:101B10004080518062807380A5019401C301B201AD
:101B20000E94D819181634F4F10180829182A282A1
:101B3000B3820DC0A7019601C301B2010E947918BA
:101B400087FF05C0F101C082D182E282F3828EA0BC
:101B50009FA0A8A4B9A4CEA8DFA8E8ACF9ACA701BF
:101B60009601C501B4010E94D819181664F0CAA8DC
:101B7000DBA8ECA8FDA8A7019601C501B4010E944D
:101B8000791887FF04C0CEA2DFA2E8A6F9A6DF91EC
:101B9000CF911F910F91FF90EF90DF90CF90BF906A
:101BA000AF909F908F907F906F905F904F903F90FD
:101BB0002F9008958F929F92AF92BF92CF92DF9213
:101BC000EF92FF92CF93DF93EC01EE8DFF8DC080FB
:101BD000D180E280F380CEA2DFA2E8A6F9A6EC8D48
:101BE000FD8D80819181A281B3818AA79BA7ACA73B
:101BF000BDA78EA89FA8A8ACB9ACA5019401C70148
:101C0000B6010E94D819181664F08AA89BA8ACA83F
:101C1000BDA8A5019401C701B6010E94791887FFEC
:101C200004C08EA29FA2A8A6B9A6DF91CF91FF9073
:101C3000EF90DF90CF90BF90AF909F908F900895DE
:101C40001F93CF93DF93EC0111E06130710511F028
:101C500010E006C08AAD811103C0CE010E94DA0DEA
:101C60001AAFDF91CF911F9108950F931F93CF93D8
:101C7000DF93EC018B018AAD882361F1888D998D0A
:101C80006817790739F12C853D854E855F8560E0C1
:101C900070E0CB010E940C186C877D878E879F8730
:101CA000288939894A895B8960E070E0CB010E940C
:101CB0000C18688B798B8A8B9B8B2C893D894E897C
:101CC0005F8960E070E0CB010E940C186C8B7D8B0B
:101CD0008E8B9F8B198F088FDF91CF911F910F9162
:101CE00008954F925F926F927F928F929F92AF92E0
:101CF000BF92CF92DF92EF92FF920F931F93CF93F9
:101D0000DF9300D01F92CDB7DEB74C012701380119
:101D1000A982BA82CB82DC82FC01578F468F758FF5
:101D2000648F31A320A312AE12AA13AA14AA15AA73
:101D300080E090E0AFE7B3E486AB97ABA0AFB1AF84
:101D400084E690E0A0E0B0E086A797A7A0ABB1AB97
:101D50006E8D7F8DC4010E94350EAC8CBD8CC88CFD
:101D6000D98CEA8CFB8C09811A812B813C81B301CF
:101D7000A201C4010E94760C0E945E0FF40106A528
:101D800017A520A931A9DC01CB01801B910BA20B67
:101D9000B30B82A393A3A4A3B5A30F900F900F90AE
:101DA0000F90DF91CF911F910F91FF90EF90DF90F7
:101DB000CF90BF90AF909F908F907F906F905F90EB
:101DC0004F9008958F929F92AF92BF92CF92DF92E1
:101DD000EF92FF920F931F93CF93DF93CDB7DEB7B0
:101DE000E889F989AA89BB899C888D888F929F92FE
:101DF0001F92992493949F92BF93AF93FF93EF9375
:101E00000E94710E0FB6F894DEBF0FBECDBFDF91FA
:101E1000CF911F910F91FF90EF90DF90CF90BF90E7
:101E2000AF909F908F9008951F920F920FB60F92D0
:101E300011242F933F938F939F93AF93BF938091E0
:101E40000E0490910F04A0911004B09111043091F0
:101E50000D0423E0230F2D3720F40196A11DB11DA1
:101E600005C026E8230F0296A11DB11D20930D0485
:101E700080930E0490930F04A0931004B093110468
:101E80008091120490911304A0911404B091150450
:101E90000196A11DB11D8093120490931304A09389
:101EA0001404B0931504BF91AF919F918F913F910E
:101EB0002F910F900FBE0F901F9018952FB7F89489
:101EC00060910E0470910F048091100490911104A0
:101ED0002FBF08953FB7F894809112049091130496
:101EE000A0911404B091150426B5A89B05C02F3FFE
:101EF00019F00196A11DB11D3FBFBA2FA92F982F30
:101F00008827820F911DA11DB11DBC01CD0142E0AA
:101F1000660F771F881F991F4A95D1F70895CF92B2
:101F2000DF92EF92FF92CF93DF936B017C010E94CF
:101F30006A0FEB01C114D104E104F10479F00E94AD
:101F40006A0F6C1B7D0B683E7340A0F381E0C81ADA
:101F5000D108E108F108C851DC4FECCFDF91CF91F7
:101F6000FF90EF90DF90CF900895019739F0880FA0
:101F7000991F880F991F02970197F1F70895789498
:101F800084B5826084BD84B5816084BD85B582607E
:101F900085BD85B5816085BDEEE6F0E0808181601C
:101FA0008083E1E8F0E0108280818260808380811C
:101FB00081608083E0E8F0E0808181608083E1EBF4
:101FC000F0E0808184608083E0EBF0E080818160DC
:101FD0008083E1E9F0E0808182608083808181609C
:101FE0008083E0E9F0E0808181608083E1EAF0E0D5
:101FF000808182608083808181608083E0EAF0E07C
:10200000808181608083E1E2F1E080818260808371
:10201000808181608083E0E2F1E080818160808363
:10202000EAE7F0E080818460808380818260808341
:102030008081816080838081806880831092C1006C
:10204000089590E0FC013197E131F10508F04AC0B4
:102050008827EE58FF4F8F4F0C946C1A80918000A8
:102060008F7703C0809180008F7D809380000895DA
:1020700084B58F7702C084B58F7D84BD089580912B
:10208000B0008F7703C08091B0008F7D8093B00047
:102090000895809190008F7707C0809190008F7D88
:1020A00003C080919000877F809390000895809175
:1020B000A0008F7707C08091A0008F7D03C0809122
:1020C000A000877F8093A0000895809120018F77E2
:1020D00007C0809120018F7D03C080912001877F00
:1020E000809320010895CF93DF9390E0FC01EC5A98
:1020F000FD4F2491FC01E656FD4F8491882361F148
:1021000090E0880F991FFC01EC5EFC4FC591D491C3
:10211000FC01E650FD4FA591B491611109C09FB734
:10212000F8948881209582238883EC912E230BC01C
:10213000623061F49FB7F8943881822F80958323B1
:102140008883EC912E2B2C939FBF06C08FB7F894F9
:10215000E8812E2B28838FBFDF91CF9108951F93A5
:10216000CF93DF93282F30E0F901E25FFD4F849198
:10217000F901EC5AFD4FD491F901E656FD4FC49197
:10218000CC23C9F0162F81110E942110EC2FF0E012
:10219000EE0FFF1FE650FD4FA591B4918FB7F89455
:1021A000111105C09C91ED2FE095E92302C0EC913F
:1021B000ED2BEC938FBFDF91CF911F91089580930A
:1021C00006020895863308F0865390917B00282FED
:1021D0002870977F922B90937B0087702091060246
:1021E00090E4299F90011124822B80937C008091A0
:1021F0007A00806480937A0080917A0086FDFCCF1B
:10220000809178002091790090E0922B08951F939F
:10221000CF93DF93182FEB0161E00E94731020979A
:1022200011F460E004C0CF3FD10539F461E0812FA3
:10223000DF91CF911F910C94AF10E12FF0E0E25F9E
:10224000FD4FE4914E2F50E0FA013197E131F10555
:1022500008F093C08827ED57FF4F8F4F0C946C1AEE
:1022600084B5806884BDC7BD8DC084B5806284BDDF
:10227000C8BD88C080918000806880938000D09322
:102280008900C09388007EC0809180008062809326
:102290008000D0938B00C0938A0074C08091B000FE
:1022A00080688093B000C093B3006CC08091B00090
:1022B00080628093B000C093B40064C080919000AD
:1022C000806880939000D0939900C09398005AC082
:1022D00080919000806280939000D0939B00C09387
:1022E0009A0050C080919000886080939000D093B5
:1022F0009D00C0939C0046C08091A00080688093A0
:10230000A0008091A0008F7B8093A000D093A900B3
:10231000C093A80037C08091A00080628093A00085
:10232000D093AB00C093AA002DC08091A00088601C
:102330008093A000D093AD00C093AC0023C08091E7
:102340002001806880932001D0932901C093280147
:1023500019C080912001806280932001D0932B01CD
:10236000C0932A010FC080912001886080932001D2
:10237000D0932D01C0932C0105C0C038D1050CF0BD
:1023800055CF4FCFDF91CF911F910895883008F03E
:1023900070C0A82FB0E0AA0FBB1FAA5EBB4F11965A
:1023A0007C936E9390E0FC013197E730F105A0F546
:1023B0008827EC56FF4F8F4F0C946C1A8091690060
:1023C0008C7F482B40936900E89A089580916900BA
:1023D000440F551F440F551F837F482B40936900BE
:1023E000E99A08958091690074E0440F551F7A9529
:1023F000E1F78F7C482B40936900EA9A0895809119
:10240000690066E0440F551F6A95E1F78F73482B0A
:1024100040936900EB9A089580916A008C7F482B65
:1024200040936A00EC9A089580916A00440F551F0A
:10243000440F551F837F482B40936A00ED9A0895FF
:1024400080916A0024E0440F551F2A95E1F78F7CA4
:10245000482B40936A00EE9A089580916A0096E0B6
:10246000440F551F9A95E1F78F73482B40936A00EC
:10247000EF9A08951F920F920FB60F9211240BB688
:102480000F922F933F934F935F936F937F938F930D
:102490009F93AF93BF93EF93FF9380911A04909112
:1024A0001B04892B29F0E0911A04F0911B04199563
:1024B000FF91EF91BF91AF919F918F917F916F911C
:1024C0005F914F913F912F910F900BBE0F900FBED8
:1024D0000F901F9018951F920F920FB60F92112414
:1024E0000BB60F922F933F934F935F936F937F930E
:1024F0008F939F93AF93BF93EF93FF9380911C04AF
:1025000090911D04892B29F0E0911C04F0911D0489
:102510001995FF91EF91BF91AF919F918F917F910D
:102520006F915F914F913F912F910F900BBE0F9044
:102530000FBE0F901F9018951F920F920FB60F921B
:1025400011240BB60F922F933F934F935F936F938A
:102550007F938F939F93AF93BF93EF93FF9380915C
:102560001E0490911F04892B29F0E0911E04F09124
:102570001F041995FF91EF91BF91AF919F918F919A
:102580007F916F915F914F913F912F910F900BBE73
:102590000F900FBE0F901F9018951F920F920FB6BD
:1025A0000F9211240BB60F922F933F934F935F938B
:1025B0006F937F938F939F93AF93BF93EF93FF930B
:1025C0008091200490912104892B29F0E09120042E
:1025D000F09121041995FF91EF91BF91AF919F91D7
:1025E0008F917F916F915F914F913F912F910F90BC
:1025F0000BBE0F900FBE0F901F9018951F920F9259
:102600000FB60F9211240BB60F922F933F934F9357
:102610005F936F937F938F939F93AF93BF93EF934A
:10262000FF938091160490911704892B29F0E09173
:102630001604F09117041995FF91EF91BF91AF9196
:102640009F918F917F916F915F914F913F912F91CA
:102650000F900BBE0F900FBE0F901F9018951F92FA
:102660000F920FB60F9211240BB60F922F933F9338
:102670004F935F936F937F938F939F93AF93BF938A
:10268000EF93FF938091180490911904892B29F0FE
:10269000E0911804F09119041995FF91EF91BF9101
:1026A000AF919F918F917F916F915F914F913F91EA
:1026B0002F910F900BBE0F900FBE0F901F9018958B
:1026C0001F920F920FB60F9211240BB60F922F93F9
:1026D0003F934F935F936F937F938F939F93AF93AA
:1026E000BF93EF93FF938091220490912304892B51
:1026F00029F0E0912204F09123041995FF91EF91C4
:10270000BF91AF919F918F917F916F915F914F9109
:102710003F912F910F900BBE0F900FBE0F901F9007
:1027200018951F920F920FB60F9211240BB60F92AD
:102730002F933F934F935F936F937F938F939F93C9
:10274000AF93BF93EF93FF9380912404909125045E
:10275000892B29F0E0912404F09125041995FF912B
:10276000EF91BF91AF919F918F917F916F915F9109
:102770004F913F912F910F900BBE0F900FBE0F9076
:102780001F901895FC0124853585F901E05CFF4F09
:1027900080819181329620813181821B930B8F73CE
:1027A00099270895DC011C96ED91FC911D97DF019E
:1027B000A05CBF4F2D913C91119712968D919C91E9
:1027C00011972817390739F08D919C91E80FF91F5F
:1027D000808190E008958FEF9FEF0895FC01A4851C
:1027E000B585FD01E05CFF4F20813181329680810B
:1027F00091812817390779F080819181A80FB91F3D
:102800008C91208131812F5F3F4F2F73332731838C
:10281000208390E008958FEF9FEF0895FC0181A140
:10282000882329F0A489B5898C9186FFFBCF11A25A
:1028300008950F931F93CF93DF93FC01A685B7856F
:102840008D01005C1F4FE8018881998101968F738B
:102850009927AD014E5B5F4FEA01288139818217CC
:102860009307D1F3E80128813981A20FB31F6C933C
:10287000A685B785A05CBF4F11969C938E93A689C1
:10288000B7892C9181E090E0078C02C0880F991FD6
:102890000A94E2F7822B8C9381E081A30488F58966
:1028A000E02D80818064808381E090E0DF91CF9192
:1028B0001F910F910895FB01E05CFF4F2081318152
:1028C0002F5F3F4F2F733327DB01AE5BBF4F4D911F
:1028D0005C912417350741F040815181DB01A40F41
:1028E000B51F8C9331832083089508951F920F9212
:1028F0000FB60F9211240BB60F922F933F934F9365
:102900005F936F937F938F939F93AF93BF93EF9357
:10291000FF938091C00082FD07C08091C6006AE8E5
:1029200076E00E945B1402C08091C600FF91EF9197
:10293000BF91AF919F918F917F916F915F914F91D7
:102940003F912F910F900BBE0F900FBE0F901F90D5
:10295000189508951F920F920FB60F9211240BB67F
:102960000F922F933F934F935F936F937F938F9328
:102970009F93AF93BF93EF93FF938091C80082FD25
:1029800007C08091CE0062E076E00E945B1402C036
:102990008091CE00FF91EF91BF91AF919F918F9168
:1029A0007F916F915F914F913F912F910F900BBE4F
:1029B0000F900FBE0F901F90189508951F920F92C1
:1029C0000FB60F9211240BB60F922F933F934F9394
:1029D0005F936F937F938F939F93AF93BF93EF9387
:1029E000FF938091D00082FD07C08091D6006AE7F6
:1029F00075E00E945B1402C08091D600FF91EF91B8
:102A0000BF91AF919F918F917F916F915F914F9106
:102A10003F912F910F900BBE0F900FBE0F901F9004
:102A2000189508951F920F920FB60F9211240BB6AE
:102A30000F922F933F934F935F936F937F938F9357
:102A40009F93AF93BF93EF93FF938091300182FDEB
:102A500007C08091360162EF74E00E945B1402C0EF
:102A600080913601FF91EF91BF91AF919F918F912E
:102A70007F916F915F914F913F912F910F900BBE7E
:102A80000F900FBE0F901F9018958CE894E00E9455
:102A9000C213892B11F00E9475148AE694E00E94FB
:102AA000C213892B11F00E94A91488E494E00E94BB
:102AB000C213892B11F00E94DD1486E294E00E947B
:102AC000C213892B11F00C94111508951F920F92C7
:102AD0000FB60F9211240BB60F922F933F938F9343
:102AE0009F93EF93FF932091860630918706809104
:102AF0008806909189062817390731F48091C10022
:102B00008F7D8093C10014C0E0918806F091890602
:102B1000EA5BF94F208180918806909189060196A1
:102B20008F73992790938906809388062093C60017
:102B3000FF91EF919F918F913F912F910F900BBE3D
:102B40000F900FBE0F901F9018951F920F920FB607
:102B50000F9211240BB60F922F933F938F939F9355
:102B6000EF93FF932091FE053091FF0580910006C1
:102B7000909101062817390731F48091C9008F7DA3
:102B80008093C90014C0E0910006F0910106E25460
:102B9000FA4F2081809100069091010601968F7373
:102BA000992790930106809300062093CE00FF9111
:102BB000EF919F918F913F912F910F900BBE0F90AE
:102BC0000FBE0F901F9018951F920F920FB60F9285
:102BD00011240BB60F922F933F938F939F93EF93F4
:102BE000FF9320917605309177058091780590913B
:102BF00079052817390731F48091D1008F7D8093B2
:102C0000D10014C0E0917805F0917905EA5CFA4FA3
:102C10002081809178059091790501968F7399278D
:102C200090937905809378052093D600FF91EF91DA
:102C30009F918F913F912F910F900BBE0F900FBEE0
:102C40000F901F9018951F920F920FB60F9211249C
:102C50000BB60F922F933F938F939F93EF93FF9316
:102C60002091EE043091EF048091F0049091F104F2
:102C70002817390731F4809131018F7D809331011C
:102C800014C0E091F004F091F104E255FB4F208173
:102C90008091F0049091F10401968F73992790939D
:102CA000F1048093F00420933601FF91EF919F91FE
:102CB0008F913F912F910F900BBE0F900FBE0F90F1
:102CC0001F901895CF92DF92EF92FF920F931F9370
:102CD000CF93DF93EC016A017B014115514E6105F1
:102CE000710509F1EC89FD8981E090E008A002C03E
:102CF000880F991F0A94E2F7808360E079E08DE302
:102D000090E0A70196010E944A1A89019A01015098
:102D100011092109310936952795179507959801CD
:102D200001151041A8F0EC89FD89108260E874E873
:102D30008EE190E0A70196010E944A1ADA01C901CA
:102D40000197A109B109B695A795979587959C011B
:102D5000E889F9893083EA89FB89208319A2EE8901
:102D6000FF89408181E090E09C010C8C02C0220F21
:102D7000331F0A94E2F7242B2083EE89FF894081D8
:102D80009C010D8C02C0220F331F0A94E2F7242B02
:102D90002083EE89FF8940819C010E8C02C0220FA6
:102DA000331F0A94E2F7242B2083EE89FF892081C8
:102DB0000F8C02C0880F991F0A94E2F78095822336
:102DC0008083DF91CF911F910F91FF90EF90DF9063
:102DD000CF900895CF92DF92EF92FF92ECE8F4E06B
:102DE0001382128288EEC82E83E0D82EE12CF12CBB
:102DF000C482D582E682F7826BE072E071836083E1
:102E00008AE896E09587848786E496E097878687A8
:102E100085EC90E0918B808B84EC90E0938B828B9F
:102E200080EC90E0958B848B81EC90E0978B868B87
:102E300082EC90E0918F808F86EC90E0938F828F70
:102E400044E0448F33E0358F27E0268F95E0978F5D
:102E500081E080A3EAE6F4E013821282C482D58284
:102E6000E682F78271836083A2E0B6E0B587A4872B
:102E7000AEEBB5E0B787A687ADECB0E0B18BA08B29
:102E8000ACECB0E0B38BA28BA8ECB0E0B58BA48B1C
:102E9000A9ECB0E0B78BA68BAAECB0E0B18FA08F05
:102EA000AEECB0E0B38FA28F448F358F268F978F13
:102EB00080A3E8E4F4E013821282C482D582E68221
:102EC000F78271836083AAE7B5E0B587A487A6E39C
:102ED000B5E0B787A687A5EDB0E0B18BA08BA4EDD8
:102EE000B0E0B38BA28BA0EDB0E0B58BA48BA1EDCD
:102EF000B0E0B78BA68BA2EDB0E0B18FA08FA6EDAE
:102F0000B0E0B38FA28F448F358F268F978F80A329
:102F1000E6E2F4E013821282C482D582E682F7826E
:102F20007183608362EF74E0758764876EEA74E092
:102F30007787668765E371E0718B608B64E371E08E
:102F4000738B628B60E371E0758B648B61E371E07E
:102F5000778B668B62E371E0718F608F66E371E05F
:102F6000738F628F448F358F268F978F80A3FF904A
:102F7000EF90DF90CF900895CF92DF92EF92FF9283
:102F80000F931F93CF93DF936C01EB017B01E40E52
:102F9000F51E00E010E0CE15DF0561F06991D60165
:102FA000ED91FC910190F081E02DC6011995080F7B
:102FB000191FF1CFC801DF91CF911F910F91FF90A1
:102FC000EF90DF90CF900895DC01ED91FC9101909E
:102FD000F081E02D19940F931F93CF93DF93EC01B1
:102FE0006DE00E94E4178C016AE0CE010E94E417B4
:102FF000800F911FDF91CF911F910F9108950E9433
:10300000BF0F0E948204C5E4D5E10E9414052097F9
:10301000E1F30E944515F9CF5058BB27AA270E941B
:1030200024180C949E190E94901938F00E94971948
:1030300020F039F49F3F19F426F40C948D190EF406
:10304000E095E7FB0C948719E92F0E94AF1958F31C
:10305000BA17620773078407950720F079F4A6F57D
:103060000C94D1190EF4E0950B2EBA2FA02D0B0164
:10307000B90190010C01CA01A0011124FF27591BBD
:1030800099F0593F50F4503E68F11A16F040A22FC3
:10309000232F342F4427585FF3CF46953795279534
:1030A000A795F0405395C9F77EF41F16BA0B620B33
:1030B000730B840BBAF09150A1F0FF0FBB1F661F7A
:1030C000771F881FC2F70EC0BA0F621F731F841FBD
:1030D00048F4879577956795B795F7959E3F08F0E3
:1030E000B0CF9395880F08F09927EE0F97958795A5
:1030F00008950E94631908F481E008950E949218CF
:103100000C949E190E94971958F00E94901940F053
:1031100029F45F3F29F00C94871951110C94D219AE
:103120000C948D190E94AF1968F39923B1F35523BC
:1031300091F3951B550BBB27AA27621773078407CA
:1031400038F09F5F5F4F220F331F441FAA1FA9F360
:1031500035D00E2E3AF0E0E832D091505040E6954E
:10316000001CCAF72BD0FE2F29D0660F771F881FAF
:10317000BB1F261737074807AB07B0E809F0BB0BA2
:10318000802DBF01FF2793585F4F3AF09E3F5105B6
:1031900078F00C9487190C94D2195F3FE4F3983EB1
:1031A000D4F3869577956795B795F7959F5FC9F79F
:1031B000880F911D9695879597F90895E1E0660F20
:1031C000771F881FBB1F621773078407BA0720F099
:1031D000621B730B840BBA0BEE1F88F7E095089502
:1031E0000E94F7186894B1110C94D21908950E94A6
:1031F000B71988F09F5798F0B92F9927B751B0F0B9
:10320000E1F0660F771F881F991F1AF0BA95C9F76A
:1032100014C0B13091F00E94D119B1E008950C941E
:10322000D119672F782F8827B85F39F0B93FCCF3D1
:10323000869577956795B395D9F73EF490958095E7
:10324000709561957F4F8F4F9F4F0895E89409C007
:1032500097FB3EF490958095709561957F4F8F4FC9
:103260009F4F9923A9F0F92F96E9BB279395F695DF
:10327000879577956795B795F111F8CFFAF4BB0F5D
:1032800011F460FF1BC06F5F7F4F8F4F9F4F16C0C1
:10329000882311F096E911C0772321F09EE8872F4B
:1032A000762F05C0662371F096E8862F70E060E007
:1032B0002AF09A95660F771F881FDAF7880F969580
:1032C000879597F90895990F0008550FAA0BE0E824
:1032D000FEEF16161706E807F907C0F012161306D8
:1032E000E407F50798F0621B730B840B950B39F418
:1032F0000A2661F0232B242B252B21F408950A267E
:1033000009F4A140A6958FEF811D811D089597F9BD
:103310009F6780E870E060E008959FEF80EC08957B
:1033200000240A94161617061806090608950024A4
:103330000A9412161306140605060895092E03941E
:10334000000C11F4882352F0BB0F40F4BF2B11F492
:1033500060FF04C06F5F7F4F8F4F9F4F089557FDF1
:103360009058440F551F59F05F3F71F04795880FF3
:1033700097FB991F61F09F3F79F08795089512168A
:1033800013061406551FF2CF4695F1DF08C0161636
:1033900017061806991FF1CF8695710561050894E7
:1033A0000895E894BB2766277727CB0197F90895FE
:1033B0000E94631908F48FEF08950E94F0190C948D
:1033C0009E190E94901938F00E94971920F09523B9
:1033D00011F00C9487190C948D1911240C94D219A6
:1033E0000E94AF1970F3959FC1F3950F50E0551FE0
:1033F000629FF001729FBB27F00DB11D639FAA274A
:10340000F00DB11DAA1F649F6627B00DA11D661F98
:10341000829F2227B00DA11D621F739FB00DA11DB9
:10342000621F839FA00D611D221F749F3327A00D73
:10343000611D231F849F600D211D822F762F6A2F0F
:1034400011249F5750409AF0F1F088234AF0EE0F74
:10345000FF1FBB1F661F771F881F91505040A9F7A1
:103460009E3F510580F00C9487190C94D2195F3F50
:10347000E4F3983ED4F3869577956795B795F795DD
:10348000E7959F5FC1F7FE2B880F911D9695879555
:1034900097F90895A1E21A2EAA1BBB1BFD010DC0CE
:1034A000AA1FBB1FEE1FFF1FA217B307E407F507F4
:1034B00020F0A21BB30BE40BF50B661F771F881FD0
:1034C000991F1A9469F760957095809590959B0166
:1034D000AC01BD01CF010895EE0FFF1F881F8BBF08
:1034E0000790F691E02D19940E947F1AA59F900DE8
:1034F000B49F900DA49F800D911D11240895A29F4B
:10350000B001B39FC001A39F700D811D1124911DB7
:10351000B29F700D811D1124911D0895F894FFCF65
:1035200006002900280001000000001914BC17C281
:0835300013EE13D2130E140078
:00000001FF
