:100000000C9499010C94E2100C9413110C9444116B
:100010000C9475110C94A6110C94D7110C94081221
:100020000C9439120C94CA010C94CA010C94CA01A4
:100030000C94CA010C94CA010C94CA010C94CA0114
:100040000C94CA010C94CA010C94CA010C94CA0104
:100050000C94CA010C94CA010C94CA010C942F0E82
:100060000C94CA010C941E130C940E140C94CA0127
:100070000C94CA010C94CA010C94CA010C94CA01D4
:100080000C94CA010C94CA010C94CA010C94CA01C4
:100090000C9452130C944D140C94CA010C94CA0184
:1000A0000C94CA010C94CA010C94CA010C94CA01A4
:1000B0000C94CA010C94CA010C94CA010C94CA0194
:1000C0000C94CA010C94CA010C94CA010C948613B6
:1000D0000C948C140C94CA010C94BA130C94CB1489
:1000E0000C94CA01080F0B0FFE0E020F420F0F0FE8
:1000F000130F190F1D0F210F270F2B0F2F0F420F5B
:10010000350F390F3D0FD80FDD0FE20FEC0F6510E3
:10011000F60FFE0F061010101A10241033103D10A9
:100120006510471051105B10BC1086108E109A108D
:10013000A710C810D5100C94190F0C9492150C949C
:1001400026020C94BC100C949A100C94D80F0C94AA
:10015000C8100C9464160C940F0F0C9410100C948F
:100160001A020C94EC0F0C94C1120C946A120C94A9
:100170000E020C94210F0C94ED130C9451100C945E
:100180002F0F0C9424100C94B6120C94FE0F0C94A8
:1001900065100C943D0F0C94F60F0C94DD0F0C942D
:1001A000020F0C943D100C94130F0C94420F0C94FE
:1001B000D5100C94270F0C9406100C9433100C944B
:1001C0000B0F0C9420020C948E100C94350F0C9491
:1001D0001A100C947A120C94FE040C942B0F0C94AD
:1001E0005B100C942C020C94390F0C94FE0E0C94A2
:1001F00086100C9496120C94080F0C9447100C94D3
:10020000E20F0C9414020C94A7100C941D0F000024
:10021000090A02080B0C0D07060304010000000088
:1002200000000000000000000000000000000000CE
:100230000000000000000000000011100F0000008E
:1002400000000000000000000000000000000000AE
:10025000000000000102102020080810204010209B
:10026000408002010201080402010102040810207A
:100270004080804020100804020180040201804078
:1002800020100804020108040201010204081020E1
:10029000408001020408102040800505050507057F
:1002A00008080808020202020A0A080804040404F2
:1002B000010101010101010103030303030303031E
:1002C000040707070C0C0C0C0C0C0C0C02020202AD
:1002D00006060606060606060B0B0B0B0B0B0B0B96
:1002E000000020002300260029002C002F003200EF
:1002F00000010000030106010901000022002500A1
:1003000028002B002E0031003400020100000501FE
:1003100008010B0100002100240027002A002D0005
:100320003000330001010000040107010A01FE044E
:10033000921511241FBECFEFD1E2DEBFCDBF00E08A
:100340000CBF12E0A0E0B2E0E6EBF5E300E00BBF8B
:1003500002C007900D92A034B107D9F726E0A0E4BF
:10036000B2E001C01D92AB3FB207E1F711E0C9E96D
:10037000D1E000E006C021970109802FFE010E9414
:10038000B71AC739D10780E00807A9F70E944518B6
:100390000C94D91A0C940000DC01ED91FD91808140
:1003A000ED91FD919081ED91FD916C9163708E23A3
:1003B00009F064609F2309F06860E9EEF1E0E60F60
:1003C000F11D659565956D936D917D918D919D91D3
:1003D000099423C01AC012C016C010C01EC009C0A4
:1003E00014C013C006C019C009C00DC007C00DC09D
:1003F00014C062507040804090400BC0615070400B
:100400008040904006C06E5F01C06F5F7F4F8F4F8E
:100410009F4F9E938E937E936E93089580913804A0
:10042000909139040C94CC0180913604909137045A
:100430000C94CC0180913404909135040C94CC013F
:1004400080913204909133040C94CC01809130045B
:10045000909131040C94CC0180912E0490912F0442
:100460000C94CC01823109F440C078F48230E1F080
:10047000833009F044C0709331046093300441E04C
:1004800050E066E272E081E02CC08431B9F000F106
:100490008531A9F5709333046093320441E050E054
:1004A00060E272E082E01DC070932F0460932E041E
:1004B00041E050E06CE272E080E013C070933504DC
:1004C0006093340441E050E06AE172E083E009C0E7
:1004D000709337046093360441E050E064E172E0C9
:1004E00084E00E946E1081E0089570933904609357
:1004F000380441E050E06EE072E085E0F2CF80E049
:1005000008953F924F925F926F927F928F929F9247
:10051000AF92BF92CF92DF92EF92FF920F931F9311
:10052000CF93DF93EC01562E442E322E62E0802FC3
:100530000E94430F62E08E2D0E94430F802F90E0B7
:10054000FC01E656FD4FE491F0E0EE0FFF1FE05294
:10055000FD4F2591349139832883FC01EC5AFD4FDE
:10056000E491EC832E2D30E0F901E656FD4FE49145
:10057000F0E0EE0FFF1FE052FD4F859194919B83B9
:100580008A83F901EC5AFD4FE491ED831F821886AE
:1005900019861A8680ED97E00E94850EE881F98120
:1005A00090818C81982381E009F480E0EA81FB81CD
:1005B00020819D81922309F082608E83BE01802F6D
:1005C0000E9432028B87BE018E2D0E9432022B8543
:1005D00090E0820F911D8B874E018CE0880E911C5C
:1005E0003E0198E4690E711CAE014C5A5F4FBE018A
:1005F000605B7F4F1F921F928DE38F938FE08F93ED
:100600008CE58F9389E28F938AE9A82E89E9B82E29
:10061000CB2C8DE3D82E1AE9E12E19E9F12E09E948
:100620001EE39301C4010E94FD0D5E01ECE4AE0ED9
:10063000B11C8FEFF50180836E01FDE4CF0ED11C5C
:10064000F60180837E01FEE4EF0EF11CF70180834A
:10065000C45ADF4F188219821A821B82F30110825A
:1006600011821282138261E070E0C4010E943B0D8E
:1006700000E010E02FE733E440E050E06FE773EC78
:10068000C4010E94750CF5015082F6014082F70109
:10069000308261E0852D0E94430F61E0F601808188
:1006A0000E94430F0F900F900F900F900F900F909C
:1006B00061E0F7018081DF91CF911F910F91FF9051
:1006C000EF90DF90CF90BF90AF909F908F907F90F2
:1006D0006F905F904F903F900C94430FCF93DF93B8
:1006E000EC01613051F4FC01E35BFF4F60E080817D
:1006F0000E947F0FC25BDF4F0BC0623059F4FC01D8
:10070000E25BFF4F60E080810E947F0FC35BDF4FA1
:1007100061E00CC0633079F4FC01E35BFF4F60E003
:1007200080810E947F0FC25BDF4F60E08881DF9194
:10073000CF910C947F0FDF91CF91089570E0FC0171
:10074000E45BFF4F80810C94AF0F8F929F92AF922A
:10075000BF92CF92DF92EF92FF92CF93DF934A0145
:100760005B01EC01C45ADF4F88819981AA81BB816A
:100770009A01AB01281B390B4A0B5B0BA8E5B2E0D1
:100780000E94BF1A0E946E1920E030E040EF54E44E
:100790000E94C4186B017C0188829982AA82BB8264
:1007A00020E030E0A9010E941E1A181624F0C701AB
:1007B000B601905802C0C701B601DF91CF91FF90FA
:1007C000EF90DF90CF90BF90AF909F908F90089563
:1007D000AF92BF92CF92DF92EF92FF920F931F934F
:1007E000CF93DF93EC018B85823028F4F894CE010F
:1007F0000E94CC0101C0F8943F81288599858A85A3
:100800007894FE01E85AFF4F3083218392838383DB
:10081000432F522F692F782F77FF07C0709560956F
:10082000509541955F4F6F4F7F4FCE010E94A503BA
:100830005E0120E5A20EB11CF50160837183828305
:100840009383CE010C960E94440AFE01E45BFF4FA5
:1008500080819E01285B3F4F790138966F018E01A0
:10086000015B1F4F883009F059C060E072E089EBEE
:1008700094E00E94A116F701408151816281738149
:1008800022E030E089EB94E00E9443186AE072E0D5
:1008900089EB94E00E94A1166DE072E089EB94E090
:1008A0000E94A116F501408151816281738122E08D
:1008B00030E089EB94E00E9443186AE072E089EB33
:1008C00094E00E94A11664E172E089EB94E00E943A
:1008D000A116F601408151816281738122E030E0EE
:1008E00089EB94E00E9443186AE072E089EB94E09F
:1008F0000E94A1166CE172E089EB94E00E94A116BF
:100900004AE050E0F801608189EB94E00E945717BB
:100910006AE072E089EB94E00E94A116F801608120
:1009200070E080E090E00E946E19F6012081318134
:10093000428153810E9453180E94361977FD07C0E7
:100940006F3F710529F024F06FEF70E001C060E0A7
:10095000F801608320E030E0A901F7016081718136
:10096000828193810E94BF18811102C0F801108218
:10097000F8016081CE01DF91CF911F910F91FF901F
:10098000EF90DF90CF90BF90AF900C949E03CF93E9
:10099000DF93EC018B85823028F4F894CE010E941D
:1009A000CC0101C0F8946F81788589859A85789407
:1009B000C85ADF4F688379838A839B83DF91CF9105
:1009C0000895CF93DF9340E855E260E070E089EB53
:1009D00094E00E940A151092460210924702CEEA55
:1009E000D2E063E0CE010E946E03C05ADF4F84E084
:1009F000CE32D807B1F7DF91CF910895EF920F93E0
:100A000084E3E82E04E12AE14BE16AE08EEA92E019
:100A10000E94810295E3E92E05E12CE14DE16BE0B6
:100A20008EE093E00E94810223E3E22E03E126E1BF
:100A300047E168E08EE693E00E94810232E3E32E14
:100A400002E128E149E169E08EEC93E00E94810235
:100A500043E0E42E02E029E248E265E08CE492E023
:100A60000E9481020F91EF900895CF92DF92EF9252
:100A7000FF92CF93DF930E94790EC0904802D090EE
:100A80004902E0904A02F0904B02DC01CB018C1944
:100A90009D09AE09BF0984369105A105B10508F489
:100AA000ECC40E94790E60934802709349028093CF
:100AB0004A0290934B028091AC029091AD02019654
:100AC0009093AD028093AC02843191051CF484E0D4
:100AD00090E011C08E3191054CF4109243021092B7
:100AE000420210924102109240022EC082339105C0
:100AF0004CF483E090E0909343028093420280E5BF
:100B000090E019C08C33910544F3803591052CF4A5
:100B10001092AD021092AC0217C08A359105ECF22A
:100B20008E3691056CF48EE090E0909343028093B2
:100B3000420282E390E0909341028093400204C01D
:100B40008837910554F2E4CF80914202909143029C
:100B50000097A1F4CEEAD2E063E0CE010E946E03DA
:100B6000FE01E85BFF4F1082118212821382C05A8D
:100B7000DF4F84E0CE32D80779F75CC4813091052D
:100B800001F5CEEAD2E061E0CE010E946E037E0163
:100B9000E8E4EE0EF11C6091400270914102072ED4
:100BA000000C880B990B0E946E19F701608371830A
:100BB00082839383C05ADF4FF4E0CE32DF0719F708
:100BC00039C48230910501F5CEEAD2E062E0CE016F
:100BD0000E946E037E0188E4E80EF11C60914002E1
:100BE00070914102072E000C880B990B0E946E1920
:100BF000F7016083718382839383C05ADF4FF4E0EF
:100C0000CE32DF0719F716C48330910589F462E00C
:100C10008EEA92E00E946E0361E08EE093E00E9413
:100C20006E0362E08EE693E00E946E0361E013C003
:100C300084309105B9F561E08EEA92E00E946E037E
:100C400062E08EE093E00E946E0361E08EE693E046
:100C50000E946E0362E08EEC93E00E946E0360914E
:100C6000400270914102072E000C880B990B0E94E4
:100C70006E196093560370935703809358039093B3
:100C8000590360931604709317048093180490938B
:100C900019046093F6027093F7028093F802909320
:100CA000F9022AC38530910589F462E08EEA92E068
:100CB0000E946E0361E08EE093E00E946E0361E0AB
:100CC0008EE693E00E946E0362E014C086309105C8
:100CD00009F03FC061E08EEA92E00E946E0362E09C
:100CE0008EE093E00E946E0362E08EE693E00E9445
:100CF0006E0361E08EEC93E00E946E03609140020F
:100D000070914102072E000C880B990B0E946E19FE
:100D10006093F6027093F7028093F8029093F902C1
:100D2000609356037093570380935803909359032D
:100D30006093B6037093B7038093B8039093B9039D
:100D40006093160470931704809318049093190409
:100D500071C38730910589F51092F6021092F7025F
:100D60001092F8021092F9026091400270914102D3
:100D7000072E000C880B990B0E946E196093560386
:100D80007093570380935803909359031092B603BE
:100D90001092B7031092B8031092B903609316042F
:100DA00070931704809318049093190463E08EEAFB
:100DB00092E00E946E0361E012C18830910589F5CE
:100DC0006091400270914102072E000C880B990B34
:100DD0000E946E196093F6027093F7028093F802F6
:100DE0009093F902109256031092570310925803F1
:100DF000109259036093B6037093B7038093B803BE
:100E00009093B903109216041092170410921804CC
:100E10001092190461E08EEA92E00E946E0363E092
:100E2000A5C089309105D9F56091400270914102C9
:100E3000072E000C880B990B0E946E196093F60226
:100E40007093F7028093F8029093F9021092560380
:100E50001092570310925803109259036093B603EF
:100E60007093B7038093B8039093B903109216045C
:100E700010921704109218041092190462E08EEA7E
:100E800092E00E946E0363E08EE093E00E946E03A6
:100E900062E08EE693E00E946E0363E0FBC18A305D
:100EA000910589F51092F6021092F7021092F8025D
:100EB0001092F9026091400270914102072E000CDD
:100EC000880B990B0E946E19609356037093570319
:100ED00080935803909359031092B6031092B7036E
:100EE0001092B8031092B90360931604709317041C
:100EF000809318049093190463E08EEA92E00E94B4
:100F00006E0362E0D9C08B309105B1F51092F60204
:100F10001092F7021092F8021092F90260914002CA
:100F200070914102072E000C880B990B0E946E19DC
:100F3000609356037093570380935803909359031B
:100F40006093B6037093B7038093B8039093B9038B
:100F5000109216041092170410921804109219049B
:100F600063E08EEA92E00E946E0361E08EE093E01F
:100F70000E946E0361E08DCF8C309105B1F56091D8
:100F8000400270914102072E000C880B990B0E94C1
:100F90006E196093F6027093F7028093F8029093B3
:100FA000F9021092560310925703109258031092B0
:100FB00059031092B6031092B7031092B80310921F
:100FC000B9036093160470931704809318049093E8
:100FD000190461E08EEA92E00E946E0363E08EE005
:100FE00093E00E946E0363E050C18D30910589F556
:100FF0001092F6021092F7021092F8021092F90283
:101000006091400270914102072E000C880B990BF1
:101010000E946E1960935603709357038093580390
:10102000909359036093B6037093B7038093B8030A
:101030009093B9031092160410921704109218049A
:101040001092190463E08EEA92E00E946E0362E05F
:101050001BCF8E309105B1F5609140027091410235
:10106000072E000C880B990B0E946E196093F602F4
:101070007093F7028093F8029093F902109256034E
:101080001092570310925803109259031092B6030E
:101090001092B7031092B8031092B903609316042C
:1010A00070931704809318049093190462E08EEAF9
:1010B00092E00E946E0363E08EE093E00E946E0374
:1010C00063E0A5C08F30910589F560914002709171
:1010D0004102072E000C880B990B0E946E19609339
:1010E000F6027093F7028093F8029093F9026093EE
:1010F00056037093570380935803909359031092AB
:10110000B6031092B7031092B8031092B90310926D
:10111000160410921704109218041092190462E039
:101120008EEA92E00E946E0361E033C08031910547
:10113000B1F56091400270914102072E000C880BBE
:10114000990B0E946E196093F6027093F7028093D8
:10115000F8029093F90260935603709357038093BB
:101160005803909359031092B6031092B70310924C
:10117000B8031092B903109216041092170410923B
:1011800018041092190461E08EEA92E00E946E0346
:1011900062E08EE093E00E946E0363E07ACE8131DC
:1011A0009105D9F51092F6021092F7021092F8020A
:1011B0001092F9021092560310925703109258039E
:1011C000109259036091400270914102072E000C69
:1011D000880B990B0E946E196093B6037093B70346
:1011E0008093B8039093B903609316047093170427
:1011F000809318049093190463E08EEA92E00E94B1
:101200006E0363E08EE093E00E946E0361E08EE681
:1012100093E00E946E0362E03DC082319105E9F5E2
:101220001092F6021092F7021092F8021092F90250
:1012300010925603109257031092580310925903BC
:101240006091400270914102072E000C880B990BAF
:101250000E946E196093B6037093B7038093B8032E
:101260009093B90360931604709317048093180445
:101270009093190463E08EEA92E00E946E0363E0AB
:101280008EE093E00E946E0362E08EE693E00E949F
:101290006E0361E08EEC93E095C083319105A9F572
:1012A0006091400270914102072E000C880B990B4F
:1012B0000E946E196B017C019B01AC016091560389
:1012C0007091570380915803909159030E945318CD
:1012D0006093560370935703809358039093590378
:1012E000A70196016091B6037091B7038091B8038E
:1012F0009091B9030E9453186093B6037093B7039B
:101300008093B8039093B90395C084319105A9F5F2
:101310006091400270914102072E000C880B990BDE
:101320000E946E196B017C019B01AC016091F60279
:101330007091F7028091F8029091F9020E9453187F
:101340006093F6027093F7028093F8029093F9028B
:10135000A7019601609176047091770480917804DA
:10136000909179040E9453186093760470937704E7
:1013700080937804909379045DC08531910529F5B7
:101380008CE492E00E94C7046B017C0168E28CE46B
:1013900092E00E949E0361E08CE492E00E946E0362
:1013A0008FE7C81A85E2D80AE108F1088CE492E0D8
:1013B0000E94C7046C157D058E059F05BCF763E090
:1013C0008CE492E00E946E0335C0469701F58CE4F0
:1013D00092E00E94C7046B017C0168E28CE492E019
:1013E0000E949E0362E08CE492E00E946E03EFE7AD
:1013F000CE0EE5E2DE1EE11CF11C8CE492E00E94C0
:10140000C704C616D706E806F906BCF7D8CFCEEA59
:10141000D2E063E0CE010E946E03FE01E85BFF4F65
:101420001082118212821382C05ADF4FF4E0CE3252
:10143000DF0779F78EEA92E00E94E8038EE093E0FE
:101440000E94E8038EE693E00E94E8038EEC93E0AE
:101450000E94E80380914402909145020196909386
:1014600045028093440289EB94E0DF91CF91FF9095
:10147000EF90DF90CF900C94B612DF91CF91FF9058
:10148000EF90DF90CF9008952F923F924F925F920E
:101490006F927F928F929F92AF92BF92CF92DF9284
:1014A000EF92FF920F931F93CF93DF93CDB7DEB7E9
:1014B00060970FB6F894DEBF0FBECDBFDC01DA96A1
:1014C000BC91B983B11102C0198227C1988B8F8753
:1014D0000E94790E6E837F8388879987EF85F889CC
:1014E00082A193A1A4A1B5A14E815F816885798570
:1014F000481B590B6A0B7B0B86A597A5A0A9B1A920
:10150000481759076A077B07F8F2248D358DD901F2
:101510008D919D910D90BC91A02D8A839B83AC836E
:10152000BD8300A0F1A1E02D9C01AD01608171811E
:10153000828193810E9452184B015C01EF85F889EA
:1015400022A533A544A555A56A817B818C819D8107
:101550000E9452186B017C01AF85B88950962D917D
:101560003D914D915C915397C501B4010E94231A9E
:10157000EF85F88926A137A140A551A50E945318EF
:101580002B013C01AF85B88996966D937D938D9321
:101590009C939997DB96BC91BA87B11118C0EF85DF
:1015A000F8892485358546855785C701B6010E948F
:1015B000231A9B01AC01C301B2010E945218AF85EE
:1015C000B88996966D937D938D939C939997EF85AB
:1015D000F88946A057A060A471A416A907A930AC49
:1015E00021AC212F302F432D522DC301B2010E9477
:1015F0001E1A18162CF4812F902FA32DB22D18C06F
:10160000AF85B889D2968D919D910D90BC91A02DFA
:101610008B879C87AD87BE879C01AD01C301B2015A
:101620000E94BF1887FF0AC08B859C85AD85BE854B
:10163000EF85F88986A397A3A0A7B1A7FA85FF2312
:1016400079F0AF85B8891C962D913D914D915C91B3
:101650001F97C501B4010E94231A4B015C0103C00E
:10166000812C912C5401EF85F8892489358946898C
:101670005789C701B6010E94231A9B01AC01AF85AF
:10168000B88996966D917D918D919C9199970E94C4
:1016900052189B01AC01C501B4010E9453186B01A3
:1016A0007C01212F302F432D522D0E941E1A181617
:1016B000A4F0EF85F88912A903A934A825A8212F41
:1016C000302F432D522DB601C7010E94BF1887FD50
:1016D00004C01C2D0D2D3E2C2F2CAF85B8895E9695
:1016E000ED91FC915F97812F902FA32DB22D8083D8
:1016F0009183A283B3838A819B81AC81BD81EF8575
:10170000F88982A793A7A4A7B5A78E819F81A885F2
:10171000B98582A393A3A4A3B5A3898160960FB6CC
:10172000F894DEBF0FBECDBFDF91CF911F910F9117
:10173000FF90EF90DF90CF90BF90AF909F908F90F1
:101740007F906F905F904F903F902F9008952F92D1
:101750003F924F925F926F927F928F929F92AF9241
:10176000BF92CF92DF92EF92FF920F931F93CF938E
:10177000DF9300D01F92CDB7DEB71C0149835A8397
:101780006B837C832801390120E030E0A901698165
:101790007A818B819C810E94BF1887FD8FC020E0D9
:1017A00030E0A901C301B2010E94BF1887FD86C0C5
:1017B00020E030E0A901C701B6010E94BF1887FDF3
:1017C0007DC0D1015B96BC92AE925A9781E0AA94FB
:1017D000AB2809F080E0F10183AF89819A81AB8168
:1017E000BC8180839183A283B383448255826682C5
:1017F0007782C086D186E286F38666A577A580A922
:1018000091A90E946C1920E030E04AE754E40E945C
:10181000C4184B015C0189819A81AB81BC81F101C3
:1018200084879587A687B787A5019401C301B20174
:101830000E94231A2B013C01D10150966D937D9398
:101840008D939C935397A5019401C701B6010E9403
:10185000C4186B017C01F101648B758B868B978BAF
:10186000808D918D019751F529813A814B815C8161
:1018700060E070E0CB010E945218D1011C966D937C
:101880007D938D939C931F97A301920160E070E07C
:10189000CB010E945218F101608B718B828B938B6C
:1018A000A701960160E070E0CB010E945218D101BF
:1018B00054966D937D938D939C9357970F900F90B3
:1018C0000F900F90DF91CF911F910F91FF90EF90AC
:1018D000DF90CF90BF90AF909F908F907F906F9050
:1018E0005F904F903F902F9008952F923F924F928C
:1018F0005F926F927F928F929F92AF92BF92CF92A0
:10190000DF92EF92FF920F931F93CF93DF93EC013F
:101910006A017B0148015901A9019801C701B6017B
:101920000E941E1A87FF4EC0CAAADBAAECAAFDAA13
:101930008EAA9FAAA8AEB9AE8AAD882309F442C088
:101940002E8C3F8CF1014080518062807380A50114
:101950009401C301B2010E941E1A181634F4F10159
:1019600080829182A282B3820DC0A7019601C30139
:10197000B2010E94BF1887FF05C0F101C082D18269
:10198000E282F3828EA09FA0A8A4B9A4CEA8DFA86B
:10199000E8ACF9ACA7019601C501B4010E941E1A7A
:1019A000181664F0CAA8DBA8ECA8FDA8A701960148
:1019B000C501B4010E94BF1887FF04C0CEA2DFA2F8
:1019C000E8A6F9A6DF91CF911F910F91FF90EF90BC
:1019D000DF90CF90BF90AF909F908F907F906F904F
:1019E0005F904F903F902F9008958F929F92AF926B
:1019F000BF92CF92DF92EF92FF92CF93DF93EC01F1
:101A0000EE8DFF8DC080D180E280F380CEA2DFA278
:101A1000E8A6F9A6EC8DFD8D80819181A281B3812C
:101A20008AA79BA7ACA7BDA78EA89FA8A8ACB9AC56
:101A3000A5019401C701B6010E941E1A181664F090
:101A40008AA89BA8ACA8BDA8A5019401C701B601AE
:101A50000E94BF1887FF04C08EA29FA2A8A6B9A6A5
:101A6000DF91CF91FF90EF90DF90CF90BF90AF903C
:101A70009F908F9008951F93CF93DF93EC0111E017
:101A80006130710511F010E006C08AAD811103C00C
:101A9000CE010E94F50C1AAFDF91CF911F910895EE
:101AA0000F931F93CF93DF93EC018B018AAD8823B3
:101AB00061F1888D998D6817790739F12C853D85FD
:101AC0004E855F8560E070E0CB010E9452186C8704
:101AD0007D878E879F87288939894A895B8960E05D
:101AE00070E0CB010E945218688B798B8A8B9B8B9C
:101AF0002C893D894E895F8960E070E0CB010E94AE
:101B000052186C8B7D8B8E8B9F8B198F088FDF917A
:101B1000CF911F910F9108954F925F926F927F9294
:101B20008F929F92AF92BF92CF92DF92EF92FF92ED
:101B30000F931F93CF93DF9300D01F92CDB7DEB7E3
:101B40004C0127013801A982BA82CB82DC82FC01D8
:101B5000578F468F758F648F31A320A312AE12AAC0
:101B600013AA14AA15AA80E090E0AFE7B3E486AB0D
:101B700097ABA0AFB1AF84E690E0A0E0B0E086A75D
:101B800097A7A0ABB1AB6E8D7F8DC4010E94500DA5
:101B9000AC8CBD8CC88CD98CEA8CFB8C09811A81E9
:101BA0002B813C81B301A201C4010E94A70B0E94BA
:101BB000790EF40106A517A520A931A9DC01CB01F6
:101BC000801B910BA20BB30B82A393A3A4A3B5A379
:101BD0000F900F900F900F90DF91CF911F910F9169
:101BE000FF90EF90DF90CF90BF90AF909F908F903D
:101BF0007F906F905F904F9008958F929F92AF92D9
:101C0000BF92CF92DF92EF92FF920F931F93CF93E9
:101C1000DF93CDB7DEB7E889F989AA89BB899C88AB
:101C20008D888F929F921F92992493949F92BF9335
:101C3000AF93FF93EF930E948C0D0FB6F894DEBF25
:101C40000FBECDBFDF91CF911F910F91FF90EF900D
:101C5000DF90CF90BF90AF909F908F9008951F928C
:101C60000F920FB60F9211242F933F938F939F9350
:101C7000AF93BF9380913B0490913C04A0913D04AD
:101C8000B0913E0430913A0423E0230F2D3720F425
:101C90000196A11DB11D05C026E8230F0296A11DC6
:101CA000B11D20933A0480933B0490933C04A0938D
:101CB0003D04B0933E0480913F0490914004A09174
:101CC0004104B09142040196A11DB11D80933F04CF
:101CD00090934004A0934104B0934204BF91AF910C
:101CE0009F918F913F912F910F900FBE0F901F905A
:101CF00018952FB7F89460913B0470913C04809143
:101D00003D0490913E042FBF0895019739F0880F4C
:101D1000991F880F991F02970197F1F708957894FA
:101D200084B5826084BD84B5816084BD85B58260E0
:101D300085BD85B5816085BDEEE6F0E0808181607E
:101D40008083E1E8F0E0108280818260808380817E
:101D500081608083E0E8F0E0808181608083E1EB56
:101D6000F0E0808184608083E0EBF0E0808181603E
:101D70008083E1E9F0E080818260808380818160FE
:101D80008083E0E9F0E0808181608083E1EAF0E037
:101D9000808182608083808181608083E0EAF0E0DE
:101DA000808181608083E1E2F1E0808182608083D4
:101DB000808181608083E0E2F1E0808181608083C6
:101DC000EAE7F0E0808184608083808182608083A4
:101DD0008081816080838081806880831092C100CF
:101DE000089590E0FC013197E131F10508F04AC017
:101DF0008827EE58FF4F8F4F0C94B71A80918000C0
:101E00008F7703C0809180008F7D8093800008953C
:101E100084B58F7702C084B58F7D84BD089580918D
:101E2000B0008F7703C08091B0008F7D8093B000A9
:101E30000895809190008F7707C0809190008F7DEA
:101E400003C080919000877F8093900008958091D7
:101E5000A0008F7707C08091A0008F7D03C0809184
:101E6000A000877F8093A0000895809120018F7744
:101E700007C0809120018F7D03C080912001877F62
:101E8000809320010895CF93DF9390E0FC01EC5AFA
:101E9000FD4F2491FC01E656FD4F8491882361F1AA
:101EA00090E0880F991FFC01EC5EFC4FC591D49126
:101EB000FC01E650FD4FA591B491611109C09FB797
:101EC000F8948881209582238883EC912E230BC07F
:101ED000623061F49FB7F8943881822F8095832314
:101EE0008883EC912E2B2C939FBF06C08FB7F8945C
:101EF000E8812E2B28838FBFDF91CF9108951F9308
:101F0000CF93DF93282F30E0F901E25FFD4F8491FA
:101F1000F901EC5AFD4FD491F901E656FD4FC491F9
:101F2000CC23C9F0162F81110E94F10EEC2FF0E0A6
:101F3000EE0FFF1FE650FD4FA591B4918FB7F894B7
:101F4000111105C09C91ED2FE095E92302C0EC91A1
:101F5000ED2BEC938FBFDF91CF911F9108951F93CD
:101F6000CF93DF93182FEB0161E00E94430F20977E
:101F700011F460E004C0CF3FD10539F461E0812F56
:101F8000DF91CF911F910C947F0FE12FF0E0E25F82
:101F9000FD4FE4914E2F50E0FA013197E131F10508
:101FA00008F093C08827ED57FF4F8F4F0C94B71A56
:101FB00084B5806884BDC7BD8DC084B5806284BD92
:101FC000C8BD88C080918000806880938000D093D5
:101FD0008900C09388007EC08091800080628093D9
:101FE0008000D0938B00C0938A0074C08091B000B1
:101FF00080688093B000C093B3006CC08091B00043
:1020000080628093B000C093B40064C0809190005F
:10201000806880939000D0939900C09398005AC034
:1020200080919000806280939000D0939B00C09339
:102030009A0050C080919000886080939000D09367
:102040009D00C0939C0046C08091A0008068809352
:10205000A0008091A0008F7B8093A000D093A90066
:10206000C093A80037C08091A00080628093A00038
:10207000D093AB00C093AA002DC08091A0008860CF
:102080008093A000D093AD00C093AC0023C080919A
:102090002001806880932001D0932901C0932801FA
:1020A00019C080912001806280932001D0932B0180
:1020B000C0932A010FC08091200188608093200185
:1020C000D0932D01C0932C0105C0C038D1050CF070
:1020D00055CF4FCFDF91CF911F910895883008F0F1
:1020E00070C0A82FB0E0AA0FBB1FAD5BBB4F11960D
:1020F0007C936E9390E0FC013197E730F105A0F5F9
:102100008827EC56FF4F8F4F0C94B71A80916900C7
:102110008C7F482B40936900E89A0895809169006C
:10212000440F551F440F551F837F482B4093690070
:10213000E99A08958091690074E0440F551F7A95DB
:10214000E1F78F7C482B40936900EA9A08958091CB
:10215000690066E0440F551F6A95E1F78F73482BBD
:1021600040936900EB9A089580916A008C7F482B18
:1021700040936A00EC9A089580916A00440F551FBD
:10218000440F551F837F482B40936A00ED9A0895B2
:1021900080916A0024E0440F551F2A95E1F78F7C57
:1021A000482B40936A00EE9A089580916A0096E069
:1021B000440F551F9A95E1F78F73482B40936A009F
:1021C000EF9A08951F920F920FB60F9211240BB63B
:1021D0000F922F933F934F935F936F937F938F93C0
:1021E0009F93AF93BF93EF93FF9380914704909198
:1021F0004804892B29F0E0914704F091480419958F
:10220000FF91EF91BF91AF919F918F917F916F91CE
:102210005F914F913F912F910F900BBE0F900FBE8A
:102220000F901F9018951F920F920FB60F921124C6
:102230000BB60F922F933F934F935F936F937F93C0
:102240008F939F93AF93BF93EF93FF938091490434
:1022500090914A04892B29F0E0914904F0914A04B5
:102260001995FF91EF91BF91AF919F918F917F91C0
:102270006F915F914F913F912F910F900BBE0F90F7
:102280000FBE0F901F9018951F920F920FB60F92CE
:1022900011240BB60F922F933F934F935F936F933D
:1022A0007F938F939F93AF93BF93EF93FF9380910F
:1022B0004B0490914C04892B29F0E0914B04F09150
:1022C0004C041995FF91EF91BF91AF919F918F9120
:1022D0007F916F915F914F913F912F910F900BBE26
:1022E0000F900FBE0F901F9018951F920F920FB670
:1022F0000F9211240BB60F922F933F934F935F933E
:102300006F937F938F939F93AF93BF93EF93FF93BD
:1023100080914D0490914E04892B29F0E0914D0459
:10232000F0914E041995FF91EF91BF91AF919F915C
:102330008F917F916F915F914F913F912F910F906E
:102340000BBE0F900FBE0F901F9018951F920F920B
:102350000FB60F9211240BB60F922F933F934F930A
:102360005F936F937F938F939F93AF93BF93EF93FD
:10237000FF938091430490914404892B29F0E091CC
:102380004304F09144041995FF91EF91BF91AF91EF
:102390009F918F917F916F915F914F913F912F917D
:1023A0000F900BBE0F900FBE0F901F9018951F92AD
:1023B0000F920FB60F9211240BB60F922F933F93EB
:1023C0004F935F936F937F938F939F93AF93BF933D
:1023D000EF93FF938091450490914604892B29F057
:1023E000E0914504F09146041995FF91EF91BF915A
:1023F000AF919F918F917F916F915F914F913F919D
:102400002F910F900BBE0F900FBE0F901F9018953D
:102410001F920F920FB60F9211240BB60F922F93AB
:102420003F934F935F936F937F938F939F93AF935C
:10243000BF93EF93FF9380914F0490915004892BA9
:1024400029F0E0914F04F09150041995FF91EF911C
:10245000BF91AF919F918F917F916F915F914F91BC
:102460003F912F910F900BBE0F900FBE0F901F90BA
:1024700018951F920F920FB60F9211240BB60F9260
:102480002F933F934F935F936F937F938F939F937C
:10249000AF93BF93EF93FF938091510490915204B7
:1024A000892B29F0E0915104F09152041995FF9184
:1024B000EF91BF91AF919F918F917F916F915F91BC
:1024C0004F913F912F910F900BBE0F900FBE0F9029
:1024D0001F901895FC0124853585F901E05CFF4FBC
:1024E00080819181329620813181821B930B8F7381
:1024F00099270895DC011C96ED91FC911D97DF0151
:10250000A05CBF4F2D913C91119712968D919C919B
:1025100011972817390739F08D919C91E80FF91F11
:10252000808190E008958FEF9FEF0895FC01A485CE
:10253000B585FD01E05CFF4F2081318132968081BD
:1025400091812817390779F080819181A80FB91FEF
:102550008C91208131812F5F3F4F2F73332731833F
:10256000208390E008958FEF9FEF0895FC0181A1F3
:10257000882329F0A489B5898C9186FFFBCF11A20D
:1025800008950F931F93CF93DF93FC01A685B78522
:102590008D01005C1F4FE8018881998101968F733E
:1025A0009927AD014E5B5F4FEA012881398182177F
:1025B0009307D1F3E80128813981A20FB31F6C93EF
:1025C000A685B785A05CBF4F11969C938E93A68974
:1025D000B7892C9181E090E0078C02C0880F991F89
:1025E0000A94E2F7822B8C9381E081A30488F58919
:1025F000E02D80818064808381E090E0DF91CF9145
:102600001F910F910895FB01E05CFF4F2081318104
:102610002F5F3F4F2F733327DB01AE5BBF4F4D91D1
:102620005C912417350741F040815181DB01A40FF3
:10263000B51F8C9331832083089508951F920F92C4
:102640000FB60F9211240BB60F922F933F934F9317
:102650005F936F937F938F939F93AF93BF93EF930A
:10266000FF938091C00082FD07C08091C60067EB98
:1026700076E00E94031302C08091C600FF91EF91A3
:10268000BF91AF919F918F917F916F915F914F918A
:102690003F912F910F900BBE0F900FBE0F901F9088
:1026A000189508951F920F920FB60F9211240BB632
:1026B0000F922F933F934F935F936F937F938F93DB
:1026C0009F93AF93BF93EF93FF938091C80082FDD8
:1026D00007C08091CE006FE276E00E94031302C033
:1026E0008091CE00FF91EF91BF91AF919F918F911B
:1026F0007F916F915F914F913F912F910F900BBE02
:102700000F900FBE0F901F90189508951F920F9273
:102710000FB60F9211240BB60F922F933F934F9346
:102720005F936F937F938F939F93AF93BF93EF9339
:10273000FF938091D00082FD07C08091D60067EAA8
:1027400075E00E94031302C08091D600FF91EF91C3
:10275000BF91AF919F918F917F916F915F914F91B9
:102760003F912F910F900BBE0F900FBE0F901F90B7
:10277000189508951F920F920FB60F9211240BB661
:102780000F922F933F934F935F936F937F938F930A
:102790009F93AF93BF93EF93FF938091300182FD9E
:1027A00007C0809136016FE175E00E94031302C0FB
:1027B00080913601FF91EF91BF91AF919F918F91E1
:1027C0007F916F915F914F913F912F910F900BBE31
:1027D0000F900FBE0F901F90189589EB94E00E9408
:1027E0006A12892B11F00E941D1387E994E00E9460
:1027F0006A12892B11F00E94511385E794E00E9420
:102800006A12892B11F00E94851383E594E00E94DF
:102810006A12892B11F00C94B91308951F920F922C
:102820000FB60F9211240BB60F922F933F938F93F5
:102830009F93EF93FF932091B3063091B40680915C
:10284000B5069091B6062817390731F48091C1007A
:102850008F7D8093C10014C0E091B506F091B6065B
:10286000ED58F94F20818091B5069091B6060196FA
:102870008F7399279093B6068093B5062093C60070
:10288000FF91EF919F918F913F912F910F900BBEF0
:102890000F900FBE0F901F9018951F920F920FB6BA
:1028A0000F9211240BB60F922F933F938F939F9308
:1028B000EF93FF9320912B0630912C0680912D06EB
:1028C00090912E062817390731F48091C9008F7D29
:1028D0008093C90014C0E0912D06F0912E06E551B9
:1028E000FA4F208180912D0690912E0601968F73CC
:1028F000992790932E0680932D062093CE00FF916A
:10290000EF919F918F913F912F910F900BBE0F9060
:102910000FBE0F901F9018951F920F920FB60F9237
:1029200011240BB60F922F933F938F939F93EF93A6
:10293000FF932091A3053091A4058091A505909166
:10294000A6052817390731F48091D1008F7D809337
:10295000D10014C0E091A505F091A605ED59FA4FFC
:1029600020818091A5059091A60501968F739927E6
:102970009093A6058093A5052093D600FF91EF9133
:102980009F918F913F912F910F900BBE0F900FBE93
:102990000F901F9018951F920F920FB60F9211244F
:1029A0000BB60F922F933F938F939F93EF93FF93C9
:1029B00020911B0530911C0580911D0590911E05ED
:1029C0002817390731F4809131018F7D80933101CF
:1029D00014C0E0911D05F0911E05E552FB4F2081CA
:1029E00080911D0590911E0501968F7399279093F4
:1029F0001E0580931D0520933601FF91EF919F9155
:102A00008F913F912F910F900BBE0F900FBE0F90A3
:102A10001F901895CF92DF92EF92FF920F931F9322
:102A2000CF93DF93EC016A017B014115514E6105A3
:102A3000710509F1EC89FD8981E090E008A002C0F0
:102A4000880F991F0A94E2F7808360E079E08DE3B4
:102A500090E0A70196010E94951A89019A01015000
:102A60001109210931093695279517950795980180
:102A700001151041A8F0EC89FD89108260E874E826
:102A80008EE190E0A70196010E94951ADA01C90132
:102A90000197A109B109B695A795979587959C01CE
:102AA000E889F9893083EA89FB89208319A2EE89B4
:102AB000FF89408181E090E09C010C8C02C0220FD4
:102AC000331F0A94E2F7242B2083EE89FF8940818B
:102AD0009C010D8C02C0220F331F0A94E2F7242BB5
:102AE0002083EE89FF8940819C010E8C02C0220F59
:102AF000331F0A94E2F7242B2083EE89FF8920817B
:102B00000F8C02C0880F991F0A94E2F780958223E8
:102B10008083DF91CF911F910F91FF90EF90DF9015
:102B2000CF900895CF92DF92EF92FF92E9EBF4E01D
:102B30001382128288EEC82E83E0D82EE12CF12C6D
:102B4000C482D582E682F78266E272E07183608396
:102B500087EB96E09587848783E796E0978786875B
:102B600085EC90E0918B808B84EC90E0938B828B52
:102B700080EC90E0958B848B81EC90E0978B868B3A
:102B800082EC90E0918F808F86EC90E0938F828F23
:102B900044E0448F33E0358F27E0268F95E0978F10
:102BA00081E080A3E7E9F4E013821282C482D58237
:102BB000E682F78271836083AFE2B6E0B587A487CF
:102BC000ABEEB5E0B787A687ADECB0E0B18BA08BDC
:102BD000ACECB0E0B38BA28BA8ECB0E0B58BA48BCF
:102BE000A9ECB0E0B78BA68BAAECB0E0B18FA08FB8
:102BF000AEECB0E0B38FA28F448F358F268F978FC6
:102C000080A3E5E7F4E013821282C482D582E682D3
:102C1000F78271836083A7EAB5E0B587A487A3E64E
:102C2000B5E0B787A687A5EDB0E0B18BA08BA4ED8A
:102C3000B0E0B38BA28BA0EDB0E0B58BA48BA1ED7F
:102C4000B0E0B78BA68BA2EDB0E0B18FA08FA6ED60
:102C5000B0E0B38FA28F448F358F268F978F80A3DC
:102C6000E3E5F4E013821282C482D582E682F78221
:102C7000718360836FE175E0758764876BED74E045
:102C80007787668765E371E0718B608B64E371E041
:102C9000738B628B60E371E0758B648B61E371E031
:102CA000778B668B62E371E0718F608F66E371E012
:102CB000738F628F448F358F268F978F80A3FF90FD
:102CC000EF90DF90CF900895CF92DF92EF92FF9236
:102CD0000F931F93CF93DF936C01EB017B01E40E05
:102CE000F51E00E010E0CE15DF0561F06991D60118
:102CF000ED91FC910190F081E02DC6011995080F2E
:102D0000191FF1CFC801DF91CF911F910F91FF9053
:102D1000EF90DF90CF9008956115710579F0FB0178
:102D200001900020E9F73197AF01461B570BDC01FA
:102D3000ED91FC910280F381E02D199480E090E008
:102D400008950C948C16DC01ED91FC910190F081BA
:102D5000E02D19948F929F92AF92BF92CF92DF9203
:102D6000EF92FF920F931F93CF93DF93CDB7DEB710
:102D7000A1970FB6F894DEBF0FBECDBF6C01142F24
:102D8000E52FCB01022F19A2223008F40AE07E01C0
:102D900021E2E20EF11C802E912CA12CB12C612F8E
:102DA0007E2FA50194010E94951A029F10191124EB
:102DB00081E0E81AF1081A3014F4105D01C0195CC2
:102DC000F7011083122FE32FCA01232B242B252B6D
:102DD00031F7B701C6010E948C16A1960FB6F89480
:102DE000DEBF0FBECDBFDF91CF911F910F91FF903E
:102DF000EF90DF90CF90BF90AF909F908F9008950D
:102E0000CF92DF92EF92FF920F931F93CF93DF93B6
:102E1000EC016A017B012115310579F4E881F98122
:102E20000190F081E02D642FDF91CF911F910F91E0
:102E3000FF90EF90DF90CF9019942A303105E9F49C
:102E400077FF1AC06DE20E94A3168C014427552714
:102E5000BA014C195D096E097F092AE0CE010E9472
:102E6000AA16800F911FDF91CF911F910F91FF90B4
:102E7000EF90DF90CF9008952AE0B701A601CE0130
:102E8000DF91CF911F910F91FF90EF90DF90CF9046
:102E90000C94AA162115310541F4DC01ED91FC9149
:102EA0000190F081E02D642F19940C94AA169A01D8
:102EB000462F50E060E070E00C944A174F925F920A
:102EC0006F927F928F929F92AF92BF92CF92DF923A
:102ED000EF92FF92CF93DF93EC016A017B01B22E58
:102EE0009A01AB01C701B6010E94901A882319F01C
:102EF00062E372E027C026013701E89477F82FEFEC
:102F00003FEF4FE75FE7C301B2010E94901A8111C2
:102F10000DC02FEF3FEF4FE75FE7C301B2010E9403
:102F2000BF1818161CF466E372E00CC02FEF3FEFD9
:102F30004FE75FE4C701B6010E941E1A18169CF401
:102F40006AE372E0CE01DF91CF91FF90EF90DF90C6
:102F5000CF90BF90AF909F908F907F906F905F9039
:102F60004F900C948C162FEF3FEF4FE75FECC701AB
:102F7000B6010E94BF1887FDE3CF20E030E0A90131
:102F8000C701B6010E94BF1887FF0AC06DE2CE01DB
:102F90000E94A3164C01F7FAF094F7F8F09402C0DF
:102FA000812C912CA12C60E070E080E09FE3AB14B9
:102FB00041F020E030E040E251E40E94C418A394C4
:102FC000F6CF9B01AC01C701B6010E9453182B013B
:102FD0003C010E943D196B017C010E946C199B0110
:102FE000AC01C301B2010E9452182B013C012AE03E
:102FF000B701A601CE010E94AA167C01E80CF91CBB
:10300000BB2039F06EE372E0CE010E948C16E80E10
:10301000F91EDB2CDD2039F120E030E040E251E404
:10302000C301B2010E94231A2B013C010E943619F0
:103030004B01770FAA08BB082AE030E0B501A401D4
:10304000CE010E940017E80EF91EC501B4010E94CE
:103050006E199B01AC01C301B2010E9452182B01F1
:103060003C01DA94D7CFC701DF91CF91FF90EF9069
:10307000DF90CF90BF90AF909F908F907F906F9098
:103080005F904F9008950C945E170E948F0E0E94DF
:10309000E104CDEED3E10E9435052097E1F30E94D3
:1030A000ED13F9CF5058BB27AA270E946A180C9439
:1030B000E4190E94D61938F00E94DD1920F039F485
:1030C0009F3F19F426F40C94D3190EF4E095E7FB16
:1030D0000C94CD19E92F0E94F51958F3BA1762071D
:1030E00073078407950720F079F4A6F50C94171A56
:1030F0000EF4E0950B2EBA2FA02D0B01B901900113
:103100000C01CA01A0011124FF27591B99F0593F56
:1031100050F4503E68F11A16F040A22F232F342F9E
:103120004427585FF3CF469537952795A795F040EC
:103130005395C9F77EF41F16BA0B620B730B840B01
:10314000BAF09150A1F0FF0FBB1F661F771F881FB9
:10315000C2F70EC0BA0F621F731F841F48F4879511
:1031600077956795B795F7959E3F08F0B0CF939503
:10317000880F08F09927EE0F9795879508950E947C
:10318000A91908F481E008950E94D8180C94E41954
:103190000E94DD1958F00E94D61940F029F45F3FD3
:1031A00029F00C94CD1951110C94181A0C94D319C0
:1031B0000E94F51968F39923B1F3552391F3951BF8
:1031C000550BBB27AA2762177307840738F09F5F48
:1031D0005F4F220F331F441FAA1FA9F335D00E2EB5
:1031E0003AF0E0E832D091505040E695001CCAF722
:1031F0002BD0FE2F29D0660F771F881FBB1F2617E5
:1032000037074807AB07B0E809F0BB0B802DBF01BB
:10321000FF2793585F4F3AF09E3F510578F00C948A
:10322000CD190C94181A5F3FE4F3983ED4F38695B9
:1032300077956795B795F7959F5FC9F7880F911DAB
:103240009695879597F90895E1E0660F771F881F97
:10325000BB1F621773078407BA0720F0621B730B4A
:10326000840BBA0BEE1F88F7E09508950E943D1974
:103270006894B1110C94181A08950E94FD1988F0F1
:103280009F5798F0B92F9927B751B0F0E1F0660F2A
:10329000771F881F991F1AF0BA95C9F714C0B1306B
:1032A00091F00E94171AB1E008950C94171A672F35
:1032B000782F8827B85F39F0B93FCCF3869577959A
:1032C0006795B395D9F73EF4909580957095619583
:1032D0007F4F8F4F9F4F0895E89409C097FB3EF4AE
:1032E00090958095709561957F4F8F4F9F4F992353
:1032F000A9F0F92F96E9BB279395F69587957795D1
:103300006795B795F111F8CFFAF4BB0F11F460FF90
:103310001BC06F5F7F4F8F4F9F4F16C0882311F0E8
:1033200096E911C0772321F09EE8872F762F05C0FC
:10333000662371F096E8862F70E060E02AF09A9597
:10334000660F771F881FDAF7880F9695879597F98C
:103350000895990F0008550FAA0BE0E8FEEF161626
:103360001706E807F907C0F012161306E407F50779
:1033700098F0621B730B840B950B39F40A2661F0ED
:10338000232B242B252B21F408950A2609F4A14090
:10339000A6958FEF811D811D089597F99F6780E89D
:1033A00070E060E008959FEF80EC089500240A9497
:1033B0001616170618060906089500240A94121610
:1033C0001306140605060895092E0394000C11F443
:1033D000882352F0BB0F40F4BF2B11F460FF04C0F0
:1033E0006F5F7F4F8F4F9F4F089557FD9058440F49
:1033F000551F59F05F3F71F04795880F97FB991F54
:1034000061F09F3F79F08795089512161306140610
:10341000551FF2CF4695F1DF08C01616170618069D
:10342000991FF1CF86957105610508940895E89478
:10343000BB2766277727CB0197F908950E94A91922
:1034400008F48FEF08950E94361A0C94E4190E9434
:10345000D61938F00E94DD1920F0952311F00C9454
:10346000CD190C94D31911240C94181A0E94F51933
:1034700070F3959FC1F3950F50E0551F629FF001C7
:10348000729FBB27F00DB11D639FAA27F00DB11DE0
:10349000AA1F649F6627B00DA11D661F829F222769
:1034A000B00DA11D621F739FB00DA11D621F839FF0
:1034B000A00D611D221F749F3327A00D611D231FC6
:1034C000849F600D211D822F762F6A2F11249F5714
:1034D00050409AF0F1F088234AF0EE0FFF1FBB1F17
:1034E000661F771F881F91505040A9F79E3F5105D6
:1034F00080F00C94CD190C94181A5F3FE4F3983EB9
:10350000D4F3869577956795B795F795E7959F5F7F
:10351000C1F7FE2B880F911D9695879597F9089511
:103520000E94A919880B990B0895A1E21A2EAA1BD3
:10353000BB1BFD010DC0AA1FBB1FEE1FFF1FA21763
:10354000B307E407F50720F0A21BB30BE40BF50B60
:10355000661F771F881F991F1A9469F760957095E9
:10356000809590959B01AC01BD01CF010895EE0FB0
:10357000FF1F881F8BBF0790F691E02D19940E94C2
:10358000CA1AA59F900DB49F900DA49F800D911D08
:1035900011240895A29FB001B39FC001A39F700D95
:1035A000811D1124911DB29F700D811D1124911D4B
:0635B0000895F894FFCF1E
:1035B600536574706F696E743A00202000496E700E
:1035C60075743A004F75747075743A004D50574DC6
:1035D6003A0000000000C11264166A1296127A12AE
:1035E600B6126E616E00696E66006F7666002E001A
:00000001FF
